:1000000000800010653D0000993D00009B3D000010
:100010009D3D00009F3D0000A13D0000000000004C
:10002000000000000000000000000000A33D0000F0
:10003000A53D000000000000A73D0000A93D000014
:10004000AD3D0000AF3D0000B13D0000B33D0000FC
:10005000B53D0000B73D0000B93D0000BB3D0000CC
:10006000BD3D0000BF3D0000C13D0000C33D00009C
:10007000C53D0000C73D0000C93D0000CB3D00006C
:10008000CD3D0000CF3D0000D13D0000D33D00003C
:10009000D53D0000D73D0000D93D0000DB3D00000C
:1000A000DD3D0000DF3D0000E13D0000E33D0000DC
:1000B000E53D0000E73D0000E93D0000EB3D0000AC
:1000C000ED3D0000EF3D0000F13D000010B5054C96
:1000D000237833B9044B13B10448AFF300800123F4
:1000E000237010BD7418001000000000A44F010020
:1000F00008B5034B1BB103490348AFF3008008BDAB
:100100000000000078180010A44F0100154B002BD0
:1001100008BF134B9D46A3F5803A00218B460F463E
:100120001348144A121A08F03DF90F4B002B00D067
:1001300098470E4B002B00D0984700200021040068
:100140000D000D48002802D00C480DF051FE07F0BC
:10015000C5FC2000290002F0E5FF04F0FBFA00BF17
:1001600000000800008000100000000000000000F7
:100170007418001064240010F1DD000079ED000017
:1001800080B58AB000AFF860B9607A603B60002348
:100190003B6107F1140300221A60C3F80320D22345
:1001A0003B74BB681B12DBB27B74BB68DBB2BB74F5
:1001B0007B681B12DBB2FB747B68DBB23B753B6870
:1001C0001B12DBB27B753B68DBB2BB753B6B1B1252
:1001D000DBB2FB753B6BDBB23B767B6BDB1403F076
:1001E0001F037B627B6B9B1203F03F033B627B6BC5
:1001F000DB1003F01F03FB617B6ADBB2DB00DAB2CA
:100200003B6ADB10DBB21344DBB27B763B6ADBB2CA
:100210005B01DAB2FB69DBB21344DBB2BB7607F1F8
:1002200010030B221946F86800F087FC00BF28373E
:10023000BD4680BD80B58AB000AFF860B9607A6015
:100240003B6000233B6107F1140300221A60C3F8EE
:100250000320CF233B74BB681B12DBB27B74BB68EB
:10026000DBB2BB747B681B12DBB2FB747B68DBB256
:100270003B753B681B12DBB27B753B68DBB2BB7521
:100280003B6B1B12DBB2FB753B6BDBB23B767B6BD4
:10029000DB1403F01F037B627B6B9B1203F03F03B5
:1002A0003B627B6BDB1003F01F03FB617B6ADBB2FD
:1002B000DB00DAB23B6ADB10DBB21344DBB27B76E5
:1002C0003B6ADBB25B01DAB2FB69DBB21344DBB23F
:1002D000BB7607F110030B221946F86800F02DFCDD
:1002E00000BF2837BD4680BD80B58AB000AFF8603A
:1002F000B9607A603B6000233B6107F11403002280
:100300001A60C3F80320CE233B74BB681B12DBB218
:100310007B74BB68DBB2BB747B681B12DBB2FB7403
:100320007B68DBB23B753B681B12DBB27B753B68BD
:10033000DBB2BB753B6B1B12DBB2FB753B6BDBB2FD
:100340003B767B6BDB1403F01F037B627B6B9B12A2
:1003500003F03F033B627B6BDB1003F01F03FB6189
:100360007B6ADBB2DB00DAB23B6ADB10DBB2134440
:10037000DBB27B763B6ADBB25B01DAB2FB69DBB2F4
:100380001344DBB2BB7607F110030B221946F86861
:1003900000F0D3FB00BF2837BD4680BD80B58AB0D2
:1003A00000AFF860B9607A603B6000237B6107F1C1
:1003B000180300210A461A800A469A70CB233B751F
:1003C000BB681B12DBB27B75BB68DBB2BB757B689D
:1003D0001B12DBB2FB757B68DBB23B763B68DB1440
:1003E00003F01F037B623B689B1203F03F033B62F9
:1003F0003B68DB1003F01F03FB617B6ADBB2DB00B1
:10040000DAB23B6ADB10DBB21344DBB27B763B6AC9
:10041000DBB25B01DAB2FB69DBB21344DBB2BB7661
:1004200007F1140307221946F86800F086FB00BFA5
:100430002837BD4680BD80B58AB000AFF860B9608E
:100440007A603B600021F86800F04BFB0A21F868F5
:1004500000F047FBBB681B12DBB21946F86800F0DE
:1004600040FBBB68DBB21946F86800F03AFB7B68DA
:100470001B12DBB21946F86800F033FB7B68DBB275
:100480001946F86800F02DFB3B681B12DBB21946D9
:10049000F86800F026FB3B68DBB21946F86800F00C
:1004A0000BFB3B6B1B12DBB21946F86800F004FB38
:1004B0003B6BDBB21946F86800F0FEFA012004F04D
:1004C000D5F900237B623B683A6B02FB03F37A6A3F
:1004D0009A4237DA7B6A9B007A6B13441B68DB1401
:1004E00003F01F03FB617B6A9B007A6B13441B685C
:1004F0009B1203F03F03BB617B6A9B007A6B134442
:100500001B68DB1003F01F037B61FB69DBB2DB00C0
:10051000DAB2BB69DB10DBB21344DBB21946F86810
:1005200000F0DFFABB69DBB25B01DAB27B69DBB2F8
:100530001344DBB21946F86800F0D3FA7B6A013342
:100540007B62C0E700233B62FB686833184604F017
:10055000B1FA0346002B0CBF01230023DBB2002BB2
:1005600003D0002004F082F9EEE7FB6868331846F8
:1005700004F0A0FA0346002B14BF01230023DBB2D2
:10058000002B05D0FB685033184604F075FB386229
:100590003B6A062B02D0152B03D006E001233B62F9
:1005A00006E04FF0FF333B6202E000233B6200BFF6
:1005B00000BF2837BD4680BD80B584B000AF7860ED
:1005C0000B46FB70414B1B783B7307F10D03002278
:1005D0001A807D233B7300237B73FB78BB737B689E
:1005E000FA7883F834207B6893F83530012B06D1F4
:1005F0007B6880229A637B688022DA6305E07B68EF
:1006000080229A637B688022DA63FB78042B30D8DF
:1006100001A252F823F000BF3B060000490600008B
:1006200057060000650600002D0600007B680622C4
:100630001A647B6808225A6421E07B6807221A64E6
:100640007B6808225A641AE07B6808221A647B6877
:1006500008225A6413E07B6808221A647B680C2223
:100660005A640CE07B680C221A647B6810225A647E
:1006700005E07B6808221A647B6808225A647B685C
:100680009A6B7B681B6C7968896C01FB03F392FBA6
:10069000F3F3DAB27B6883F836207B68DA6B7B6829
:1006A0005B6C7968C96C01FB03F392FBF3F3DAB27C
:1006B0007B6883F8372007F10C030322194678681A
:1006C00000F03BFA00BF1037BD4680BD6C3E010014
:1006D00080B584B000AF78600B46FB700B4B1B7885
:1006E0003B7307F10D0300221A8077233B7300232D
:1006F0007B73FB78BB7307F10C0303221946786800
:1007000000F01BFA00BF1037BD4680BD6C3E0100F3
:1007100080B584B000AF78600B46FB701346BB70A9
:100720000023BB6000233B737B68FA7883F82C209E
:100730007B68BA7883F82D20E4233B7200237B7218
:100740007B6893F82D30BB720023FB727B6893F8B3
:100750002C303B7307F1080305221946786800F036
:10076000ECF900BF1037BD4680BD80B588B000AF42
:10077000786039600023FB6000233B747B683A6833
:100780001A637F233B733B68DB1403F01F03FB6199
:100790003B689B1203F03F03BB613B68DB1003F037
:1007A0001F037B61FB69DBB2DB00DAB2BB69DB10E4
:1007B000DBB21344DBB27B73BB69DBB25B01DAB241
:1007C0007B69DBB21344DBB2BB7307F10C0303227A
:1007D0001946786800F0B1F900BF2037BD4680BDEA
:1007E00080B584B000AF78600B46FB700023BB601F
:1007F0000023BB81FB781F2B46D8FB780A2B20D126
:100800007B68002283F82C207B6893F82D3001331D
:10081000DAB27B6883F82D20E4233B7200237B72DD
:100820007B6893F82D30BB720023FB727B6893F8D2
:100830002C303B7307F1080305221946786800F055
:100840007CF9FB780D2B18D17B68002283F82C20D3
:10085000E4233B7200237B727B6893F82D30BB72DC
:100860000023FB727B6893F82C303B7307F108037D
:1008700005221946786800F060F9FB780C2B18D136
:10088000786800F0E3F914E0FE233B7200237B72EA
:10089000FB78BB7207F1080303221946786800F061
:1008A0004CF97B6893F82C300133DAB27B6883F81B
:1008B0002C207B6893F82C207B6893F836309A4282
:1008C00020D17B68002283F82C207B6893F82D30A0
:1008D0000133DAB27B6883F82D20E4233B720023D6
:1008E0007B727B6893F82D30BB720023FB727B68B0
:1008F00093F82C303B7307F10803052219467868FA
:1009000000F01BF97B6893F82D207B6893F8373053
:100910009A4218D17B68002283F82D20E4233B7291
:1009200000237B727B6893F82D30BB720023FB722F
:100930007B6893F82C303B7307F1080305221946B6
:10094000786800F0FAF800BF1037BD4680BD80B46B
:1009500083B000AF786039603B68002B05D07B68BE
:10096000DB687A6852681A6004E07B681B697A6801
:1009700052681A6000BF0C37BD4680BC704780B516
:1009800082B000AF786039607B6801223968184610
:1009900003F0F4FA7B6818460837BD4680BD80B581
:1009A00082B000AF786039607B6839681846FFF71D
:1009B000CEFF00BF0837BD4680BD80B582B000AF16
:1009C0007860396039687868FFF7E9FF7B68184616
:1009D0000837BD4680BD80B582B000AF7860396011
:1009E0003B68DBB219467868FFF7FAFE0023184629
:1009F0000837BD4680BD80B483B000AF78604FF04B
:100A0000FF3318460C37BD4680BC704780B584B0B4
:100A100000AFF860B9607A603B60FB68002118465F
:100A200004F0FAF8224AFB681A60224AFB685A600E
:100A3000FB6803F1500000237A68B96803F0F4FF03
:100A4000FB68AC3339681846FFF799FFFB686833D9
:100A50004FF41651184604F025F8FB68AC33012119
:100A60001846FFF7AAFFF86800F0CEF8F86800F023
:100A7000EDF8FB68002283F82C20FB68002283F845
:100A80002D20FB686FF07F421A63FB68012283F818
:100A90003520FB680122DA64FB6801229A64002198
:100AA000F868FFF789FDFB6818461037BD4680BD22
:100AB0007C3E0100B03E010080B582B000AF78609E
:100AC0000B46FB707B685033FA781146184604F0E9
:100AD000C7F84FF4FA7003F0BDFE00BF0837BD46FB
:100AE00080BD80B582B000AF78600B46FB707B683C
:100AF0005033FA781146184604F0B2F800BF0837B0
:100B0000BD4680BD80B582B000AF78607B68683339
:100B1000184603F0CFFF0346002B14BF0123002328
:100B2000DBB2002B05D07B685033184604F0A4F8E4
:100B3000ECE700BF0837BD4680BD80B586B000AF8A
:100B4000F860B9607A6000233B61F868FFF7DAFF6C
:100B5000FF21F868FFF7B0FF00237B617A697B68AB
:100B60009A4217DA7B690F2B08DC7B69BA68134459
:100B70001B781946F868FFF7B4FF07E07B69BA688D
:100B800013441B781946F868FFF796FF7B69013319
:100B90007B61E3E7FB686833184603F08BFF03468D
:100BA000002B0CBF01230023DBB2002B03D000205D
:100BB00003F05CFEEEE7FB686833184603F07AFF4B
:100BC0000346002B14BF01230023DBB2002B05D00A
:100BD000FB685033184604F04FF838613B69062B28
:100BE00002D0152B03D006E001233B6106E04FF055
:100BF000FF333B6102E000233B6100BF3B691846C5
:100C00001837BD4680BD000080B582B000AF786067
:100C1000052003F02BFE7B68AC3300211846FFF75C
:100C2000CCFE052003F022FE7B68AC330121184680
:100C3000FFF7C3FE044803F01FFE7868FFF762FF6A
:100C400000BF0837BD4680BD0000404080B584B07D
:100C500000AF786000233B73D7233B7307F10C038D
:100C6000012219467868FFF768FF7B68002283F845
:100C70002D207B68002283F82C207B680122DA6417
:100C80007B6801229A6400217868FFF795FC00BF19
:100C90001037BD4680BD000080B586B000AF7860DB
:100CA0003960A84B1B783B7207F1090300221A80B8
:100CB00000217868FFF700FF0B233B7200237B7253
:100CC0004FF49C737B613B684DF6C022934200F069
:100CD0008B804DF6C02293422DDCB3F5965F6FD02A
:100CE000B3F5965F12DCB3F5167F5DD0B3F5167FD2
:100CF00005DC6E2B50D0B3F5967F51D0A1E0B3F553
:100D0000966F55D0B3F5166F56D09AE0B3F5964F5F
:100D100061D0B3F5964F06DCB3F5165F54D0B3F54A
:100D2000615F55D08DE047F61222934256D0B3F55D
:100D3000164F56D085E0844A934269D0824A934246
:100D400013DCB3F5FA3F58D0B3F5FA3F06DCB3F540
:100D5000614F4CD0B3F5E13F4CD072E0B3F57A3F30
:100D60004ED07A4A93424ED06BE0794A93425CD09F
:100D7000774A934206DC774A93424ED0764A9342B2
:100D800050D05EE0754A934255D0754A934255D093
:100D9000744A93424CD054E046F687237B6157E077
:100DA00042F20F737B6153E041F287337B614FE086
:100DB00040F6C3137B614BE040F2E1437B6147E0C7
:100DC0004FF41C737B6143E04FF49C737B613FE005
:100DD000CF237B613CE09B237B6139E05F237B6118
:100DE00036E04D237B6133E035237B6130E03323F4
:100DF0007B612DE019237B612AE016237B6127E0CC
:100E00000B237B6124E00A237B61574B3B601FE08F
:100E100008237B61554B3B601AE006237B61544BF2
:100E20003B6015E004237B6112E003237B610FE04C
:100E300002237B610CE001237B6109E000237B61DD
:100E400006E04FF49C737B614FF416533B6000BF88
:100E50000023FB607868FFF755FE7B691B12DBB24D
:100E60007B727B695A42DBB2D2B258BF5342DBB2CB
:100E7000BB72012003F0FAFC00233B613B69022BAB
:100E80000CDC07F108023B6913441B7819467868AB
:100E9000FFF727FE3B6901333B61EFE700233B612E
:100EA0003B69092B06DC012003F0E0FC3B690133C0
:100EB0003B61F5E77B6868333968184603F0F2FD5B
:100EC00000233B617B686833184603F0F3FD03465B
:100ED000002B06D13B6946F2A712934201DC0123A5
:100EE00000E00023002B06D0002003F0BFFC3B698C
:100EF00001333B61E6E77B686833184603F0DAFDAF
:100F00000346002B14BF01230023DBB2002B05D0C6
:100F10007B685033184603F0AFFEF860FB68062B81
:100F200002D0152B03D006E00123FB6006E04FF052
:100F3000FF33FB6002E00023FB6000BF00BF1837F7
:100F4000BD4680BD703E0100D8B80500E0930400A6
:100F5000B0710B0020A10700C027090060E3160054
:100F6000C0C62D0040420F00572904001516050089
:100F70001B8A060080B582B000AF7860094A7B68A2
:100F80001A60094A7B685A607B685033184600F043
:100F900023F87B68184603F019FE7B68184608376B
:100FA000BD4680BD7C3E0100B03E0100A0F10400C2
:100FB000E0E700BF80B582B000AF78607868FFF7E7
:100FC000D9FF786804F0E2FA7B6818460837BD4616
:100FD00080BDA0F10400EDE780B582B000AF78607D
:100FE000074A7B681A60074A7B685A607B68184624
:100FF00003F0ECFD7B6818460837BD4680BD00BF96
:10100000184701004C470100A0F10400E4E700BFCD
:1010100080B582B000AF78607868FFF7DDFF786850
:1010200004F0B4FA7B6818460837BD4680BDA0F1CD
:101030000400EDE780B584B000AFF860B9607A6075
:101040003B60FB687A68B968184603F08BFCFB6864
:101050003A689A601849194803F018FE1849174869
:1010600003F014FEFA68FB689B681946104603F00B
:1010700089FCFB683B22DA60FB683A221A61FB6854
:1010800002221A7501220021F86800F0BAF8FB6804
:1010900003225A7501220021F86800F09AF80949E4
:1010A000064803F0F3FD0649044803F0EFFDFB6832
:1010B00018461037BD4680BDD03E0100001F00100D
:1010C000E43E0100E83E010080B483B000AF7860E8
:1010D0007B6818460C37BD4680BC704780B582B02F
:1010E00000AF786001222A21786800F0D4F9034625
:1010F00018460837BD4680BD80B582B000AF786025
:10110000FE222A21786800F09BF90346184608372A
:10111000BD4680BD80B584B000AF786008461146FA
:101120001A460346FB700B46BB7013467B70BB69C7
:10113000002B0CD07868FFF7DFFF0346002B14BFAD
:1011400001230023DBB2002B01D001233DE000236B
:10115000FB7307F10F02FB781946786800F033FA49
:101160000346002B14BF01230023DBB2002B01D068
:1011700001232AE0FA7BBB781340DBB2FB73FA7BD6
:101180007B781343DBB2FB73FA7BFB7819467868F4
:1011900000F0ACF90346002B14BF01230023DBB29F
:1011A000002B01D0012310E0BB69002B0CD0786824
:1011B000FFF794FF0346002B14BF01230023DBB28B
:1011C000002B01D0012300E0002318461037BD4654
:1011D00080BD80B586B002AFF8600B467A60FB72C6
:1011E000FB68FA7A5A75FA7A7B6800931346FC22F8
:1011F0000E21F868FFF78EFF034618461037BD46EC
:1012000080BD80B586B002AFF8600B467A60FB7295
:10121000FB68FA7A1A75FB7A5B00DAB27B68009396
:101220001346FD222A21F868FFF774FF034618468B
:101230001037BD4680BD80B584B000AF786039609E
:101240007B681B7D022B01D101230EE00323FB6091
:101250007B681B7D002B01D10623FB60FB683A688D
:101260000121786800F087F9034618461037BD461B
:1012700080BD80B586B000AFF860B9607A603B6031
:1012800007F110031946F868FFF7D5FF0346002B56
:1012900014BF01230023DBB2002B01D001233FE068
:1012A000FB681B7D002B1DD107F110031946F86860
:1012B00000F047F90246BB681A6007F110030233D9
:1012C0001946F86800F03DF902467B681A6007F19C
:1012D000100304331946F86800F033F902463B68FE
:1012E0001A601CE007F110031946F86800F01CF9B9
:1012F0000246BB681A6007F1100301331946F8680B
:1013000000F012F902467B681A6007F110030233FD
:101310001946F86800F008F902463B681A60002395
:1013200018461837BD4680BDB0B584B000AFF86030
:10133000B9607A60B86810F09BFD04460D46786885
:1013400010F096FD02460B462046294610F024FF79
:1013500003460C46184621461037BD46B0BD80B442
:1013600085B000AF78604FF48063FB607B681B7DC5
:10137000012B01D14023FB607B685B7D012B02D0F8
:10138000022B06D00CE0FB68DA0F13445B10FB6005
:1013900006E0FB68002B00DA03339B10FB6000BF04
:1013A000FB6818461437BD4680BC704790B589B0BD
:1013B00000AFF860B9607A603B600023BB61002336
:1013C0007B6100233B6107F1100307F1140207F171
:1013D0001801F868FFF74DFF0346002B14BF0123E7
:1013E0000023DBB2002B01D0012325E0F868FFF7D2
:1013F000B6FFF861BB69FA691946F868FFF794FF10
:1014000003460C46BA68C2E900347B69FA6919469A
:10141000F868FFF789FF03460C467A68C2E9003492
:101420003B69FA691946F868FFF77EFF03460C46E8
:101430003A68C2E90034002318462437BD4690BDFF
:1014400080B584B000AF78600B46FB701346BB706C
:101450000023FB7307F10F02FB781946786800F050
:10146000B2F80346002B14BF01230023DBB2002B8C
:1014700001D000230BE0FA7BBB781340DBB2FB7397
:10148000FA7BFB781946786800F030F80346184676
:101490001037BD4680BD80B584B000AF78600B4684
:1014A000FB701346BB700023FB7307F10F02FB7840
:1014B0001946786800F087F80346002B14BF012313
:1014C0000023DBB2002B01D000230BE0FA7BBB78BA
:1014D0001343DBB2FB73FA7BFB781946786800F0A4
:1014E00005F8034618461037BD4680BD80B586B066
:1014F00002AF78600B46FB701346BB7000233B7352
:1015000000237B73FB783B73BB787B73786807F1B0
:101510000C020023009302233A2103F04DFA034604
:1015200018461037BD4680BD80B483B000AF7860E8
:1015300039603B681B785BB218460C37BD4680BCEF
:10154000704780B485B000AF786039600023FB81BC
:1015500007F10E0301333A6812781A7007F10E038F
:101560003A6852781A70B7F90E301B1118461437C2
:10157000BD4680BC704780B586B002AFF8607A6027
:101580003B600B46FB72F86807F10B0201230093E6
:1015900001233A2103F010FA0346002B14BF012364
:1015A0000023DBB2002B01D0012308E0F868002300
:1015B00000933B687A683A2103F016FA034618460E
:1015C0001037BD4680BD80B584B000AFF8600B46D3
:1015D0007A60FB72F97A01237A68F868FFF7CBFF2B
:1015E000034618461037BD4680BD000080B586B062
:1015F00002AFF860B9607A603B603B68032B37D874
:1016000001A252F823F000BF191600002F160000A7
:10161000451600005B160000174B01930B23009347
:101620000B23BA68F9681548FEF705FF20E0144B54
:1016300001930B2300930B23BA68F9680F48FEF758
:10164000FAFE15E00F4B01930B2300930B23BA68AE
:10165000F9680A48FEF7EFFE0AE00B4B01930B23F3
:1016600000930B23BA68F9680448FEF7E4FE00BF54
:1016700000BF1037BD4680BDCC0000103C1E0010DE
:10168000581C001090180010741A001080B586B015
:1016900002AFF860B9607A607B68012B0FD0022B33
:1016A00018D0002B00D020E0124B01930B230093A5
:1016B0000B23BA68F9681048FEF7BDFE15E00F4B22
:1016C00001930B2300930B23BA68F9680A48FEF7CD
:1016D000B2FE0AE00A4B01930B2300930B23BA6876
:1016E000F9680548FEF7A7FE00BF00BF1037BD46EA
:1016F00080BD00BF780600103C1E00105C08001082
:10170000400A001080B500AF0649074800F046F8CF
:101710000649054800F00EF80549044800F074F841
:1017200000BF80BD90180010CC000010581C0010A5
:10173000741A001080B485B000AF7860396000235F
:10174000FB60FB680A2B24DC0023BB60BB680A2B10
:101750001BDCBA6813469B0013445B001A44FB6809
:1017600013449B007A68D118FA6813469B0013440F
:101770005B001A44BB6813449B003A6813440A6830
:101780001A60BB680133BB60E0E7FB680133FB60B4
:10179000D7E700BF1437BD4680BC704780B485B022
:1017A00000AF786039600023FB60FB680A2B26DC01
:1017B0000023BB60BB680A2B1DDCFA6813469B0044
:1017C00013445B001A44BB6813449B007A68D11829
:1017D000FA6813469B0013445B00134403F10A02AA
:1017E000BB68D31A9B003A6813440A681A60BB6846
:1017F0000133BB60DEE7FB680133FB60D5E700BF68
:101800001437BD4680BC704780B485B000AF7860A7
:1018100039600023FB60FB680A2B26DC0023BB60D9
:10182000BB680A2B1DDCFA6813469B0013445B005F
:101830001A44BB6813449B007A68D118FB68C3F153
:101840000A0213469B0013445B001A44BB6813440E
:101850009B003A6813440A681A60BB680133BB6096
:10186000DEE7FB680133FB60D5E700BF1437BD46F8
:1018700080BC704780B584B002AF786039607B6807
:1018800003F10A013B680A330022019200930B46E0
:101890003A6879680348FEF727FD00BF0837BD4660
:1018A00080BD00BF3C1E001080B584B002AF7860E0
:1018B0003960074B01930B2300930B233A68796837
:1018C0000448FEF7B8FD00BF0837BD4680BD00BF25
:1018D000B00200103C1E001080B584B002AF7860EA
:1018E0003960074B01930B2300930B233A68796807
:1018F0000448FEF7A0FD00BF0837BD4680BD00BF0D
:10190000940400103C1E001080B584B002AF7860D3
:1019100039607B6803F10A013B680A3300220192B7
:1019200000930B463A6879680748FEF7DDFC7B6850
:10193000591D3B685A1D6FF07F430348FEF72EFD8B
:1019400000BF0837BD4680BD3C1E001080B584B086
:1019500002AF78603960074B01930B2300930B2390
:101960003A6879680448FEF766FD00BF0837BD464F
:1019700080BD00BF240C00103C1E001080B586B056
:1019800002AFF860B9607A603B60FF2301930923DE
:1019900000937F23092200211C48FEF7F1FB7B689E
:1019A000002B0BD04FF47F030193082300937F2378
:1019B000002200211548FEF797FC09E0002301935F
:1019C000082300937F23002200211048FEF78CFC9F
:1019D000002200210D48FEF79BFE6FF07F410B486F
:1019E000FEF7C3FE00210948FEF7E6FD0021074887
:1019F000FEF76EFE3B680093BB68FA680449034833
:101A000003F044F900BF1037BD4680BD3C1E0010F6
:101A10002841010080B584B002AF7860FF230193B4
:101A2000762300937F23762200211748FEF7A8FB38
:101A3000002301937F2300937F2377220021124804
:101A4000FEF752FC0F2200210F48FEF761FE6FF0F7
:101A50007F410D48FEF789FE00210B48FEF7ACFDE3
:101A600000210948FEF734FE7B68002B01D0074BAC
:101A700000E0074B1A460749034803F007F900BF87
:101A80000837BD4680BD00BF3C1E00103C41010030
:101A9000444101004C41010080B582B002AF154BBA
:101AA00001930E2300937F23092200211248FEF7A1
:101AB0001BFC104B01937223009302230D22002183
:101AC0000D48FEF711FC0B4B0193752300937F2308
:101AD000722200210848FEF707FC064B019375238C
:101AE00000937F230E227C210348FEF7FDFB00BFFD
:101AF000BD4680BD00FFFF003C1E001080B483B0D7
:101B000000AF78607B685B691A687B685B6813402C
:101B1000002B01D0012300E0002318460C37BD46FE
:101B200080BC704780B582B000AF786039607B6858
:101B300000223968184602F021FA7B6818460837F7
:101B4000BD4680BD80B582B000AF78607B68184626
:101B5000FFF7D4FF034618460837BD4680BD80B561
:101B600082B000AF78600B46FB707B68FA78114654
:101B7000184602F0EDF900BF0837BD4680BD80B5BC
:101B800082B000AF78607868FFF7DCFF0346184644
:101B90000837BD4680BD80B582B000AF786039603F
:101BA0007B683968184602F08DF97B68184608375B
:101BB000BD4680BD80B582B000AF786039607B687B
:101BC0003968184602F080FA7B6818460837BD4627
:101BD00080BD000080B500AF0D490E48FFF75CF8EE
:101BE0004FF4E1310C4802F05DFF00210B48FFF794
:101BF000B6FF00210A48FFF7B2FF00210948FFF7AE
:101C0000AEFF00210848FFF7AAFF0023184680BD59
:101C1000C0C62D003C1E0010181F0010741F0010BD
:101C20008C1F0010A41F0010BC1F001080B582B0D4
:101C300000AF78607B6803F120007B6803F1180235
:101C40007B6803F1100103464748FFF7AFFB4748A5
:101C5000FFF795FF0346002B05D1454B1B68002B72
:101C600001D1012300E00023002B03D07B68012277
:101C70001A6002E07B6800221A603C48FFF77FFF91
:101C80000346002B0CBF01230023DBB21A46384B5E
:101C90001A603848FFF773FF0346002B05D1364B17
:101CA0001B68002B01D1012300E00023002B03D08F
:101CB0007B6801225A6002E07B6800225A602D484E
:101CC000FFF75DFF0346002B0CBF01230023DBB2AF
:101CD0001A46294B1A602948FFF751FF0346002B8B
:101CE00005D1274B1B68002B01D1012300E0002305
:101CF000002B03D07B6801229A6002E07B680022FF
:101D00009A601E48FFF73BFF0346002B0CBF0123E0
:101D10000023DBB21A461A4B1A601A48FFF72FFF4E
:101D20000346002B05D1184B1B68002B01D1012362
:101D300000E00023002B03D07B680122DA6002E080
:101D40007B680022DA600F48FFF719FF0346002B7B
:101D50000CBF01230023DBB21A460B4B1A6000BFF5
:101D600078680837BD4680BD5C1F0010741F0010E6
:101D7000202200108C1F001024220010A41F00102D
:101D800028220010BC1F00102C22001080B582B049
:101D900000AF7860054A7B681A607B68184602F0DD
:101DA000F5FF7B6818460837BD4680BD084801002E
:101DB00080B582B000AF78607868FFF7E7FF786899
:101DC00003F0E4FB7B6818460837BD4680BD80B54C
:101DD00082B000AF78607B6808331846FFF7D6FF03
:101DE0007B6818460837BD4680BD000080B582B0CC
:101DF00000AF786039607B68012B46D13B684FF6B5
:101E0000FF72934241D1234B234A24492448FEF7D1
:101E1000FDFD244A2449224803F070FD0023234A93
:101E20002349244802F000FE1E4A2349214803F0BA
:101E300065FD224B224A23492348FFF7FBF8194A44
:101E40002249214803F05AFD21492248FFF76AFE42
:101E500021492248FFF766FE21492248FFF762FE2A
:101E600021492248FFF75EFE21492248FFF793FEF1
:101E700021492248FFF79EFE1E49214801F070FDCE
:101E8000084A20491E4803F039FD00BF0837BD4607
:101E900080BD00BF12C0092001C0092000C0092078
:101EA0003C1E0010C8000010750F000003C0092080
:101EB00002C00920001F0010D90F0000A0860100F9
:101EC0000BC009200AC009205C1F0010C9100000C7
:101ED00045C00920741F001044C009208C1F001049
:101EE00043C00920A41F001042C00920BC1F0010DD
:101EF0001AC00920D41F001040C00920D81F0010AC
:101F0000E01F0010CF1D000080B500AF4FF6FF713D
:101F10000120FFF76BFF80BD80B584B000AF786013
:101F200039600C2005F07EFEF860FB68002B03D1C1
:101F30000849094802F0AAFEFB6800229A60FB6883
:101F40007A681A60FB683A685A60FB68184610376E
:101F5000BD4680BD54410100001F001080B584B013
:101F600000AF786039607B685B6838689847B86014
:101F70007B681A68BB689B0013441B68FB60FB68A6
:101F8000002B0AD0FB681B683A689A4201D1FB68B3
:101F900004E0FB689B68FB60F1E7002318461037FC
:101FA000BD4680BD80B584B000AF786039607B6885
:101FB0005B6838689847B8607B681A68BB689B00A4
:101FC00013441B68FB60FB68002B0FD0FB689B6809
:101FD000002B0BD0FB689B681B683A689A4201D1C2
:101FE000FB6804E0FB689B68FB60ECE70023184695
:101FF0001037BD4680BD000080B584B000AF78606A
:1020000039603B68002B05D11E4806F037FA0120E5
:1020100002F0A0FB0C2005F005FEB860BB68002BA9
:1020200003D11949194802F031FEBB687A685A6039
:10203000BB683A689A603B689B00184605F0F2FD61
:102040000246BB681A60BB681B68002B03D10E49AF
:102050000E4802F01BFE0023FB60FA683B689A42C0
:102060000AD2BB681A68FB689B00134400221A60FE
:10207000FB680133FB60F0E7BB6818461037BD46CC
:1020800080BD00BF6441010054410100001F0010E9
:1020900080B588B000AFF860B9607A60B968F86858
:1020A000FFF75CFFF861FB69002B07D0FB695B68F9
:1020B0007B61FB697A685A607B6919E07968B86866
:1020C000FFF72AFFF861FB685B68B8689847B8615A
:1020D000FB681A68BB699B0013441A68FB699A6025
:1020E000FB681A68BB699B001344FA691A600023F5
:1020F00018462037BD4680BD80B584B000AF7860FB
:10210000396039687868FFF729FFF860FB68002BB1
:1021100001D1002301E0FB685B6818461037BD461B
:1021200080BD80B586B000AF786039607B685B6841
:102130003868984738617B681A683B699B0013448C
:102140001B687B617B69002B25D07B691B683A6823
:102150009A4208D17B681A683B699B0013447A69EC
:1021600092681A600EE039687868FFF71BFFF86024
:10217000FB68002B11D0FB689B687B617B699A68C8
:10218000FB689A607B695B68184605F053FD7869C7
:1021900005F050FD02E000BF00E000BF1837BD466B
:1021A00080BD90B482B000AFC7E900013B687A6897
:1021B00022F00044184621460837BD4690BC7047BF
:1021C00080B485B000AF786039600023FB60FB68A5
:1021D000022B1CDC1149FA6813469B0013449B0038
:1021E0000B441B687A689A420DD10C49FA68134671
:1021F0009B0013449B000B4404331B683A689A42CB
:1022000001D1FB6805E0FB680133FB60DFE74FF0BD
:10221000FF3318461437BD4680BC70475C2200105F
:1022200080B485B000AF786039600023FB60FB6844
:10223000022B1DDC1249FA6813469B0013449B00D5
:102240000B4408331B687A689A420DD10C49FA682E
:1022500013469B0013449B000B440C331B683A68E5
:102260009A4201D1FB6805E0FB680133FB60DEE7C1
:102270004FF0FF3318461437BD4680BC704700BF8F
:102280005C2200100000000084B0F8B500AF07F138
:10229000180484E80F007B6A002B01D0012371E051
:1022A0003F4BDB693E4A1362BB69002B09D03C4BB4
:1022B000DB69002B0CBF01230023DBB21A46384B2D
:1022C000DA61374B5B69364A9361D7E90A341846BD
:1022D0002146FFF766FF05460E46D7E90C3418463F
:1022E0002146FFF75EFF0A46014601231C461346BE
:1022F0000A462846314610F0B5F80346002B01D1B6
:1023000000231C46E3B2002B1DD0D7E90A0120A30D
:10231000D3E9002310F088F80346002B04D0204BAB
:1023200002225A6103232DE0D7E90A011AA3D3E957
:10233000002310F097F80346002B22D0184B002200
:102340005A6104231EE0D7E90C0111A3D3E900234D
:1023500010F06AF80346002B04D0114B01225A6199
:1023600006230FE0D7E90C010BA3D3E9002310F0FB
:1023700079F80346002B04D0094B03225A61052348
:1023800000E000231846BD46BDE8F84004B07047A1
:102390009A9999999999C9BF9A9999999999C93F7F
:1023A0003022001080B588B000AF78600023FB6158
:1023B000A04B1B689F4A93609E4B5B689D4AD3600D
:1023C0009C4B5B6A9B4A93627B68013B052B00F246
:1023D0004F8101A252F823F07925000071260000F8
:1023E0005324000017250000F1230000B52400004D
:1023F000904B1A688F4B5B681946104601F044F801
:10240000B861BB69002B08D0BB699B68002B04D165
:10241000884BDB69002B00F02D81864B1A68854BB9
:102420005B68013B19461046FFF7CAFE0346002BC6
:1024300005DB804BDB69002B01D1012300E0002389
:10244000002B40F019817B4B5B68013B794A53605C
:1024500021E1784B1A68774B5B681946104601F00A
:1024600043F8B861BB69002B08D0BB699B68002B9F
:1024700004D1704BDB69002B00F000816D4B1B68B1
:102480005A1E6C4B5B6819461046FFF799FE0346CF
:10249000002B05DB674BDB69002B01D1012300E03A
:1024A0000023002B40F0EC80624B1B68013B614A2B
:1024B0001360F0E05F4B1A685E4B5B68194610468C
:1024C00000F0F2FFB861BB69002B08D0BB699B68C4
:1024D000002B04D1574BDB69002B00F0D380554B08
:1024E0001A68544B5B68013319461046FFF768FEC3
:1024F0000346002B05DB4F4BDB69002B01D1012389
:1025000000E00023002B40F0BF804A4B5B680133A2
:10251000484A5360BFE0474B1A68464B5B68194610
:10252000104600F0D1FFB861BB69002B08D0BB6931
:102530009B68002B04D13F4BDB69002B00F0A68089
:102540003C4B1B685A1C3B4B5B6819461046FFF717
:1025500037FE0346002B05DB364BDB69002B01D130
:10256000012300E00023002B40F09280314B1B68D8
:102570000133304A13608EE02E4B1A682D4B5B6896
:102580001946104600F0C0FFB861BB69002B1CD093
:10259000BB691B68032B18D1BB69DB687B617B6956
:1025A0001B68184600F0F0FE7B691B68184600F0B7
:1025B00031FC7B695B681F4A13607B699B681D4A1D
:1025C00053600223FB6100BF65E04FF0FF333B61C6
:1025D000184B1B685A1C174B5B6819461046FFF7CF
:1025E000EFFDF860FB68002B01DBFB6800E03B6956
:1025F0003B61104B1B685A1E0E4B5B681946104618
:10260000FFF7DEFDF860FB68002B01DBFB6800E0F4
:102610003B693B61074B1A68064B5B6801331946FF
:102620001046FFF7CDFDF860FB68002B04DBFB686C
:1026300003E000BF302200103B693B61284B1A6861
:10264000274B5B68013B19461046FFF7B9FDF86060
:10265000FB68002B01DBFB6800E03B693B613B69E9
:10266000002B17DB386900F03DF80223FB6112E014
:1026700000BF10E000BF0EE000BF0CE000BF0AE0AA
:1026800000BF08E000BF06E000BF04E000BF02E0BA
:1026900000BF00E000BF124B1A68114B5B6819467F
:1026A000104600F031FFB861BB69002B12D0BB6946
:1026B0001B68012B0ED10A4B5B6A0133084A536237
:1026C000074B1A68064B5B681946104600F033FF4B
:1026D0000223FB61FB6918462037BD4680BD00BF61
:1026E0003022001080B584B002AF78607B68002B88
:1026F00002D07B68012B06D12B4B1B6819462B4857
:1027000001F0DCF84BE07B68022B48D1284B1B69B9
:10271000002B0AD1264B5B6A002B06DC254B1B687D
:102720001946254801F0CAF839E0214B1B69002BF6
:1027300011D11F4B01221A610523009305230122A9
:102740002F21272000F0DEFF1C4B1B6819461C4878
:1027500001F0B4F823E0164B1B69012B06D1194B8D
:102760001B681946184801F0A9F818E0104B1B69BE
:10277000022B09D10E4B03221A61144B1B68194618
:10278000134801F09BF80AE0094B1B69032B06D1A3
:10279000104B1B681946104801F090F8FFE700BF86
:1027A0000837BD4680BD00BF1C0E0010080E00108B
:1027B00030220010380E0010200E0010540E0010B1
:1027C0003C0E0010600E0010580E0010740E001029
:1027D000640E0010840E0010780E001080B58EB0CC
:1027E00000AF78607B68002B01D0FFF755F96FF0E0
:1027F00004037B637B6B052B00F37C816FF0030389
:102800003B633B6B042B00F371819B4B1B687A6B22
:102810001344BB62984B5B683A6B13447B62964BE4
:102820009B687A6B13443B62934BDB683A6B1344AF
:10283000FB617B6B5A1D13469B0013445B001344E2
:102840000333BB613B6B1A1D13469B0013445B00B3
:1028500013440F337B610023FB627B6B002B15D18C
:102860003B6B002B12D17B68002B06D1824B5A693F
:10287000814B9B699A4200F032817F4B1A697E4BF3
:102880005B697969B869FEF7B1FE28E1BB6A002B84
:1028900010DB7B6A002B0DDB00F0DAFD0246BB6A21
:1028A000934207DA00F0DCFD02467B6A934201DACC
:1028B000012300E00023002B00F00481796AB86A4C
:1028C000FFF77EFC38613B69DB43DB0FDBB2002B9B
:1028D00041D07B68002B2FD1BA6A3B6A9A422BD138
:1028E0007A6AFB699A4227D164493A6913469B0088
:1028F00013449B000B44196860483A6913469B00D7
:1029000013449B00034408331B68994214D15B496C
:102910003A6913469B0013449B000B440433196827
:1029200056483A6913469B0013449B0003440C33FA
:102930001B68994200F0D58050493A6913469B00C4
:1029400013449B000B4410331B681A467969B8691D
:10295000FEF79CFEC5E0F969386AFFF731FC386183
:102960003B69002B0CDB7B68002B07D1BA6A3B6A02
:102970009A4203D17A6AFB699A4201D0012300E0AE
:102980000023002B02D03E4BFB6280E0796AB86ADC
:10299000FFF746FC38613B69002B2BDB7B68002B83
:1029A00026D136493A6913469B0013449B000B44D9
:1029B000196832483A6913469B0013449B0003444C
:1029C00008331B68994213D12C493A6913469B007E
:1029D00013449B000B440433196828483A69134692
:1029E0009B0013449B0003440C331B68994201D0A5
:1029F000012300E00023002B02D0214BFB6246E0C4
:102A0000F969386AFFF70CFC38613B69002B39DB48
:102A10007B68002B2ED1BA6A3B6A9A422AD17A6A25
:102A2000FB699A4226D115493A6913469B00134423
:102A30009B000B44196811483A6913469B001344E4
:102A40009B00034408331B68994213D10B493A6930
:102A500013469B0013449B000B440433196807483A
:102A60003A6913469B0013449B0003440C331B68D4
:102A7000994207D0012306E0302200105C220010AA
:102A8000751800000023002B01D0324BFB62796ADD
:102A9000B86A00F039FDF860F969386A00F034FD71
:102AA000B8607B68002B03D1FA68BB689A420ED0ED
:102AB000FB68002B03D0FB685B68FB6207E0254BDB
:102AC000FB6204E07B68002B01D0234BFB62FB6AB6
:102AD000002B07D0FB6A7969B869984702E000BF0C
:102AE00000E000BF3B6B01333B638AE67B6B013345
:102AF0007B637FE6194B1A68184B9B689A4211D189
:102B0000164B5A68154BDB689A420BD1134BDA69A6
:102B1000124B1B6A9A4205D1104B5A6A0F4B9B6AA3
:102B20009A4209D00D4B18680C4B59680B4BDA6967
:102B30000A4B5B6AFEF722FF7B68002B05D000F092
:102B400019FC03461846FEF765FF00BF3837BD463F
:102B500080BD00BF75180000A918000030220010C9
:102B600090B587B002AF002000F00EFC0523FB609B
:102B7000FB68312B10DC0523BB60BB68312B07DC05
:102B8000B968F86800F082FDBB680533BB60F4E704
:102B9000FB680533FB60EBE700F05AFC03460333A8
:102BA0007B6000F065FC02467B689342B4BF012362
:102BB0000023DBB2002B16D000F04AFC02467B68F3
:102BC00093FBF2F102FB01F29C1A00F041FC024679
:102BD0007B6893FBF2F31946204600F01BFD7B68EF
:102BE00082337B60DDE7012300220021002000F01A
:102BF000B9FC8549854802F049F800F0D5FB012071
:102C000000F0C2FB012300220021002000F0AAFCFA
:102C10000223012201210B2000F0A4FC0223012247
:102C200014210B2000F09EFC022300220B21012026
:102C300000F098FC022300220A21142000F092FCEC
:102C4000022300220C21142000F08CFC0723002218
:102C50000421082000F086FC07230022122108200E
:102C600000F080FC0323012205210B2000F07AFCF8
:102C7000032301220F210B2000F074FC0323002208
:102C80000221022000F06EFC042300220221062013
:102C900000F068FC0423002202210D2000F062FCF9
:102CA000032300220221122000F05CFC03230022F7
:102CB0001421022000F056FC0423002214210620D7
:102CC00000F050FC0423002214210D2000F04AFCE7
:102CD000032300221421122000F044FC06230122C9
:102CE0000421062000F03EFC0323002206210720D9
:102CF00000F038FC062301220421102000F032FCF1
:102D00000323002206210D2000F02CFC06230122C3
:102D10000D21062000F026FC0323002210210720AD
:102D200000F020FC062301220D21102000F01AFCE7
:102D30000323002210210D2000F014FC03230122A4
:102D40000421032000F00EFC0223012208210320AD
:102D500000F008FC032301220421132000F002FCF0
:102D6000012301220821132000F0FCFB0323012290
:102D70001021032000F0F6FB022301220D21032085
:102D800000F0F0FB032301221021132000F0EAFBE6
:102D9000012301220E21132000F0E4FB072300226F
:102DA0000921082000F0DEFB072300220D21082066
:102DB00000F0D8FB032301220A21082000F0D2FBF7
:102DC000032301220A210E2000F0CCFB0323002262
:102DD0000B21042000F0C6FB032300220B2110204E
:102DE00000F0C0FB2F230093262300220B21152087
:102DF00000F088FC0649054801F048FF00F0D4FACD
:102E000000BF1437BD4690BD40430100001F0010B5
:102E10004C43010080B483B000AF78602E4B002299
:102E20001A612D4B01225A622B4B02229A637B6856
:102E3000002B24D1284B07221A60274B06225A6008
:102E4000254B07229A60244B0622DA60224B13227C
:102E50005A61214B0F229A611F4B1322DA611E4BDC
:102E60000F221A621C4B2A229A621B4B2F22DA6213
:102E7000194B2A221A63184B2F225A6326E07B68CB
:102E8000012B23D1144B05221A60134B11225A60D7
:102E9000114B05229A60104B1122DA600E4B112261
:102EA0005A610D4B05229A610B4B1122DA610A4BD4
:102EB00005221A62084B11229A62074B1122DA622C
:102EC000054B11221A63044B11225A6300BF0C37C1
:102ED000BD4680BC704700BF5C22001090B589B031
:102EE00000AF78607B68002B40F0FF8000233B61DF
:102EF0000023BB6100237B617B69022B00F3F6801A
:102F00007C497A6913469B0013449B000B44196863
:102F100078487A6913469B0013449B0003440833A6
:102F2000196074497A6913469B0013449B000B4453
:102F3000043319686F487A6913469B0013449B0059
:102F400003440C3319606C4B19686A487A6913465C
:102F50009B0013449B0003441B68CB1AFB60664B29
:102F6000596864487A6913469B0013449B000344E4
:102F700004331B68CB1A3B615E497A6913469B0098
:102F800013449B000B441C68F86800F0B7F8034634
:102F90002344FB6157497A6913469B0013449B0005
:102FA0000B4404331B681946F86900F0ADFA034678
:102FB000002B0FD14F497A6913469B0013449B00A5
:102FC0000B4404331B681946F869FFF7F9F8034608
:102FD000002B01DB012300E00023002B02D04FF087
:102FE000FF33FB6143497A6913469B0013449B00FE
:102FF0000B4404331C68386900F080F8034623440E
:10300000BB613C497A6913469B0013449B000B4407
:103010001B68B969184600F077FA0346002B0ED1F9
:1030200034497A6913469B0013449B000B441B6888
:10303000B9691846FFF7C4F80346002B01DB0123EA
:1030400000E00023002B02D04FF0FF33BB61FB698F
:10305000002B0CDBBB69002B09DA26497A69134681
:103060009B0013449B000B44FA691A6039E0FB692A
:10307000002B0DDABB69002B0ADB1E497A69134667
:103080009B0013449B000B440433BA691A6028E088
:10309000FB69002B25DBBB69002B22DBF86803F002
:1030A0004FFD0446386903F04BFD03469C42CCBFFC
:1030B00001230023DBB2002B09D00E497A691346A5
:1030C0009B0013449B000B44FA691A6009E009490C
:1030D0007A6913469B0013449B000B440433BA697E
:1030E0001A607B6901337B6106E700BF2437BD4668
:1030F00090BD00BF5C2200103022001080B483B06D
:1031000000AF78607B68002BCCBF01230023DBB2CB
:103110001A467B68DB0FDBB2D31A18460C37BD4664
:1031200080BC7047B0B598B006AFFEF753FD0346BC
:10313000002B14BF01230023DBB2002B05D0414A32
:103140004149424801F0A2FDFEE700F0D7F8FFF741
:1031500007FDFEF7D7FA012000F016F90120FFF76E
:1031600059FE3B4B05225A60394B5B68384A136065
:10317000374B0022DA61364BDB69354A9361344BB9
:103180009B69334A5361324B5B69314A13610120B9
:10319000FFF724FB00237B6407F12C03184601F0A2
:1031A000D3FD07F12C03184601F094FD3B46184669
:1031B000FEF73CFD6D4607F110040FCC0FC594E8F7
:1031C000030085E803003B460FCBFFF75DF838644A
:1031D000386CFFF7E7F8F86300F0CCF80346012BF2
:1031E0000CBF01230023DBB2002B02D0786CFFF769
:1031F00075FEF86BFFF7F2FAFB6B012B01D1002390
:103200001CE07B6C01337B647B6C022B01DD0023B3
:103210007B6407F12C03184601F084FD07F12C03B1
:10322000184601F071FDB863BB6B632BB4DCBB6B5C
:10323000C3F16403184601F019FBADE7184648379F
:10324000BD46B0BD5843010070430100001F00108F
:103250003022001080B582B000AF786039607B68A2
:10326000002B10D000F0F4F80346013B7A689A4234
:1032700009D03B68002B06D000F0F2F80346013B72
:103280003A689A4201D1012300E00023002B01D0CB
:10329000002307E000F0DCF802463B6803FB02F283
:1032A0007B68134418460837BD4680BD80B483B0A0
:1032B00000AF78607A68064BA3FB02135B096421B8
:1032C00001FB03F3D31A18460C37BD4680BC704788
:1032D0001F85EB5180B483B000AF78607A68064BED
:1032E000A3FB02131B09322101FB03F3D31A184677
:1032F0000C37BD4680BC70471F85EB5180B500AFD1
:1033000064210F48FEF778FE02460E4B1A600D4B03
:1033100032225A600B4B32229A6032210A48FEF761
:103320006BFE0246074BDA60064B17221A61054B0B
:1033300017225A61054B00221A6000BF80BD00BFF2
:10334000AD32000098220010D5320000B0220010EB
:1033500080B400AF054B1A6813465B0013449B0012
:10336000034A13441846BD4680BC7047B022001083
:103370009822001080B400AF024B1B681846BD466F
:1033800080BC7047B022001080B582B000AF78607A
:10339000044A7B681360FFF7DBFF034618460837D3
:1033A000BD4680BDB022001080B584B000AF234B75
:1033B0001B683B600023FB6000F052F80246FB688C
:1033C0009342B4BF01230023DBB2002B31D0002392
:1033D000BB6000F03DF80246BB689342B4BF0123D6
:1033E0000023DBB2002B1CD0F968B86800F08CF821
:1033F00078607B68002B0CD07B681B6807F110029B
:10340000134413F8103C1A460D490E4801F03EFCD7
:1034100003E00D490B4801F039FCBB680133BB6088
:10342000D7E70A49074801F031FCFB680133FB602C
:10343000C2E700BF1037BD4680BD00BF8843010012
:103440007C430100001F0010804301008443010001
:1034500080B500AFFFF77CFF03465B68184680BD70
:1034600080B500AFFFF774FF03469B68184680BD28
:1034700098B500AFFFF7ECFF0446FFF7F1FF0346F6
:1034800003FB04F3184698BD80B582B000AF7860A6
:1034900039603B68013B1946786800F035F803460F
:1034A00018460837BD4680BD80B582B000AF786051
:1034B00039603B6801331946786800F025F8034607
:1034C00018460837BD4680BD80B582B000AF786031
:1034D00039607B6801333968184600F015F80346F7
:1034E00018460837BD4680BD80B582B000AF786011
:1034F00039607B68013B3968184600F005F80346DF
:1035000018460837BD4680BD90B583B000AF7860DF
:103510003960FFF71DFF03461C6839687868FFF7BC
:1035200099FE034619462046FEF7E6FD0346184677
:103530000C37BD4690BD90B583B000AF7860396060
:10354000FFF706FF03461C6839687868FFF782FEBC
:10355000034619462046FEF7E4FD00BF0C37BD4682
:1035600090BD000080B588B000AFF860B9607A60A7
:103570003B600023FB61FA693B689A423FDA102006
:1035800004F050FBB861BB69002B03D11E491F48F2
:1035900001F07CFBBB6900221A60BB691C4A5A60BF
:1035A000BB6900229A60BB690022DA607B68002B4D
:1035B00008D1FA68FB691344B9681846FFF74AFE58
:1035C000034607E0BA68FB6913441946F868FFF739
:1035D00041FE03467B61FFF7BBFE03461B68BA69E9
:1035E00079691846FEF754FD38613B69002B02D01B
:1035F000386904F01FFBFB690133FB61BBE700BFC7
:103600002037BD4680BD00BF8C430100001F001065
:10361000A918000090B585B000AF7860396010201F
:1036200004F000FBF860FB68002B03D11449154837
:1036300001F02CFBFB6801221A60FB68124A5A60F9
:10364000FB6801229A60FB680022DA60FFF780FEC7
:1036500003461C6839687868FFF7FCFD0346FA6882
:1036600019462046FEF714FDB860BB68002B02D057
:10367000B86804F0DFFA00BF1437BD4690BD00BF44
:103680008C430100001F0010D918000090B585B0D0
:1036900000AF78603960102004F0C4FAF860FB686D
:1036A000002B03D11449154801F0F0FAFB680222FF
:1036B0001A60FB68124A5A60FB6801229A60FB6834
:1036C0000022DA60FFF744FE03461C683968786818
:1036D000FFF7C0FD0346FA6819462046FEF7D8FCFE
:1036E000B860BB68002B02D0B86804F0A3FA00BF32
:1036F0001437BD4690BD00BF8C430100001F001071
:103700000919000090B589B000AFF860B9607A601F
:103710003B60102004F086FAF861FB69002B03D1AE
:103720001E491F4801F0B2FAFB6903221A60FB69C7
:103730001C4A5A60FB6901229A600C2004F072FA5C
:10374000B861BB69002B03D11449154801F09EFAFA
:10375000BB697A681A60BB693A685A60BB693A6BA0
:103760009A60FB69BA69DA60FFF7F2FD03461C68EC
:10377000B968F868FFF76EFD0346FA6919462046F6
:10378000FEF786FC78617B69002B02D0786904F033
:1037900051FA00BF2437BD4690BD00BF8C430100E5
:1037A000001F00104D19000080B582B002AF6FF00D
:1037B0007F4301937F2300937F235E2200210848EB
:1037C000FCF792FDFF2301937F2300937F235E226A
:1037D00000210348FCF72EFD00BFBD4680BD00BFA1
:1037E0003C1E001080B582B002AF002301937F23FE
:1037F00000937F235E2200210248FCF775FD00BF85
:10380000BD4680BD3C1E001080B582B000AF786020
:1038100039603B68DBB20D33DBB21A4601210B483D
:10382000FCF776FF0A490948FCF79FFF002107488B
:10383000FCF7C2FE00210548FCF74AFF79680348FF
:1038400001F024FA00BF0837BD4680BD3C1E0010C1
:103850005F5F5F00B0B594B000AF3B461846FEF71F
:10386000E5F907F128043D460FCD0FC40FCD0FC475
:1038700095E8030084E80300142000F0F7FF7B6B59
:10388000002B00D1E9E700BF5037BD46B0BD80B581
:1038900082B000AF78603960FFF786FF002178685A
:1038A000FFF7B2FF01213868FFF7AEFFFFF7D2FF45
:1038B000FFF798FF00BF0837BD4680BD80B584B0D4
:1038C00000AF786039600023FB60FA683B689A4279
:1038D00018DAFB689B007A6813441868FB680133A8
:1038E0003A689A4206D0FB6801339B007A68134419
:1038F0001B6800E0054B1946FFF7C9FFFB68023360
:10390000FB60E2E700BF1037BD4680BD9C4301006D
:1039100080B582B000AF78600B467B807B687A8888
:103920001146184600F0FEFA00BF0837BD4680BDBC
:1039300080B582B000AF78607B68184601F010FA5D
:10394000064A7B681A607B6814330021184600F031
:10395000F9FF7B6818460837BD4680BD084801005E
:1039600080B582B000AF786039607B680833184654
:10397000FFF7DEFF7B683A685A607B685B684FF44C
:1039800000411846FFF7C4FF7B6800221A607B687D
:1039900018460837BD4680BD4FF46D43CEF2000394
:1039A000F0B49F689A683B46BAB953F8045B4FF08D
:1039B0008054C43725601A4652F8046B251D666092
:1039C0005C68131D6C602C1DBB42F4D14FF46D423A
:1039D0004FF08053CEF200029360103043F8201075
:1039E000F0BC7047036870B500211D6901220446D0
:1039F000A847431C05460ED0216802220E692046C6
:103A00000021B04722680646136920462946002255
:103A10009847304670BD0646FBE700BF0D4B0E4A87
:103A200030B4026003F58074002501E0A3420FD09A
:103A30001A4652F8041B814208BF42F8045C134640
:103A400053F8042B8242F1D1A34243F8045CEFD136
:103A500030BC7047B4220010E043010038B50F4A73
:103A60000F4B04460260002503F5807001E083429D
:103A70000FD01A4652F8041B8C4208BF42F8045C6F
:103A8000134653F8042B9442F1D1834243F8045C6B
:103A9000EFD1204601F07AFD204638BDE043010019
:103AA000B4220010074B186800B170474CF20201B5
:103AB0004CF203020448C2F20901C2F2090200F00A
:103AC000CFBC00BFB823001034240010F0B50F465F
:103AD00085B03049064605F041F90446002836D045
:103AE00030462D4905F03AF960B330462B4905F0D0
:103AF00035F900282FD02A48002406E05D680134FB
:103B0000181D35B10134402C29D04568031D002D06
:103B1000F4D131783A2936D002A8314600F0BAFE05
:103B200002A800F009FFD0B102A800F0F1FEC8B170
:103B300002A800F0F7FE03468BB11A49E01C41F8D9
:103B4000243002E0FFF7AEFF012005B0F0BDFFF723
:103B5000A9FF2046F9E7FFF7A5FF0220F5E74FF0A0
:103B6000FF30F2E702A800F0CBFE05460028F6D0B1
:103B7000026802A8966800F0B7FE3A460146284659
:103B8000B0470346D8E73046074901AA05F074F864
:103B9000019BD1E7A0430100C4430100A8430100F9
:103BA000B0220010B422001008440100022808B519
:103BB0000BDD084BC21E53F82200002143F82210EF
:103BC00028B103685A68904708BD002008BD4FF02F
:103BD000FF3008BDB42200100228F8B50D46174684
:103BE00028DC1D490A68002A2DD00FB32C46EE1997
:103BF00014F8011BED43AB19184803F0010500F060
:103C000099FDB44214D035B114F8011B134800F0EB
:103C100091FDB4420CD0254615F8011B0F4800F069
:103C200089FD61780D486C1C00F084FDB442F2D12E
:103C30003846F8BD0A4B033853F8200040B10368FA
:103C40001B689847F8BDFFF72DFF002FCED1EFE797
:103C50004FF0FF30F8BD00BFB8230010342400102F
:103C6000B4220010022810B50C460ADD0A4B0338B6
:103C700053F8200060B103689B68984701460846E6
:103C800010BD064800F050FD01212070084610BD0F
:103C90004FF0FF31F3E700BFB422001034240010CE
:103CA000022808B508DD074B033853F8200028B177
:103CB0000168CA68904708BD012008BD4FF0FF3079
:103CC00008BD00BFB4220010022808B508DD074B6C
:103CD000033853F8200028B103681B69984708BDD2
:103CE000002008BD4FF0FF3008BD00BFB422001017
:103CF000022808B504D84FF400504860002008BDE1
:103D000002F028FF092303604FF0FF3008BD00BF19
:103D100008B540F6B463C1F20003186844F20C41E0
:103D2000C068C0F2010103F0E5F9012000F012FDC6
:103D300008B5012000F00EFD084A13681818EFF3CB
:103D40000881884202D2106018467047044B0C224A
:103D50001A604FF0FF331846704700BF880E0010FE
:103D6000602400100749084A084B9A42BEBF51F828
:103D7000040B42F8040BFFF7F8BF054880470548DD
:103D800000470000F8510100C8000010741800102E
:103D9000F53D00000D010000FEE7FEE7FEE7FEE74F
:103DA000FEE7FEE7FEE7FEE7FEE7FEE7FEE7FEE7EB
:103DB000FEE7FEE7FEE7FEE7FEE7FEE7FEE7FEE7DB
:103DC000FEE7FEE7FEE7FEE7FEE7FEE7FEE7FEE7CB
:103DD000FEE7FEE7FEE7FEE7FEE7FEE7FEE7FEE7BB
:103DE000FEE7FEE7FEE7FEE7FEE7FEE7FEE7FEE7AB
:103DF000FEE700BF4FF44042C4F20F02202330B46C
:103E0000C2F8A031D2F8A001800651D44FF440434B
:103E1000C4F20F0300250221C3F804110124C3F8E2
:103E2000A851AA20C3F8AC5155220B25C3F80C4168
:103E30001946C3F88450C3F88C00C3F88C20C3F82B
:103E40008040C3F88C00C3F88C20D1F888004FF470
:103E500040434201C4F20F03F7D50322C3F8802088
:103E6000AA205522C3F88C001946C3F88C20D1F83B
:103E700088004FF4404310F0407FC4F20F03F6D0A7
:103E800048F2DE72C0F2284205210020C3F8081172
:103E9000C3F8C420C3F8C8011A6822F4704121F0A5
:103EA0003A0040F4405242F03A01196030BC704789
:103EB000D2F8A0114906A9D4D2F8A0114906F7D525
:103EC000A4E700BF38B50C4605461349204600F06C
:103ED0008FFCC0B2FF28287014D04FF44043C4F2C6
:103EE0000F03D3F8A821204622F44001C3F8A811FB
:103EF000094900F03FFC4FF44040C4F208000023A1
:103F0000036038BD054C06492568E86803F0F2F8FF
:103F1000012000F01FFC00BF30440100B40E00106F
:103F2000184401004FF6C0734FF440420B40C4F2F6
:103F300008021360704700BF10B50021044604F06A
:103F40001F0400F047F8012000FA04F010BD00BF84
:103F5000006800F061B800BF31B9836841681A6831
:103F600022EA01021A607047012900D07047836875
:103F70004268196841EA020018607047F8B54B1CA6
:103F80000D46044616461DD021600846FFF7D4FFB3
:103F900025F01F0303F11C0103F1180703F11402BC
:103FA00060602161E7606261A36020463146FFF7EF
:103FB000D3FF2EB928460321BDE8F84000F02CB805
:103FC000012E00D0F8BD28460221BDE8F84000F0DF
:103FD00023B800BF431C10B41BD000F16040A0F513
:103FE0001C2404F00F035800032202FA00F201FA25
:103FF00000F14FF440432009C4F2020353F820407B
:1040000024EA020243F8202053F82020114343F809
:10401000201010BC704700BF421C70B430D000F1BB
:104020006040A0F51C20C1F3800400F01F0504FAD5
:1040300005F542094FF44043C4F202031A3253F823
:10404000226026EA050643F8226053F822603543D1
:1040500043F82250A4B900F00F046200032505FACA
:1040600002F501FA02F20009103053F8201021EA9B
:10407000050443F8204053F82040224343F8202011
:1040800070BC70470F4A4FF400431268C4F201033A
:1040900002FB01F102225A6099619A693AB1026801
:1040A00010689B6900FB01F1B1FBF3F111604FF463
:1040B0000040C4F20100026D092142F001030365D2
:1040C00041607047B423001070B50E460546324972
:1040D000304600F08DFBC2B2FF2A54D002F1080333
:1040E000012000FA03F04FF44043C4F20F032B49C0
:1040F000D3F8C44051F8221044F040042A712960DA
:10410000C3F8C440D3F8A8214FF4004422F440512E
:10411000C3F8A811C4F2010400230222E360626123
:10412000E16C1F4B0843E0641A684DF68361C4F2EA
:104130001B31A1FB02101B4A030D44F620612846E7
:104140001360FFF79FFFA0690EF0FAFA00210EF04E
:104150004FFB0EF039FDA4692979A04208BF013058
:10416000012404FA01F42A684FF400431060C4F2F9
:104170000103196D304644EA010207491A65BDE89A
:10418000704000F0F7BA084D08492E68F06802F058
:10419000B1FF012000F0DEFA48440100900E00104B
:1041A0008C0E0010B4230010B40E0010FC4401006B
:1041B0002DE9F04F00230468C4F2010389B09C424A
:1041C000079000F0E38040F393804FF40043C4F283
:1041D00009039C424FF4404000F0C980C4F209003A
:1041E000844240F08B804FF44043C4F20F03D3F875
:1041F000AC2122F44020C3F8AC01D3F8AC2142F446
:104200008020C3F8AC01724B0801D3F800A0BAFBC0
:10421000F0F300FB13A29BB20693002A00F0A580E6
:104220000846590801910EF08FFA019A0646069841
:104230009042C0F09A80069C01250021B04602946D
:10424000049503910020012505906A1CD5B2102D1C
:104250005DD001980EF074FA4FF083410EF0C8FA69
:104260000124814605E0019A0292601CC4B2AC426E
:10427000EBD050460EF064FA074620460EF060FA86
:10428000834628460EF05CFA014658460EF064FB61
:104290004FF07E510EF0A4F9014648460EF0A8FA00
:1042A000014638460EF058FB014630460EF096F9AE
:1042B00031460EF051FB0DF0EDFD02F035FC0EF035
:1042C00039F9414607460EF031FC0028CDD041F2C5
:1042D0006F213846C3F683210EF028FCB8460495BA
:1042E00003940028BFD0019B012102930591BCE7F4
:1042F0004FF44040C4F20000844258D0354D364956
:104300002E68F06802F0F6FE012000F023FA019B0F
:10431000069C03F1010B1FFA8BFB5C45CDF804B042
:1043200002D3059900298DD0029C0398049A07991D
:1043300040EA021306940C68DBB2227B069942F035
:1043400080022273079C080A2268079C107120686B
:10435000C9B20170226882F828302368197B01F005
:104360007F00187309B0BDE8F08F1023E5E7C4F2B1
:104370000F00D0F8AC3123F44032C0F8AC21D0F8B3
:10438000AC3143F48032C0F8AC213CE74FF44040FC
:10439000C4F20F00D0F8A83123F44072C0F8A8216D
:1043A000D0F8A83143F48072C0F8A8212BE74FF46D
:1043B0004043C4F20F03D3F8A82122F0C000C3F891
:1043C000A801D3F8A82142F04000C3F8A8011AE7D9
:1043D0008C0E0010B40E00108445010038B5013B6E
:1043E000012B0D4628D84C1F032C27D8042A0ED8A1
:1043F000DFE802F016191C1F03003022082144EAEE
:1044000083030B4300681A43D1B2017338BD1049CE
:10441000104D2868C06802F06DFE012000F09AF986
:1044200000221146EBE700220821E8E710220821CC
:10443000E5E720220821E2E70749E9E7054C0749BB
:1044400023682A46D86802F055FE012000F082F960
:10445000EC450100B40E001090450100AC45010090
:104460002DE9F8430F460546A1493846164600F0A7
:10447000BFF9A0490446304600F0BAF9014620468B
:1044800000F09EF9431C044600F029810023C4F289
:104490000103984228607CD03CD94FF40042C4F21A
:1044A0000902904200F0DD804FF44041C4F209015E
:1044B000884235D14FF44042C4F20F02D2F8C41002
:1044C0004FF0010841F00070C2F8C40084F8088081
:1044D0002B6800245C6028464FF41651FFF768FEF5
:1044E0002246434628460821FFF778FF3846804990
:1044F00000F040F930467F4900F03CF9384621464B
:10450000FFF78AFD30462146FFF786FD03226A60E9
:10451000BDE8F8834FF44040C4F20000844268D004
:104520004FF0010984F808902B684FF000084FF411
:104530001651C3F804802846FFF73AFE42464B4620
:1045400008212846FFF74AFF3846694900F012F96A
:104550003046684900F00EF938464146FFF75CFDE9
:1045600030464146FFF758FD4046C4F20100844200
:104570003BD000F2A6804FF44042C4F200029442C5
:1045800063D04FF44040C4F2000084425FD0BDE8E5
:10459000F8834FF44040C4F20F00D0F8C4304FF01D
:1045A000010843F01002C0F8C42084F8088029688C
:1045B00000244C6028464FF41651FFF7F9FD2246BF
:1045C000434628460821FFF709FF3846484900F0CE
:1045D000D1F83046474900F0CDF838462146FFF77C
:1045E0001BFD30462146FFF717FD01206860BDE83E
:1045F000F8834FF44042C4F20F02D2F8C4104FF0D7
:10460000010841F00803C2F8C43084F80880286823
:10461000002444604FF416512846FFF7C9FD224696
:10462000434628460821FFF7D9FE3846304900F0B6
:10463000A1F830462F4900F09DF838462146FFF793
:10464000EBFC30462146FFF7E7FC00246C602A4B68
:104650002A480124294608221C60BDE8F84303F0DB
:10466000C9BD4FF44041C4F20F01D1F8C4004FF06E
:10467000010840F08073C1F8C43084F808802A68CB
:104680000024546028464FF41651FFF791FD22464E
:10469000434628460821FFF7A1FE3846144900F09A
:1046A00069F83046134900F065F838462146FFF7AF
:1046B000B3FC30462146FFF7AFFC02216960BDE83C
:1046C000F8834FF40041C4F209018C42F5D04FF455
:1046D0004043C4F209039C427FF453AF16E7084DF0
:1046E00008492E68F06802F005FD012000F032F85C
:1046F0002C46010018450100B82300103424001096
:10470000B40E00100C46010010B442F2BC3342F269
:10471000CC344068C1F20004C1F20003216043F8C8
:10472000202010BC704700BF0268137DD907FCD55C
:10473000107870470268137D03F02000C3B2002B8D
:10474000F9D0C9B2117070470368187D00F00100FC
:10475000704700BF10B5044600F00AF820B904B94C
:10476000FEE700F0B9FDFBE700F060F8F7E700BFF7
:1047700000F068B8431C10B5044613D00B68581CF1
:1047800004D110E051F80C3F5A1C0CD09C42F9D1D6
:1047900020468968FFF71EFC20460221BDE8104034
:1047A000FFF73ABC10BD044804490268D06802F023
:1047B000A1FC0120FFF7CEFFB40E001098460100C7
:1047C000884208B503D0421C02D0013102D108BD95
:1047D000084608BD044B05491868C06802F08AFC09
:1047E0000120FFF7B7FF00BFB40E0010AC46010078
:1047F00008B5431C0BD00B685A1C04D108E051F8D3
:104800000C3F5A1C04D09842F9D1486808BD08BD35
:10481000044805490268D06802F06CFC0120FFF7EB
:1048200099FF00BFB40E0010C046010030B585B03E
:104830006D46182420462946ABBE0446204605B0E6
:1048400030BD00BF4EF6F053CEF20003186800F002
:104850000100704738B5054600F014FD044600F02D
:1048600011FD001BA842FAD338BD00BF4FF47A7384
:1048700003FB00F0FFF7EEBF4FF4105108B5C4F68C
:1048800074110DF0B5FF0EF079F9BDE80840FFF79F
:10489000E1BF00BF38B50022026042600B780446D9
:1048A0002F2B01D0204638BD48780028FAD0481C6C
:1048B00020604B782F2B12D0A3B18D1C114600E045
:1048C00042B125602A782B46013101352F2AF7D1D4
:1048D0000133236000F0FCFD6060204638BD0346D4
:1048E0001146F5E71946F5E700687047406808B5D6
:1048F00020B100F00DFE431E5842584108BD00BFD4
:1049000010B50446FFF7F2FF00B1606810BD00BFAC
:10491000406808B528B100F0FBFDD0F1010038BFB8
:10492000002008BD10B50446FFF7F2FF10B1606823
:1049300000B1043810BD00BF4068003018BF01202E
:10494000704700BF002201604260704708B50368ED
:1049500001460BB1984708BD406810B18A6908311B
:10496000904708BD10B5044600F024FA48F2A06252
:1049700042F2D033C0F20102C1F2000362601C6057
:10498000204610BD10B54160044600F085FA42F2A1
:10499000D033C1F200031C6010BD00BF38B5054D17
:1049A00004462B68834203D0416800F075FA2C60FE
:1049B00038BD00BFD0230010F0B583B01C460546BB
:1049C0000F461646FFF7EAFF9DF82030394683F080
:1049D0000100009032462846234600F065FB201A6D
:1049E00018BF012003B0F0BDF0B583B01C460546EA
:1049F0000F461646FFF7D2FF9DF82030394683F068
:104A00000100009032462846234600F053FA201A4F
:104A100018BF012003B0F0BD183000F04FB800BF40
:104A2000183000F049B800BF38B504461D4600F103
:104A3000180000F017F82046294600F0EDF844F27F
:104A40001073C0F2010303F108023C3384E80C0048
:104A5000204638BDC1EBC10100EB81000830FFF7F3
:104A600075BF00BF70B504460D4600F10800002177
:104A70001646FFF767FF002104F12400FFF762FFED
:104A8000204629463246FFF7EBFC4FF4165344F616
:104A9000552120462364C0F200012246FFF734FE70
:104AA000204670BD38B505460C46FFF781FB2C64E7
:104AB00038BD00BFFFF748BEFFF736BE10B50C4645
:104AC000FFF738FE204610BD002070472DE9F04169
:104AD0008E18B1420F46054630D003688A1B0C463B
:104AE000D2435B6A14F8011B02F0010898470130B9
:104AF0001ED0A6421FD0B8F1000F09D02968284661
:104B00004A6A14F8011B9047013011D0A64212D016
:104B1000286814F8011B436A284698470130284644
:104B200006D02A6814F8011B536A98470130EDD16A
:104B3000E01BBDE8F081F01BBDE8F0810020BDE87E
:104B4000F08100BF2DE9F0418E18B1420F460546B5
:104B500031D003688A1BD1439C6A01F00108A04749
:104B6000431C3C4624D03C4604F8010BA6421CD012
:104B7000B8F1000F06D02B6828469A6A9047431C6C
:104B80000FD115E0296828468B6A98470246511CC8
:104B900028460DD004F8012B29688B6A9847421CDF
:104BA00006D004F8010BA642ECD1F01BBDE8F08161
:104BB000E01BBDE8F0810020BDE8F08100207047D7
:104BC00000207047002070470020704744F278733F
:104BD000C0F2010303F108023C3310B5044680E83B
:104BE0000C00406902F024F8204600F093FC2046B7
:104BF00010BD00BFA0F10400FFF7E8BF10B50446E8
:104C0000FFF7E4FF204600F0C1FC204610BD00BFC6
:104C1000A0F10400FFF7F2BF10B584B0044600F025
:104C20009FFC44F27873C0F2010303F1080044F2E0
:104C300008413C3384E809002246C0F2010101A882
:104C400003F0F8FF44F2CC71C0F2010101A802F0B8
:104C500049FA0021606103F0D9FE204604B010BD7E
:104C600038B5044640690D4602F0C2F8616928462D
:104C7000BDE8384002F052BA10B50446406902F06F
:104C8000B7F86069BDE8104002F0C4B80EB430B5A2
:104C900082B005AB53F8045B04464069019302F00F
:104CA000A7F860692946019A08F014FF02B0BDE830
:104CB000304003B0704700BF4368016910B5C918A0
:104CC000044600F05BF804F11400BDE81040FFF763
:104CD0003DBE00BF10B5044600F0D4FA0123606069
:104CE000236010BD036810B504460BB9184610BD0B
:104CF00000F0C8FA6168401A10BD00BF10B58468A2
:104D0000FFF7F0FF201810BD08B5FFF7F7FF44F6D6
:104D1000D353C1F2620383FB0021C017C0EBA11083
:104D200008BD00BF10B50446FFF7DCFFA3680021F3
:104D30001818A060216010BD10B5044600F0A2FA5A
:104D400000236060A36010BD10B50446FFF7F4FFB8
:104D5000204610BD08B503689968884708BD00BFA4
:104D6000054B10B50446036044F65550C0F20000F0
:104D700000F0F4FA204610BD284801000246043035
:104D800000F01ABB043000F039BB00BF034B10B574
:104D900004460360FFF7F6FF204610BD28480100D7
:104DA00010B50446FFF7F2FF204600F0EFFB204667
:104DB00010BD00BFF8B50D460646324928461446D8
:104DC000FFF716FD304907462046FFF711FD014663
:104DD0003846FFF7F5FC421C0346306049D04FF4DB
:104DE0004042C4F20502904238D00020C4F20A00CA
:104DF00083424FF4404228D0C4F20102934219D0BA
:104E0000224A42F663501168C0F23E500A0AA0FBE3
:104E100002013C228809586118619A6140222846A3
:104E200018491A60FFF7A6FC17492046BDE8F8406C
:104E3000FFF7A0BC4FF44040C4F20F00D0F8C410FC
:104E400041F08002C0F8C420DAE7C4F20F02D2F8C1
:104E5000C40040F08061C2F8C410D1E74FF4404272
:104E6000C4F20F02D2F8C40040F40021C2F8C4100A
:104E7000C6E7074C07492568E86802F03BF90120BE
:104E8000FFF768FC4C480100A04801008C0E0010A0
:104E9000B40E00108848010040F68C63C1F2000394
:104EA0001A68006893084900B3FBF1F2426102619D
:104EB000704700BF2DE9F00104683C252426A56158
:104EC0002660256827462D070DD448F2A065C0F25C
:104ED000010504E02668360705D4013D03D02668A5
:104EE000013D3607F6D565682026102DA6611CD039
:104EF000082D1AD0102108202160A0612368DB064C
:104F00000DD548F2A060C0F2010004E02268D60688
:104F100005D5481E03D02668411EF006F6D46FF072
:104F200001063046BDE8F001704741F00101082656
:104F3000A160A661216809070DD448F2A066C0F2FD
:104F4000010604E025682E0705D44E1E03D025680F
:104F5000711E2E07F6D56168402917D01026082249
:104F60002660A2612168CB060DD548F2A062C0F28E
:104F7000010204E02668F60605D55A1E03D0206813
:104F8000531EC006F6D44FF0FF36CAE703F1FF3CCC
:104F90000026BCF1000F22DD4FF004080827C4F8FA
:104FA0000080A761256829070DD448F2A061C0F2EE
:104FB000010104E025682D0705D4013903D02568D7
:104FC00001392D07F6D5A5686168EDB2502936D1B3
:104FD00095550136664501D00468E0E7076804246A
:104FE0000821BC61B9613C6821070DD448F2A06179
:104FF000C0F2010104E03C68240705D4013903D064
:105000003C6801392407F6D5BC68796858292FD047
:10501000102308223B60BA613868C3060DD548F2F8
:10502000A062C0F2010204E03B68DE0605D54A1E1C
:1050300003D03E68511EF006F6D4664671E7102094
:1050400008212060A1612368D9067FF56AAF48F284
:10505000A063C0F2010306E02068C2067FF561AFDD
:105060004B1E3FF45EAF2268591ED006F4D458E7B9
:105070009455059AAAB1026808261020106096611E
:105080001168C9060DD548F2A061C0F2010104E023
:105090001668F60605D5013903D010680139C00637
:1050A000F6D41E463DE700BF70B4046824253C20BA
:1050B000A0612560206800070DD448F2A060C0F20E
:1050C000010004E025682D0705D4013803D02568C8
:1050D00001382D07F6D5606820251028A5611AD063
:1050E000082818D0102008232060A3612168C90671
:1050F0000DD548F2A061C0F2010104E02068C206AB
:1051000005D5591E03D022684B1ED006F6D46FF089
:10511000010070BC704701F0FE010820A160A06191
:10512000216809070DD448F2A061C0F2010104E032
:105130002068000705D4013903D020680139000731
:10514000F6D56068182817D0102008212060A161CA
:105150002268D1060DD548F2A062C0F2010204E037
:105160002168CA0605D55A1E03D02068531EC00602
:10517000F6D44FF0FF30CCE7002B1DDD00200826D1
:10518000115CA160A661216809070FD448F2A061F3
:10519000C0F2010105E0256815F0080F06D10139BC
:1051A00004D02568013915F0080FF4D0616828296A
:1051B0001BD101309842E3D1039AA2B110200821FB
:1051C0002060A1612268D2060DD548F2A062C0F22B
:1051D000010204E02168C80605D5013A03D0206821
:1051E000013AC106F6D4184693E71023082123603C
:1051F000A1612268D1068CD548F2A063C0F20103F8
:1052000004E02268D20684D5013B82D02168013BAC
:10521000C906F6D47DE700BF174A38B513684BBB03
:105220004FF44041C4F20F01D1F8C40001254FF4FE
:1052300080441560C4F2090440F400000F4AC1F82C
:10524000C400236711684DF683638808C4F21B33DA
:10525000A3FB0012910C4B1E022060600849E36022
:1052600004206560FEF798FB4FF46141CEF2000127
:1052700010220A6038BD00BFD42300108C0E00102D
:105280007153000008B5054B186808B9FFF7C4FF53
:105290004FF48041C4F20901886808BDD42300108E
:1052A0004FF48043C4F2090398615A6942F0010047
:1052B000586170474FF48043C4F209035A6922F0E1
:1052C00001005861704700BF4FF48043C4F20903E6
:1052D00001221A60704700BF00B54CF2320199B04C
:1052E0006846C2F209010122FEF748FE4CF2340181
:1052F00006A8C2F209010122FEF740FE4CF2350178
:105300000CA8C2F209010122FEF738FE4CF2370167
:1053100012A8C2F209010122FEF730FE019A039B96
:105320000A991A600798109B08600D9A96201A60D7
:105330001399159A1160FFF799FA0198049B099A3D
:10534000186007990F9B11600D98169A18601399B1
:1053500096201160FFF78AFAE0E700BF10B5044617
:10536000FFF75AFF42F2DC33C1F200031C6010BDAC
:1053700070B5FFF7A9FF0E4C0E4E206870B105689E
:10538000FFF780FF281A00280CDC21683268886843
:105390002060002AF2D048689047EEE7BDE87040F0
:1053A000FFF788BF23681868BDE87040FFF778BF33
:1053B000D8230010DC23001038B5054672B60E4B1A
:1053C00001601C68426084B12268881A002805DCEC
:1053D0000BE01A68881A002803DD1C46A368002B1E
:1053E000F7D1A560AB6062B638BD08461D60FFF717
:1053F00057FF2346F6E700BFD823001008B572B662
:105400000F4B1A68824211D04AB19168814208D08C
:1054100029B18B68834205D019460029F9D162B6BB
:1054200008BD11468068886062B608BD92681A603F
:10543000002AF4D01068FFF733FF62B608BD00BF42
:10544000D8230010094A8368026053B108490A68EA
:10545000824201D106E01A4653689842FBD1416866
:105460005160704743680B60704700BFF848010007
:10547000E02300100C4A836810B50446026053B163
:105480000A480268944201D10AE00A4651688C42F7
:10549000FBD163685360204600F078F8204610BDC9
:1054A00061680160F7E700BFF8480100E0230010E1
:1054B000054B81600360027321B104490A680860EA
:1054C0004260704741607047F8480100E0230010D7
:1054D0000E4B70B51C6806460D4614B912E06468A0
:1054E00084B1A36831462A461846002BF7D003F052
:1054F00041FD0028F3D1A06803F00EFDA842EED1D3
:10550000204670BD0024204670BD00BFE02300107F
:10551000007B704744F64013C0F2010310B503F15D
:1055200034020446083340F8042F2360FFF78AFF53
:105530002046FEF773FA204610BD00BFA0F104001C
:10554000FFF7E8BF10B50446FFF7E4FF204600F080
:105550001DF8204610BD00BFA0F10400FFF7F2BF08
:10556000094B10B50022044640F8043BFFF7A0FFAA
:1055700044F64013C0F2010303F10802343384E817
:105580000C00204610BD00BFE043010002F052BBFA
:10559000F0B4204CA0F1080663682BB350F8087CE7
:1055A000F519AB4220D81AD0596851B38D4204D3B3
:1055B0002BE095420B4604D211464A681C1D002A76
:1055C000F7D1954215D023681A6899188E4215D0E4
:1055D0005B6840E9027323685E60F0BC7047D3E902
:1055E0000023174440F8087C40F8043C6660F0BC97
:1055F0007047D5E9002317444B60E4E717441F6068
:10560000F5E70A4604341946DBE70A46043419462E
:10561000D7E700BFE423001030B4174C00F10802B4
:105620006368082A38BF082203B30732196822F0DA
:1056300007028A4204D81BE001688A4205D9034662
:1056400058680028F8D130BC704704338C1A072CF6
:10565000456808D981184D60845018680260196047
:10566000083030BC704701601D60F9E71846EAE772
:105670001846231DEAE700BFE423001010B500F12F
:105680008004204602F0CEFA38B103468022002181
:10569000184602F087FE803010BD2046FFF7BCFFA1
:1056A00003460028F2D100F039F800BF064A8038DE
:1056B0009368984203D9D2681344984201D302F008
:1056C000B9BAFFF765BF00BFE423001038B54FF447
:1056D0001E65074C2846E56002F0A4FAA06020B1E0
:1056E00000236060C0E9005338BDE060606038BDF1
:1056F000E423001008B5804701F01AFA01F088F998
:1057000001F016FA0D46044601F0C2F9013501D048
:1057100000F02CF8204601F00BF900BF08B5034B50
:105720001868BFF35B8FFFF7E5FF00BFAC0E0010FA
:1057300008B58047FFF7F2FF08B5034B1868BFF3C1
:105740005B8FFFF7F5FF00BFB00E0010024B18682B
:10575000BFF35B8F704700BFAC0E0010024B1868A0
:10576000BFF35B8F704700BFB00E00101EB400F097
:105770008DF81EBC0EF056F9F0B5027883B0472ABA
:105780000D461F461ED00023254C0193236820465A
:105790009B68984780B10226019B1B6801932B6888
:1057A000214628461C6901AA0123A04730B1304692
:1057B000019B3B6003B0F0BD0126F0E70646304692
:1057C00003B0F0BD43784E2BDDD18378552BDAD171
:1057D000C378432BD7D10379462B15D00379432BBC
:1057E000D1D143792B2BCED183792B2BCBD1C3793C
:1057F000012BC8D850F8204C02D058300190C5E792
:10580000204654F8784CF9E743794F2BE6D1837959
:10581000522BE3D1C379002BE0D10193014CB5E7C2
:10582000D04A0100C84A010010B5044601F078F9D9
:105830002378A4F12002472B04D0836823BB826025
:10584000012010BD63784E2BF7D1A378552BF4D1EE
:10585000E378432BF1D12379432BEED163792B2BC2
:10586000EBD1A3792B2BE8D1E379012BE5D854F8C0
:10587000043C0133012B44F8043CE1D1836844F833
:10588000083C8260012010BDFFF748FF08B501F019
:1058900047F9836883B393F82020472A04D0002275
:1058A000826003F1200008BD93F821204E2AF6D132
:1058B00093F82220552AF2D193F82320432AEED1DF
:1058C00093F82420432AEAD193F825202B2AE6D105
:1058D00093F826202B2AE2D193F82720012ADED83C
:1058E000DA69013ADA61002ADBD100229969816024
:1058F0009A6103F1200008BDFFF710FF0B46014637
:10590000184601F021B900BFFFF740BE10B50446AC
:10591000024B036000F03EFC204610BDBC49010074
:1059200010B50446044B036000F034FC20461821F7
:10593000FFF7EAFF204610BDBC4901002DE9F04FFA
:1059400083B0DDF8309017464A4588469A460546AA
:105950002DD0EE6805EBC605EEB1EC68013E14F003
:10596000020F4FEA242213D014F0010404D018F1DE
:10597000030F0DD03B689A58A8683A440368CDF8E5
:105980000090D3F820B041465346D847032806D8A4
:10599000083D002EE1D1012003B0BDE8F08F002CBE
:1059A000FAD040F00100C0B203B0BDE8F08F194654
:1059B00000F0B8FB0028CCD00620EDE72DE9F04F31
:1059C00091B01D9C05460490A0688A46C6060792C1
:1059D0000593DDF868B001D5AB68A3601C9B9B45BF
:1059E00000F05481DDE9040100F09CFBB8B1079B95
:1059F000BAF1000FC4F800B02371C0F28E811C9B75
:105A0000DA44534514BF4FF0010A4FF0060A4FF035
:105A1000000984F806A0484611B0BDE8F08FBAF13D
:105A2000000FA8BF1C9B4FF00009A4BFA3EB0A0303
:105A300006934FF00203CDE90A934FF001034F465E
:105A40000893079BB8BF069043F001030993049B9A
:105A5000D3F80C804646002E00F08680049BD4F8D4
:105A600008C003EBC600C168CDF83CC0CD0748BFF5
:105A7000DBF800504FEA212348BFEB58069D0D97F5
:105A80008DF838708DF839708DF83A704CBFDDF8AC
:105A900024E0DDF81CE05B443DB19D422CBF0025B5
:105AA0000125089A954200F0AA808A0705D41AF1C8
:105AB000020F00F09F800EF0FD0E80681C9A0168B6
:105AC00002921B9A0DADCDE900320395CD69724665
:105AD000059B5146A84762799DF839309DF83A50A8
