:10000000008000104D420000814200008342000049
:100010008542000087420000894200000000000085
:100020000000000000000000000000008B42000003
:100030008D420000000000008F420000914200004D
:100040009542000097420000994200009B42000048
:100050009D4200009F420000A1420000A342000018
:10006000A5420000A7420000A9420000AB420000E8
:10007000AD420000AF420000B1420000B3420000B8
:10008000B5420000B7420000B9420000BB42000088
:10009000BD420000BF420000C1420000C342000058
:1000A000C5420000C7420000C9420000CB42000028
:1000B000CD420000CF420000D1420000D3420000F8
:1000C000D5420000D7420000D942000010B5054CCF
:1000D000237833B9044B13B10448AFF300800123F4
:1000E000237010BD5C1A001000000000DC540100F9
:1000F00008B5034B1BB103490348AFF3008008BDAB
:1001000000000000601A0010DC540100154B002BA9
:1001100008BF134B9D46A3F5803A00218B460F463E
:100120001348144A121A08F0B1FB0F4B002B00D0F1
:1001300098470E4B002B00D0984700200021040068
:100140000D000D48002802D00C480EF0C5F807F04D
:1001500039FF2000290003F03BFA04F06FFD00BFD7
:1001600000000800008000100000000000000000F7
:100170005C1A00105C260010D9E2000061F2000059
:1001800080B58AB000AFF860B9607A603B60002348
:100190003B6107F1140300221A60C3F80320D22345
:1001A0003B74BB681B12DBB27B74BB68DBB2BB74F5
:1001B0007B681B12DBB2FB747B68DBB23B753B6870
:1001C0001B12DBB27B753B68DBB2BB753B6B1B1252
:1001D000DBB2FB753B6BDBB23B767B6BDB1403F076
:1001E0001F037B627B6B9B1203F03F033B627B6BC5
:1001F000DB1003F01F03FB617B6ADBB2DB00DAB2CA
:100200003B6ADB10DBB21344DBB27B763B6ADBB2CA
:100210005B01DAB2FB69DBB21344DBB2BB7607F1F8
:1002200010030B221946F86800F0EBFC00BF2837DA
:10023000BD4680BD80B58AB000AFF860B9607A6015
:100240003B6000233B6107F1140300221A60C3F8EE
:100250000320CF233B74BB681B12DBB27B74BB68EB
:10026000DBB2BB747B681B12DBB2FB747B68DBB256
:100270003B753B681B12DBB27B753B68DBB2BB7521
:100280003B6B1B12DBB2FB753B6BDBB23B767B6BD4
:10029000DB1403F01F037B627B6B9B1203F03F03B5
:1002A0003B627B6BDB1003F01F03FB617B6ADBB2FD
:1002B000DB00DAB23B6ADB10DBB21344DBB27B76E5
:1002C0003B6ADBB25B01DAB2FB69DBB21344DBB23F
:1002D000BB7607F110030B221946F86800F091FC79
:1002E00000BF2837BD4680BD80B58AB000AFF8603A
:1002F000B9607A603B6000233B6107F11403002280
:100300001A60C3F80320CE233B74BB681B12DBB218
:100310007B74BB68DBB2BB747B681B12DBB2FB7403
:100320007B68DBB23B753B681B12DBB27B753B68BD
:10033000DBB2BB753B6B1B12DBB2FB753B6BDBB2FD
:100340003B767B6BDB1403F01F037B627B6B9B12A2
:1003500003F03F033B627B6BDB1003F01F03FB6189
:100360007B6ADBB2DB00DAB23B6ADB10DBB2134440
:10037000DBB27B763B6ADBB25B01DAB2FB69DBB2F4
:100380001344DBB2BB7607F110030B221946F86861
:1003900000F037FC00BF2837BD4680BD80B58AB06D
:1003A00000AFF860B9607A603B6000237B6107F1C1
:1003B000180300210A461A800A469A70CB233B751F
:1003C000BB681B12DBB27B75BB68DBB2BB757B689D
:1003D0001B12DBB2FB757B68DBB23B763B68DB1440
:1003E00003F01F037B623B689B1203F03F033B62F9
:1003F0003B68DB1003F01F03FB617B6ADBB2DB00B1
:10040000DAB23B6ADB10DBB21344DBB27B763B6AC9
:10041000DBB25B01DAB2FB69DBB21344DBB2BB7661
:1004200007F1140307221946F86800F0EAFB00BF41
:100430002837BD4680BD80B58AB000AFF860B9608E
:100440007A603B600021F86800F0AFFB0A21F86891
:1004500000F0ABFBBB681B12DBB21946F86800F07A
:10046000A4FBBB68DBB21946F86800F09EFB7B6812
:100470001B12DBB21946F86800F097FB7B68DBB211
:100480001946F86800F091FB3B681B12DBB2194675
:10049000F86800F08AFB3B68DBB21946F86800F0A8
:1004A0006FFB3B6B1B12DBB21946F86800F068FB70
:1004B0003B6BDBB21946F86800F062FB012004F0E8
:1004C00049FC00237B623B683A6B02FB03F37A6AC8
:1004D0009A4237DA7B6A9B007A6B13441B68DB1401
:1004E00003F01F03FB617B6A9B007A6B13441B685C
:1004F0009B1203F03F03BB617B6A9B007A6B134442
:100500001B68DB1003F01F037B61FB69DBB2DB00C0
:10051000DAB2BB69DB10DBB21344DBB21946F86810
:1005200000F043FBBB69DBB25B01DAB27B69DBB293
:100530001344DBB21946F86800F037FB7B6A0133DD
:100540007B62C0E700233B62FB686833184604F017
:1005500025FD0346002B0CBF01230023DBB2002B3B
:1005600003D0002004F0F6FBEEE7FB686833184682
:1005700004F014FD0346002B14BF01230023DBB25B
:10058000002B05D0FB685033184604F0E9FD3862B3
:100590003B6A062B02D0152B03D006E001233B62F9
:1005A00006E04FF0FF333B6202E000233B6200BFF6
:1005B00000BF2837BD4680BD80B584B000AF7860ED
:1005C0000B46FB70414B1B783B7307F10D03002278
:1005D0001A807D233B7300237B73FB78BB737B689E
:1005E000FA7883F834207B6893F83530012B06D1F4
:1005F0007B6880229A637B688022DA6305E07B68EF
:1006000080229A637B688022DA63FB78042B30D8DF
:1006100001A252F823F000BF3B060000490600008B
:1006200057060000650600002D0600007B680622C4
:100630001A647B6808225A6421E07B6807221A64E6
:100640007B6808225A641AE07B6808221A647B6877
:1006500008225A6413E07B6808221A647B680C2223
:100660005A640CE07B680C221A647B6810225A647E
:1006700005E07B6808221A647B6808225A647B685C
:100680009A6B7B681B6C7968896C01FB03F392FBA6
:10069000F3F3DAB27B6883F836207B68DA6B7B6829
:1006A0005B6C7968C96C01FB03F392FBF3F3DAB27C
:1006B0007B6883F8372007F10C030322194678681A
:1006C00000F09FFA00BF1037BD4680BD54430100C3
:1006D00080B584B000AF78600B46FB700B4B1B7885
:1006E0003B7307F10D0300221A8077233B7300232D
:1006F0007B73FB78BB7307F10C0303221946786800
:1007000000F07FFA00BF1037BD4680BD54430100A2
:1007100080B584B000AF78600B46FB70144B1B783B
:100720003B7307F10D0300221A807C233B730023E7
:100730007B73FB78BB73FA787B689A647B689A6BEF
:100740007B681B6C7968896C01FB03F392FBF3F304
:10075000DAB27B6883F8362007F10C0303221946CE
:10076000786800F04EFA00BF1037BD4680BD00BF6C
:100770005443010080B584B000AF78600B46FB7035
:10078000144B1B783B7307F10D0300221A807B2367
:100790003B7300237B73FB78BB73FA787B68DA6466
:1007A0007B68DA6B7B685B6C7968C96C01FB03F36F
:1007B00092FBF3F3DAB27B6883F8372007F10C037E
:1007C00003221946786800F01CFA00BF1037BD46B6
:1007D00080BD00BF5443010080B584B000AF786095
:1007E0000B46FB701346BB700023BB6000233B73BA
:1007F0007B68FA7883F82C207B68BA7883F82D2000
:10080000E4233B7200237B727B6893F82D30BB722C
:100810000023FB727B6893F82C303B7307F10803CD
:1008200005221946786800F0ECF900BF1037BD4684
:1008300080BD80B588B000AF786039600023FB6070
:1008400000233B747B683A681A637F233B733B68E1
:10085000DB1403F01F03FB613B689B1203F03F03B3
:10086000BB613B68DB1003F01F037B61FB69DBB2FC
:10087000DB00DAB2BB69DB10DBB21344DBB27B73A3
:10088000BB69DBB25B01DAB27B69DBB21344DBB27A
:10089000BB7307F10C0303221946786800F0B1F925
:1008A00000BF2037BD4680BD80B584B000AF786002
:1008B0000B46FB700023BB600023BB81FB781F2B22
:1008C00046D8FB780A2B20D17B68002283F82C20A5
:1008D0007B6893F82D300133DAB27B6883F82D20E2
:1008E000E4233B7200237B727B6893F82D30BB724C
:1008F0000023FB727B6893F82C303B7307F10803ED
:1009000005221946786800F07CF9FB780D2B18D188
:100910007B68002283F82C20E4233B7200237B7247
:100920007B6893F82D30BB720023FB727B6893F8D1
:100930002C303B7307F1080305221946786800F054
:1009400060F9FB780C2B18D1786800F0E3F914E01B
:10095000FE233B7200237B72FB78BB7207F1080316
:1009600003221946786800F04CF97B6893F82C3024
:100970000133DAB27B6883F82C207B6893F82C2053
:100980007B6893F836309A4220D17B68002283F846
:100990002C207B6893F82D300133DAB27B6883F822
:1009A0002D20E4233B7200237B727B6893F82D306B
:1009B000BB720023FB727B6893F82C303B7307F10A
:1009C000080305221946786800F01BF97B6893F844
:1009D0002D207B6893F837309A4218D17B6800222B
:1009E00083F82D20E4233B7200237B727B6893F80D
:1009F0002D30BB720023FB727B6893F82C303B7365
:100A000007F1080305221946786800F0FAF800BFDC
:100A10001037BD4680BD80B483B000AF78603960C8
:100A20003B68002B05D07B68DB687A6852681A60E7
:100A300004E07B681B697A6852681A6000BF0C3753
:100A4000BD4680BC704780B582B000AF7860396029
:100A50007B6801223968184603F004FD7B6818465C
:100A60000837BD4680BD80B582B000AF7860396080
:100A70007B6839681846FFF7CEFF00BF0837BD46D0
:100A800080BD80B582B000AF786039603968786821
:100A9000FFF7E9FF7B6818460837BD4680BD80B583
:100AA00082B000AF786039603B68DBB21946786885
:100AB000FFF7FAFE002318460837BD4680BD80B414
:100AC00083B000AF78604FF0FF3318460C37BD4657
:100AD00080BC704780B584B000AFF860B9607A60C0
:100AE0003B60FB680021184604F00AFB224AFB68C1
:100AF0001A60224AFB685A60FB6803F15000002329
:100B00007A68B96804F004FAFB68AC3339681846AF
:100B1000FFF799FFFB6868334FF41651184604F04D
:100B200035FAFB68AC3301211846FFF7AAFFF868D5
:100B300000F0CEF8F86800F0EDF8FB68002283F8CA
:100B40002C20FB68002283F82D20FB686FF07F4289
:100B50001A63FB68012283F83520FB680122DA64FE
:100B6000FB6801229A640021F868FFF725FDFB6805
:100B700018461037BD4680BD64430100984301000C
:100B800080B582B000AF78600B46FB707B68503355
:100B9000FA781146184604F0D7FA4FF4FA7004F0C8
:100BA000CDF800BF0837BD4680BD80B582B000AF2C
:100BB00078600B46FB707B685033FA781146184614
:100BC00004F0C2FA00BF0837BD4680BD80B582B0D0
:100BD00000AF78607B686833184604F0DFF903469D
:100BE000002B14BF01230023DBB2002B05D07B6850
:100BF0005033184604F0B4FAECE700BF0837BD469E
:100C000080BD80B586B000AFF860B9607A6000231F
:100C10003B61F868FFF7DAFFFF21F868FFF7B0FFE4
:100C200000237B617A697B689A4217DA7B690F2B14
:100C300008DC7B69BA6813441B781946F868FFF72B
:100C4000B4FF07E07B69BA6813441B781946F8685B
:100C5000FFF796FF7B6901337B61E3E7FB6868334D
:100C6000184604F09BF90346002B0CBF0123002318
:100C7000DBB2002B03D0002004F06CF8EEE7FB6839
:100C80006833184604F08AF90346002B14BF012389
:100C90000023DBB2002B05D0FB685033184604F06C
:100CA0005FFA38613B69062B02D0152B03D006E0B2
:100CB00001233B6106E04FF0FF333B6102E000237C
:100CC0003B6100BF3B6918461837BD4680BD000038
:100CD00080B582B000AF7860052004F03BF87B68F7
:100CE000AC3300211846FFF7CCFE052004F032F8A3
:100CF0007B68AC3301211846FFF7C3FE044804F0BB
:100D00002FF87868FFF762FF00BF0837BD4680BD47
:100D10000000404080B584B000AF786000233B7392
:100D2000D7233B7307F10C03012219467868FFF7BC
:100D300068FF7B68002283F82D207B68002283F8FF
:100D40002C207B680122DA647B6801229A640021EE
:100D50007868FFF731FC00BF1037BD4680BD00004A
:100D600080B586B000AF78603960A84B1B783B72C5
:100D700007F1090300221A8000217868FFF700FFBD
:100D80000B233B7200237B724FF49C737B613B68A7
:100D90004DF6C022934200F08B804DF6C022934264
:100DA0002DDCB3F5965F6FD0B3F5965F12DCB3F52B
:100DB000167F5DD0B3F5167F05DC6E2B50D0B3F5F2
:100DC000967F51D0A1E0B3F5966F55D0B3F5166F6D
:100DD00056D09AE0B3F5964F61D0B3F5964F06DC46
:100DE000B3F5165F54D0B3F5615F55D08DE047F68B
:100DF0001222934256D0B3F5164F56D085E0844A5E
:100E0000934269D0824A934213DCB3F5FA3F58D03B
:100E1000B3F5FA3F06DCB3F5614F4CD0B3F5E13FD3
:100E20004CD072E0B3F57A3F4ED07A4A93424ED01E
:100E30006BE0794A93425CD0774A934206DC774A6A
:100E400093424ED0764A934250D05EE0754A934228
:100E500055D0754A934255D0744A93424CD054E0D1
:100E600046F687237B6157E042F20F737B6153E0C4
:100E700041F287337B614FE040F6C3137B614BE067
:100E800040F2E1437B6147E04FF41C737B6143E038
:100E90004FF49C737B613FE0CF237B613CE09B235D
:100EA0007B6139E05F237B6136E04D237B6133E07A
:100EB00035237B6130E033237B612DE019237B6197
:100EC0002AE016237B6127E00B237B6124E00A23C1
:100ED0007B61574B3B601FE008237B61554B3B60B8
:100EE0001AE006237B61544B3B6015E004237B61D1
:100EF00012E003237B610FE002237B610CE00123FE
:100F00007B6109E000237B6106E04FF49C737B6109
:100F10004FF416533B6000BF0023FB607868FFF777
:100F200055FE7B691B12DBB27B727B695A42DBB2D6
:100F3000D2B258BF5342DBB2BB72012003F00AFFAA
:100F400000233B613B69022B0CDC07F108023B6983
:100F500013441B7819467868FFF727FE3B69013375
:100F60003B61EFE700233B613B69092B06DC012075
:100F700003F0F0FE3B6901333B61F5E77B686833C2
:100F80003968184604F002F800233B617B68683337
:100F9000184604F003F80346002B06D13B6946F2DD
:100FA000A712934201DC012300E00023002B06D0AE
:100FB000002003F0CFFE3B6901333B61E6E77B682D
:100FC0006833184603F0EAFF0346002B14BF0123E1
:100FD0000023DBB2002B05D07B685033184604F0A9
:100FE000BFF8F860FB68062B02D0152B03D006E093
:100FF0000123FB6006E04FF0FF33FB6002E00023BB
:10100000FB6000BF00BF1837BD4680BD58430100DC
:10101000D8B80500E0930400B0710B0020A10700D0
:10102000C027090060E31600C0C62D0040420F0033
:1010300057290400151605001B8A060080B582B0EA
:1010400000AF7860094A7B681A60094A7B685A6079
:101050007B685033184600F023F87B68184604F08C
:1010600029F87B6818460837BD4680BD64430100F7
:1010700098430100A0F10400E0E700BF80B582B012
:1010800000AF78607868FFF7D9FF786804F0F2FC69
:101090007B6818460837BD4680BDA0F10400EDE727
:1010A00080B582B000AF7860074A7B681A60074A53
:1010B0007B685A607B68184603F0FCFF7B68184623
:1010C0000837BD4680BD00BF504C0100844C010074
:1010D000A0F10400E4E700BF80B582B000AF786003
:1010E0007868FFF7DDFF786804F0C4FC7B68184679
:1010F0000837BD4680BDA0F10400EDE780B584B09F
:1011000000AFF860B9607A603B60FB687A68B968E4
:10111000184603F09BFEFB683A689A601849194824
:1011200004F028F81849174804F024F8FA68FB6816
:101130009B681946104603F099FEFB683B22DA6073
:10114000FB683A221A61FB6802221A75012200210B
:10115000F86800F0BAF8FB6803225A7501220021F2
:10116000F86800F09AF80949064804F003F80649BF
:10117000044803F0FFFFFB6818461037BD4680BDEA
:10118000B8430100E8200010CC430100D043010027
:1011900080B483B000AF78607B6818460C37BD46DA
:1011A00080BC704780B582B000AF786001222A21F0
:1011B000786800F0D4F9034618460837BD4680BD6C
:1011C00080B582B000AF7860FE222A21786800F0F6
:1011D0009BF9034618460837BD4680BD80B584B0EC
:1011E00000AF7860084611461A460346FB700B466E
:1011F000BB7013467B70BB69002B0CD07868FFF77F
:10120000DFFF0346002B14BF01230023DBB2002BBA
:1012100001D001233DE00023FB7307F10F02FB78AF
:101220001946786800F033FA0346002B14BF0123F7
:101230000023DBB2002B01D001232AE0FA7BBB782C
:101240001340DBB2FB73FA7B7B781343DBB2FB7397
:10125000FA7BFB781946786800F0ACF90346002B5E
:1012600014BF01230023DBB2002B01D0012310E0C7
:10127000BB69002B0CD07868FFF794FF0346002B66
:1012800014BF01230023DBB2002B01D0012300E0B7
:10129000002318461037BD4680BD80B586B002AF2A
:1012A000F8600B467A60FB72FB68FA7A5A75FA7A34
:1012B0007B6800931346FC220E21F868FFF78EFF2F
:1012C000034618461037BD4680BD80B586B002AFD4
:1012D000F8600B467A60FB72FB68FA7A1A75FB7A43
:1012E0005B00DAB27B6800931346FD222A21F8687E
:1012F000FFF774FF034618461037BD4680BD80B522
:1013000084B000AF786039607B681B7D022B01D10F
:1013100001230EE00323FB607B681B7D002B01D1C2
:101320000623FB60FB683A680121786800F087F9C2
:10133000034618461037BD4680BD80B586B000AF65
:10134000F860B9607A603B6007F110031946F868ED
:10135000FFF7D5FF0346002B14BF01230023DBB2A8
:10136000002B01D001233FE0FB681B7D002B1DD12A
:1013700007F110031946F86800F047F90246BB6808
:101380001A6007F1100302331946F86800F03DF9BE
:1013900002467B681A6007F1100304331946F868A7
:1013A00000F033F902463B681A601CE007F11003B5
:1013B0001946F86800F01CF90246BB681A6007F18C
:1013C000100301331946F86800F012F902467B68F1
:1013D0001A6007F1100302331946F86800F008F9A3
:1013E00002463B681A60002318461837BD4680BD88
:1013F000B0B584B000AFF860B9607A60B86810F03A
:10140000ABFF04460D46786810F0A6FF02460B4677
:101410002046294611F034F903460C461846214669
:101420001037BD46B0BD80B485B000AF78604FF4D2
:101430008063FB607B681B7D012B01D14023FB6037
:101440007B685B7D012B02D0022B06D00CE0FB6891
:10145000DA0F13445B10FB6006E0FB68002B00DA38
:1014600003339B10FB6000BFFB6818461437BD4672
:1014700080BC704790B589B000AFF860B9607A6001
:101480003B600023BB6100237B6100233B6107F1CC
:10149000100307F1140207F11801F868FFF74DFF78
:1014A0000346002B14BF01230023DBB2002B01D025
:1014B000012325E0F868FFF7B6FFF861BB69FA6918
:1014C0001946F868FFF794FF03460C46BA68C2E96C
:1014D00000347B69FA691946F868FFF789FF03460B
:1014E0000C467A68C2E900343B69FA691946F86823
:1014F000FFF77EFF03460C463A68C2E9003400233A
:1015000018462437BD4690BD80B584B000AF7860E2
:101510000B46FB701346BB700023FB7307F10F02F1
:10152000FB781946786800F0B2F80346002B14BF28
:1015300001230023DBB2002B01D000230BE0FA7B58
:10154000BB781340DBB2FB73FA7BFB7819467868F3
:1015500000F030F8034618461037BD4680BD80B510
:1015600084B000AF78600B46FB701346BB7000235D
:10157000FB7307F10F02FB781946786800F087F8D3
:101580000346002B14BF01230023DBB2002B01D044
:1015900000230BE0FA7BBB781343DBB2FB73FA7BCF
:1015A000FB781946786800F005F8034618461037AE
:1015B000BD4680BD80B586B002AF78600B46FB703B
:1015C0001346BB7000233B7300237B73FB783B7394
:1015D000BB787B73786807F10C0200230093022329
:1015E0003A2103F05DFC034618461037BD4680BD26
:1015F00080B483B000AF786039603B681B785BB221
:1016000018460C37BD4680BC704780B485B000AF2B
:10161000786039600023FB8107F10E0301333A68DB
:1016200012781A7007F10E033A6852781A70B7F9F7
:101630000E301B1118461437BD4680BC704780B56C
:1016400086B002AFF8607A603B600B46FB72F868C8
:1016500007F10B020123009301233A2103F020FC40
:101660000346002B14BF01230023DBB2002B01D063
:10167000012308E0F868002300933B687A683A2168
:1016800003F026FC034618461037BD4680BD80B5E2
:1016900084B000AFF8600B467A60FB72F97A0123E0
:1016A0007A68F868FFF7CBFF034618461037BD4647
:1016B00080BD000080B586B002AFF860B9607A6086
:1016C0003B603B68032B37D801A252F823F000BFE0
:1016D000E1160000F71600000D17000023170000A8
:1016E000174B01930B2300930B23BA68F968154835
:1016F000FEF7A1FE20E0144B01930B2300930B2374
:10170000BA68F9680F48FEF796FE15E00F4B019393
:101710000B2300930B23BA68F9680A48FEF78BFE87
:101720000AE00B4B01930B2300930B23BA68F96873
:101730000448FEF780FE00BF00BF1037BD4680BDE5
:10174000CC00001024200010401E0010781A001059
:101750005C1C001080B586B002AFF860B9607A609A
:101760003B603B68002B0AD01A4B01930B2300937C
:101770000B23BA68F9681848FEF75DFE27E07B681E
:10178000012B0ED0022B17D0002B20D1134B01932D
:101790000B2300930B23BA68F9680F48FEF74BFE42
:1017A00015E00F4B01930B2300930B23BA68F968E4
:1017B0000948FEF740FE0AE00A4B01930B23009311
:1017C0000B23BA68F9680448FEF735FE00BF1037EE
:1017D000BD4680BD240C00102420001078060010A7
:1017E0005C080010400A001080B500AF06490748A9
:1017F00000F046F80649054800F00EF8054904488F
:1018000000F074F800BF80BD781A0010CC00001002
:10181000401E00105C1C001080B485B000AF7860E2
:1018200039600023FB60FB680A2B24DC0023BB60CB
:10183000BB680A2B1BDCBA6813469B0013445B0091
:101840001A44FB6813449B007A68D118FA6813465F
:101850009B0013445B001A44BB6813449B003A6826
:1018600013440A681A60BB680133BB60E0E7FB6899
:101870000133FB60D7E700BF1437BD4680BC70471B
:1018800080B485B000AF786039600023FB60FB68EE
:101890000A2B26DC0023BB60BB680A2B1DDCFA6820
:1018A00013469B0013445B001A44BB6813449B001F
:1018B0007A68D118FA6813469B0013445B001344FE
:1018C00003F10A02BB68D31A9B003A6813440A6802
:1018D0001A60BB680133BB60DEE7FB680133FB6065
:1018E000D5E700BF1437BD4680BC704780B485B0D3
:1018F00000AF786039600023FB60FB680A2B26DCB0
:101900000023BB60BB680A2B1DDCFA6813469B00F2
:1019100013445B001A44BB6813449B007A68D118D7
:10192000FB68C3F10A0213469B0013445B001A4490
:10193000BB6813449B003A6813440A681A60BB688A
:101940000133BB60DEE7FB680133FB60D5E700BF16
:101950001437BD4680BC704780B584B002AF786054
:1019600039607B6803F10A013B680A330022019267
:1019700000930B463A6879680348FEF7B5FC00BF50
:101980000837BD4680BD00BF2420001080B584B05C
:1019900002AF78603960074B01930B2300930B2350
:1019A0003A6879680448FEF746FD00BF0837BD462F
:1019B00080BD00BFB00200102420001080B584B0AC
:1019C00002AF78603960074B01930B2300930B2320
:1019D0003A6879680448FEF72EFD00BF0837BD4617
:1019E00080BD00BF940400102420001080B584B096
:1019F00002AF786039607B6803F10A013B680A3303
:101A00000022019200930B463A6879680748FEF776
:101A10006BFC7B68591D3B685A1D6FF07F43034880
:101A2000FEF7BCFC00BF0837BD4680BD2420001077
:101A300080B584B002AF78603960074B01930B2307
:101A400000930B233A6879680448FEF7F4FC00BF62
:101A50000837BD4680BD00BF080E001024200010CE
:101A600080B586B002AFF860B9607A603B60FF2352
:101A70000193092300937F23092200213548FEF7B3
:101A80007FFB7B68002B0BD04FF47F03019308236F
:101A900000937F23002200212E48FEF725FC09E059
:101AA00000230193082300937F230022002129486B
:101AB000FEF71AFC002200212648FEF78DFE6FF08B
:101AC0007F412448FEF7B5FE00212248FEF774FD51
:101AD00000212048FEF7FCFD01211E48FEF718FEFC
:101AE00001211C48FEF746FE3B68002B08D1BB696C
:101AF0000093BB68FA681849164803F03BFB24E0E2
:101B00003B68012B21D13B6A022B06D1BB68FA68E6
:101B10001249104803F02EFB17E0FB69002B0ED092
:101B2000FB690F4A82FB03129210DB17D31A009352
:101B3000BB68FA680B49074803F01CFB05E0BB686B
:101B4000FA680949034803F015FB00BF1037BD468A
:101B500080BD00BF24200010104601002446010073
:101B600067666666344601004846010080B584B069
:101B700002AF7860FF230193762300937F237622C0
:101B800000211B48FEF7FCFA002301937F230093FA
:101B90007F23772200211648FEF7A6FB0F220021A3
:101BA0001348FEF719FE6FF07F411148FEF741FE22
:101BB00000210F48FEF700FD00210D48FEF788FDCB
:101BC00001210B48FEF7A4FD01210948FEF7D2FDD3
:101BD0007B68002B01D0074B00E0074B1A460749F2
:101BE000034803F0C7FA00BF0837BD4680BD00BFF9
:101BF00024200010544601005C46010064460100A8
:101C000080B582B002AF154B01930E2300937F2362
:101C1000092200211248FEF767FB104B0193722343
:101C2000009302230D2200210D48FEF75DFB0B4BB4
:101C30000193752300937F23722200210848FEF749
:101C400053FB064B0193752300937F230E227C21C7
:101C50000348FEF749FB00BFBD4680BD00FFFF0003
:101C60002420001080B582B000AF02212C48FEF77E
:101C70004FFD02212A48FEF77DFD4FF47F012848E1
:101C8000FEF7D7FD00212648FEF722FD02220321A0
:101C90002348FEF7A1FD2349214803F06BFA0322F4
:101CA00003211F48FEF798FD1F491D4803F062FA03
:101CB00001211B48FEF72CFD01211948FEF75AFDB2
:101CC000092202211648FEF787FD1849144803F03F
:101CD00051FA01211248FEF7FBFC02211048FEF7E1
:101CE00017FD02210E48FEF745FD03237B607B684C
:101CF000002B11DD052204210948FEF76DFD7A68ED
:101D00000B49074803F036FA4FF47A7003F022F8D3
:101D10007B68013B7B60EAE700BF0837BD4680BDBA
:101D2000242000106C460100704601007846010036
:101D30008846010080B483B000AF78607B685B693F
:101D40001A687B685B681340002B01D0012300E018
:101D5000002318460C37BD4680BC704780B582B062
:101D600000AF786039607B6800223968184602F05D
:101D700079FB7B6818460837BD4680BD80B582B0C8
:101D800000AF78607B681846FFF7D4FF034618461B
:101D90000837BD4680BD80B582B000AF78600B4685
:101DA000FB707B68FA781146184602F045FB00BFCD
:101DB0000837BD4680BD80B582B000AF78607868D6
:101DC000FFF7DCFF034618460837BD4680BD80B5E7
:101DD00082B000AF786039607B683968184602F0DD
:101DE000E5FA7B6818460837BD4680BD80B582B0ED
:101DF00000AF786039607B683968184602F0D8FB1C
:101E00007B6818460837BD4680BD000080B500AF2E
:101E10000D490E48FEF7A4FF4FF4E1310C4803F0E2
:101E2000B5F800210B48FFF7B6FF00210A48FFF77D
:101E3000B2FF00210948FFF7AEFF00210848FFF775
:101E4000AAFF0023184680BDC0C62D002420001024
:101E5000002100105C210010742100108C21001062
:101E6000A421001080B582B000AF78607B6803F1D8
:101E700020007B6803F118027B6803F11001034620
:101E80004748FFF7F7FA4748FFF795FF0346002B4F
:101E900005D1454B1B68002B01D1012300E0002335
:101EA000002B03D07B6801221A6002E07B680022CD
:101EB0001A603C48FFF77FFF0346002B0CBF01234D
:101EC0000023DBB21A46384B1A603848FFF773FF1D
:101ED0000346002B05D1364B1B68002B01D1012393
:101EE00000E00023002B03D07B6801225A6002E04F
:101EF0007B6800225A602D48FFF75DFF0346002BE8
:101F00000CBF01230023DBB21A46294B1A60294873
:101F1000FFF751FF0346002B05D1274B1B68002B11
:101F200001D1012300E00023002B03D07B680122B4
:101F30009A6002E07B6800229A601E48FFF73BFF30
:101F40000346002B0CBF01230023DBB21A461A4BB9
:101F50001A601A48FFF72FFF0346002B05D1184BD4
:101F60001B68002B01D1012300E00023002B03D0CC
:101F70007B680122DA6002E07B680022DA600F48A9
:101F8000FFF719FF0346002B0CBF01230023DBB230
:101F90001A460B4B1A6000BF78680837BD4680BDF3
:101FA000442100105C21001008240010742100104E
:101FB0000C2400108C21001010240010A42100100B
:101FC0001424001080B582B000AF7860054A7B68A9
:101FD0001A607B68184603F04DF97B68184608378D
:101FE000BD4680BD404D010080B582B000AF786035
:101FF0007868FFF7E7FF786803F03CFD7B681846D8
:102000000837BD4680BD80B582B000AF78607B6880
:1020100008331846FFF7D6FF7B6818460837BD46D9
:1020200080BD000080B582B000AF786039607B6809
:10203000012B46D13B684FF6FF72934241D1234BAF
:10204000234A24492448FEF745FD244A24492248CE
:1020500003F0C8FE0023234A2349244802F058FF16
:102060001E4A2349214803F0BDFE224B224A234940
:102070002348FFF743F8194A2249214803F0B2FEEA
:1020800021492248FFF76AFE21492248FFF766FEF0
:1020900021492248FFF762FE21492248FFF75EFEF0
:1020A00021492248FFF793FE21492248FFF79EFE6F
:1020B0001E49214801F0C8FE084A20491E4803F085
:1020C00091FE00BF0837BD4680BD00BF12C0092089
:1020D00001C0092000C0092024200010C800001001
:1020E0003D10000003C0092002C00920E8200010B4
:1020F000A1100000A08601000BC009200AC0092021
:10210000442100109111000045C009205C210010FD
:1021100044C009207421001043C009208C21001004
:1021200042C00920A42100101AC00920BC210010BF
:1021300040C00920C0210010C82100100720000065
:1021400080B500AF4FF6FF710120FFF76BFF80BD38
:1021500080B584B000AF786039600C2005F0D6FF00
:10216000F860FB68002B03D10849094803F002F826
:10217000FB6800229A60FB687A681A60FB683A681C
:102180005A60FB6818461037BD4680BD8C4601007A
:10219000E820001080B584B000AF786039607B68BB
:1021A0005B6838689847B8607B681A68BB689B00B2
:1021B00013441B68FB60FB68002B0AD0FB681B689C
:1021C0003A689A4201D1FB6804E0FB689B68FB60B7
:1021D000F1E7002318461037BD4680BD80B584B0B6
:1021E00000AF786039607B685B6838689847B86092
:1021F0007B681A68BB689B0013441B68FB60FB6824
:10220000002B0FD0FB689B68002B0BD0FB689B68F2
:102210001B683A689A4201D1FB6804E0FB689B683E
:10222000FB60ECE7002318461037BD4680BD000078
:1022300080B584B000AF786039603B68002B05D171
:102240001E4806F08FFB012002F0F8FC0C2005F080
:102250005DFFB860BB68002B03D11949194802F033
:1022600089FFBB687A685A60BB683A689A603B68C5
:102270009B00184605F04AFF0246BB681A60BB681F
:102280001B68002B03D10E490E4802F073FF002398
:10229000FB60FA683B689A420AD2BB681A68FB681E
:1022A0009B00134400221A60FB680133FB60F0E7D7
:1022B000BB6818461037BD4680BD00BF9C46010074
:1022C0008C460100E820001080B588B000AFF860AF
:1022D000B9607A60B968F868FFF75CFFF861FB697C
:1022E000002B07D0FB695B687B61FB697A685A60E9
:1022F0007B6919E07968B868FFF72AFFF861FB6825
:102300005B68B8689847B861FB681A68BB699B004E
:1023100013441A68FB699A60FB681A68BB699B00E2
:102320001344FA691A60002318462037BD4680BD61
:1023300080B584B000AF7860396039687868FFF79D
:1023400029FFF860FB68002B01D1002301E0FB6846
:102350005B6818461037BD4680BD80B586B000AFBB
:10236000786039607B685B683868984738617B685B
:102370001A683B699B0013441B687B617B69002BD7
:1023800025D07B691B683A689A4208D17B681A6835
:102390003B699B0013447A6992681A600EE03968C1
:1023A0007868FFF71BFFF860FB68002B11D0FB6813
:1023B0009B687B617B699A68FB689A607B695B6854
:1023C000184605F0ABFE786905F0A8FE02E000BFF4
:1023D00000E000BF1837BD4680BD90B482B000AFAA
:1023E000C7E900013B687A6822F00044184621469C
:1023F0000837BD4690BC704780B485B000AF7860A8
:1024000039600023FB60FB68022B27DC1749FA6860
:1024100013465B001344DB000B4414331B68002B92
:1024200018D11249FA6813465B001344DB000B44D1
:102430001B687A689A420DD10C49FA6813465B0012
:102440001344DB000B4404331B683A689A4201D101
:10245000FB6805E0FB680133FB60D4E74FF0FF3316
:1024600018461437BD4680BC704700BF4424001096
:1024700080B485B000AF786039600023FB60FB68F2
:10248000022B28DC1749FA6813465B001344DB0073
:102490000B4414331B68002B19D11249FA681346F8
:1024A0005B001344DB000B4408331B687A689A42D4
:1024B0000DD10C49FA6813465B001344DB000B4452
:1024C0000C331B683A689A4201D1FB6805E0FB684F
:1024D0000133FB60D3E74FF0FF3318461437BD4696
:1024E00080BC70474424001084B0F8B500AF07F1F9
:1024F000180484E80F007B6A002B01D0012371E0EF
:102500003F4BDB693E4A1362BB69002B09D03C4B51
:10251000DB69002B0CBF01230023DBB21A46384BCA
:10252000DA61374B5B69364A9361D7E90A3418465A
:102530002146FFF752FF05460E46D7E90C341846F0
:102540002146FFF74AFF0A46014601231C4613466F
:102550000A462846314610F0F9F90346002B01D10E
:1025600000231C46E3B2002B1DD0D7E90A0120A3AB
:10257000D3E9002310F0CCF90346002B04D0204B04
:1025800002225A6103232DE0D7E90A011AA3D3E9F5
:10259000002310F0DBF90346002B22D0184B002259
:1025A0005A6104231EE0D7E90C0111A3D3E90023EB
:1025B00010F0AEF90346002B04D0114B01225A61F2
:1025C00006230FE0D7E90C010BA3D3E9002310F099
:1025D000BDF90346002B04D0094B03225A610523A1
:1025E00000E000231846BD46BDE8F84004B070473F
:1025F0009A9999999999C9BF9A9999999999C93F1D
:102600001824001080B588B000AF78600023FB610B
:10261000A04B1B689F4A93609E4B5B689D4AD360AA
:102620009C4B5B6A9B4A93627B68013B052B00F2E3
:102630008D8101A252F823F0412800004D290000AD
:10264000CD260000C52700005126000049270000C4
:10265000904B1A688F4B5B681946104601F078F969
:10266000B861BB69002B08D0BB699B68002B04D103
:10267000884BDB69002B00F06B81864B1A68854B19
:102680005B68013B19461046FFF7B6FE0346002B78
:1026900005DB804BDB69002B01D1012300E0002327
:1026A000002B0DD07B4B1A687A4B5B68013B1946B7
:1026B0001046FFF7A1FE0346184600F015FF52E151
:1026C000744B5B68013B734A53604CE1714B1A6871
:1026D000704B5B681946104601F06AF9B861BB6936
:1026E000002B08D0BB699B68002B04D1694BDB69C8
:1026F000002B00F02F81674B1B685A1E654B5B68EF
:1027000019461046FFF778FE0346002B05DB614BA8
:10271000DB69002B01D1012300E00023002B0DD049
:102720005C4B1B685A1E5B4B5B6819461046FFF7F3
:1027300063FE0346184600F0D7FE14E1554B1B68B4
:10274000013B544A13600EE1524B1A68514B5B68CF
:102750001946104601F00CF9B861BB69002B08D08E
:10276000BB699B68002B04D14A4BDB69002B00F04E
:10277000F380484B1A68474B5B6801331946104693
:10278000FFF73AFE0346002B05DB424BDB69002BCB
:1027900001D1012300E00023002B0DD03D4B1A682E
:1027A0003C4B5B68013319461046FFF725FE034694
:1027B000184600F099FED6E0364B5B680133354A87
:1027C0005360D0E0334B1A68324B5B6819461046B1
:1027D00001F0DEF8B861BB69002B08D0BB699B68CB
:1027E000002B04D12B4BDB69002B00F0B780294B69
:1027F0001B685A1C274B5B6819461046FFF7FCFD07
:102800000346002B05DB234BDB69002B01D10123A1
:1028100000E00023002B0DD01E4B1B685A1C1D4BE3
:102820005B6819461046FFF7E7FD0346184600F0BF
:102830005BFE98E0174B1B680133164A136092E069
:10284000144B1A68134B5B681946104601F0C0F828
:10285000B861BB69002B1FD0BB691B68032B1BD160
:10286000BB69DB687B617B691B68184600F0F0FF81
:102870007B691B68184600F07DFC7B695B68054A34
:1028800013607B699B68034A53600223FB6100BFAE
:1028900066E000BF1824001000F0D0FF0346002BB4
:1028A0000CBF01230023DBB2002B59D04FF0FF33C4
:1028B0003B61454B1B685A1C434B5B6819461046ED
:1028C000FFF79AFDF860FB68002B01DBFB6800E076
:1028D0003B693B613C4B1B685A1E3B4B5B6819468E
:1028E0001046FFF789FDF860FB68002B01DBFB68F1
:1028F00000E03B693B61344B1A68334B5B68013342
:1029000019461046FFF778FDF860FB68002B01DBE5
:10291000FB6800E03B693B612B4B1A682A4B5B6804
:10292000013B19461046FFF767FDF860FB68002B76
:1029300001DBFB6800E03B693B613B69002B11DB7D
:10294000386900F045F80223FB6109E000BF0AE0A6
:1029500000BF08E000BF06E000BF04E000BF02E0E7
:1029600000BF00E000BF184B1A68174B5B681946A0
:10297000104601F02DF8B861BB69002B1FD0BB6970
:102980001B68012B1BD1104B5B6A01330E4A53624B
:102990000D4B1A680C4B5B681946104601F02FF876
:1029A00000F04CFF0346012B0CBF01230023DBB2D8
:1029B000002B02D0054B64221A600223FB61FB69E5
:1029C00018462037BD4680BD182400108C24001006
:1029D00080B584B002AF78607B68002B02D07B6842
:1029E000012B06D12B4B1B6819462B4801F0DAF955
:1029F0004BE07B68022B48D1284B1B69002B0AD186
:102A0000264B5B6A092B06DC254B1B6819462548BB
:102A100001F0C8F939E0214B1B69002B11D11F4B84
:102A200001221A6105230093052301222F2127206B
:102A300001F0DCF81C4B1B6819461C4801F0B2F988
:102A400023E0164B1B69012B06D1194B1B68194655
:102A5000184801F0A7F918E0104B1B69022B09D1A7
:102A60000E4B03221A61144B1B681946134801F0E0
:102A700099F90AE0094B1B69032B06D1104B1B681F
:102A80001946104801F08EF9FFE700BF0837BD4630
:102A900080BD00BF00100010EC0F001018240010C3
:102AA0001C1000100410001038100010201000102E
:102AB000441000103C100010581000104810001076
:102AC000681000105C100010F0B593B004AF78608F
:102AD0007B68002B01D0FFF793F86FF004037B6352
:102AE0007B6B052B00F380816FF003033B633B6B33
:102AF000042B00F375819C4B1B687A6B1344BB62FB
:102B0000994B5B683A6B13447B62974B9B687A6B7B
:102B100013443B62944BDB683A6B1344FB617B6B61
:102B20005A1D13469B0013445B0013440333BB61DF
:102B30003B6B1A1D13469B0013445B0013440F3379
:102B40007B610023FB627B6B002B15D13B6B002B61
:102B500012D17B68002B06D1834B5A69824B9B694B
:102B60009A4200F03681804B1A697F4B5B69796924
:102B7000B869FEF79FFD2CE1BB6A002B10DB7B6A76
:102B8000002B0DDB00F0C8FE0246BB6A934207DA59
:102B900000F0CAFE02467B6A934201DA012300E09C
:102BA0000023002B00F00881796AB86AFFF724FC43
:102BB00038613B69DB43DB0FDBB2002B42D07B6823
:102BC000002B2FD1BA6A3B6A9A422BD17A6AFB69F1
:102BD0009A4227D165493A6913465B001344DB00EA
:102BE0000B44196861483A6913465B001344DB00E3
:102BF000034408331B68994214D15C493A6913466F
:102C00005B001344DB000B440433196857483A69EE
:102C100013465B001344DB0003440C331B689942EA
:102C200000F0D98051493A6913465B001344DB0038
:102C30000B4410331A684E4B1B687969B869FEF76C
:102C400089FDC8E0F969386AFFF7D6FB38613B694E
:102C5000002B0CDB7B68002B07D1BA6A3B6A9A42D7
:102C600003D17A6AFB699A4201D0012300E0002374
:102C7000002B02D03F4BFB6283E0796AB86AFFF712
:102C8000F7FB38613B69002B2BDB7B68002B26D1DF
:102C900036493A6913465B001344DB000B4419685C
:102CA00032483A6913465B001344DB00034408339F
:102CB0001B68994213D12D493A6913465B001344AE
:102CC000DB000B440433196828483A6913465B005B
:102CD0001344DB0003440C331B68994201D00123E9
:102CE00000E00023002B02D0224BFB6249E0F9698F
:102CF000386AFFF7BDFB38613B69002B3CDB7B6822
:102D0000002B2ED1BA6A3B6A9A422AD17A6AFB69B1
:102D10009A4226D115493A6913465B001344DB00F9
:102D20000B44196811483A6913465B001344DB00F1
:102D3000034408331B68994213D10C493A6913467E
:102D40005B001344DB000B440433196807483A69FD
:102D500013465B001344DB0003440C331B689942A9
:102D60000AD0012309E000BF1824001044240010F9
:102D70008C240010591900000023002B01D0404B77
:102D8000FB62796AB86A00F023FEF860F969386A74
:102D900000F01EFEB8607B68002B03D1FA68BB68A8
:102DA0009A420ED0FB68002B03D0FB685B68FB6285
:102DB00007E0334BFB6204E07B68002B01D0314B12
:102DC000FB62FB6A002B07D0FB6A7969B8699847F8
:102DD00002E000BF00E000BF3B6B01333B6386E6CF
:102DE0007B6B01337B637BE6274B1A68264B9B6822
:102DF0009A4220D1244B5A68234BDB689A421AD15D
:102E0000214BDA69204B1B6A9A4214D11E4B5A6A35
:102E10001D4B9B6A9A420ED11C4B19681C4B83FBBD
:102E200001239A10CB17D21A13469B0013445B0060
:102E3000CA1A092A16D1144B1C68134B5D68124B31
:102E4000DE6900F0FBFC104B5B6A104A12680E4909
:102E500009690291019200930346324629462046B1
:102E6000FEF7FEFD7B68002B05D000F0E7FC034673
:102E70001846FEF77BFE00BF3C37BD46F0BD00BFE5
:102E8000591900008D190000182400108C2400101E
:102E90006766666690B585B000AF002000F0D8FC8C
:102EA0000523FB60FB68312B10DC0523BB60BB688E
:102EB000312B07DCB968F86800F05CFEBB680533AD
:102EC000BB60F4E7FB680533FB60EBE700F024FD33
:102ED000034603337B6000F02FFD02467B6893427C
:102EE000B4BF01230023DBB2002B16D000F014FD89
:102EF00002467B6893FBF2F102FB01F29C1A00F0A0
:102F00000BFD02467B6893FBF2F31946204600F066
:102F1000F5FD7B6882337B60DDE701230022002121
:102F2000002000F093FD8249824802F023F900F06E
:102F30009FFC012000F08CFC0123002200210020D6
:102F400000F084FD0223012201210B2000F07EFD10
:102F50000223012214210B2000F078FD022300221D
:102F60000B21012000F072FD022300220A2114200F
:102F700000F06CFD022300220C21142000F066FDFD
:102F8000072300220421082000F060FD072300220F
:102F90001221082000F05AFD0323012205210B20F5
:102FA00000F054FD032301220F210B2000F04EFD01
:102FB000032300220221022000F048FD0423002206
:102FC0000221062000F042FD0423002202210D20F0
:102FD00000F03CFD032300220221122000F036FD08
:102FE000032300221421022000F030FD04230022DC
:102FF0001421062000F02AFD0423002214210D20B4
:1030000000F024FD032300221421122000F01EFDF5
:10301000062301220421062000F018FD03230022CC
:103020000621072000F012FD0623012204211020B2
:1030300000F00CFD0323002206210D2000F006FD08
:10304000062301220D21062000F000FD03230022AB
:103050001021072000F0FAFC062301220D21102088
:1030600000F0F4FC0323002210210D2000F0EEFC00
:10307000032301220421032000F0E8FC02230122A3
:103080000821032000F0E2FC032301220421132085
:1030900000F0DCFC012301220821132000F0D6FC03
:1030A000032301221021032000F0D0FC022301227F
:1030B0000D21032000F0CAFC03230122102113205C
:1030C00000F0C4FC012301220E21132000F0BEFCFD
:1030D000072300220921082000F0B8FC0723002262
:1030E0000D21082000F0B2FC032301220A21082050
:1030F00000F0ACFC032301220A210E2000F0A6FC04
:10310000032300220B21042000F0A0FC0323002253
:103110000B21102000F09AFC00F010F80649054839
:1031200002F028F800F0A4FB00BF1437BD4690BDA4
:103130007C480100E82000108848010080B500AFFD
:103140001521032000F05BFC1521032000F0D6FCC4
:103150001521132000F053FC1521132000F0CEFCA4
:103160000121132000F04BFC0121132000F0C6FCCC
:1031700000BF80BD80B483B000AF7860344B0022C4
:103180001A61334B01229A62314B02221A64304B8E
:1031900000225A612E4B0022DA622D4B00225A6423
:1031A0002C4B00221A607B68002B24D1284B07226D
:1031B0001A60274B06225A60254B07229A60244B3F
:1031C0000622DA60224B13229A61214B0F22DA6128
:1031D0001F4B13221A621E4B0F225A621C4B2A22CB
:1031E0001A631B4B2F225A63194B2A229A63184BDE
:1031F0002F22DA6326E07B68012B23D1144B0522B2
:103200001A60134B11225A60114B05229A60104B21
:103210001122DA600E4B11229A610D4B0522DA6100
:103220000B4B11221A620A4B05225A62084B1122DB
:103230001A63074B11225A63054B11229A63044B00
:103240001122DA6300BF0C37BD4680BC704700BF57
:10325000442400108C24001090B587B000AF0023E8
:10326000BB6000233B610023FB60FB68022B00F383
:1032700031819A49FA6813465B001344DB000B4422
:1032800014331B68002B40F020819449FA681346E0
:103290005B001344DB000B4419689048FA6813463E
:1032A0005B001344DB000344083319608B49FA6860
:1032B00013465B001344DB000B4404331968874852
:1032C000FA6813465B001344DB0003440C331960B7
:1032D000834B19688148FA6813465B001344DB008E
:1032E00003441B68CB1A7B607E4B1B68002B02D00B
:1032F0007B685B4200E07B687B60794B596877486C
:10330000FA6813465B001344DB00034404331B6874
:10331000CB1ABB60734B1B68002B02D0BB685B42AF
:1033200000E0BB68BB606D49FA6813465B0013445C
:10333000DB000B441C68786800F036F90346234430
:103340007B616649FA6813465B001344DB000B445B
:1033500004331B681946786900F03AFB0346002BDA
:103360000FD15E49FA6813465B001344DB000B443F
:1033700004331B6819467869FFF73EF80346002BB3
:1033800001DB012300E00023002B02D04FF0FF33CC
:103390007B615249FA6813465B001344DB000B441F
:1033A00004331C68B86800F0FFF8034623443B610F
:1033B0004A49FA6813465B001344DB000B441B6860
:1033C0003969184600F004FB0346002B0ED143492F
:1033D000FA6813465B001344DB000B441B68396931
:1033E0001846FFF709F80346002B01DB012300E034
:1033F0000023002B02D04FF0FF333B617B69002B91
:103400000CDB3B69002B09DA3449FA6813465B0090
:103410001344DB000B447A691A6039E07B69002BA6
:103420000DDA3B69002B0ADB2C49FA6813465B0076
:103430001344DB000B4404333A691A6028E07B69CB
:10344000002B25DB3B69002B22DB786803F0ECFDC9
:103450000446B86803F0E8FD03469C42CCBF012354
:103460000023DBB2002B09D01C49FA6813465B002D
:103470001344DB000B447A691A6009E01749FA68C3
:1034800013465B001344DB000B4404333A691A60B3
:103490001249FA6813465B001344DB000B441A68B8
:1034A0000F4B1B689A4211D10C49FA6813465B0016
:1034B0001344DB000B4404331A68094B5B689A42DF
:1034C00004D1F86800F010F800E000BFFB68013399
:1034D000FB60CAE600BF1C37BD4690BD4424001007
:1034E000182400108C24001080B586B002AF7860DC
:1034F00000F0A4F90346012B14BF01230023DBB223
:10350000002B46D1254B1B68002B0ED1FEF7AAFBE2
:103510000120FFF72FFE224B05225A60204B5B68EB
:103520001F4A1360FFF70AFE2FE01E497A68134610
:103530005B001344DB000B44143301221A600023A8
:10354000FB600023BB60BB68022B10DC1549BA6826
:1035500013465B001344DB000B4414331B68002B41
:1035600001D10123FB60BB680133BB60EBE7FB6863
:10357000002B0AD12F230093262300220B21152094
:1035800000F034FB064B02221A610120FFF79CFA7F
:1035900000E000BF1037BD4680BD00BF8C24001086
:1035A000182400104424001080B483B000AF786069
:1035B0007B68002BCCBF01230023DBB21A467B685B
:1035C000DB0FDBB2D31A18460C37BD4680BC704700
:1035D000B0B598B006AFFEF719FC0346002B14BF38
:1035E00001230023DBB2002B05D0474A4749484856
:1035F00001F0C0FDFEE700F0E5F8FFF74BFCFEF739
:10360000F3F8002000F024F90020FFF7B3FD414B50
:1036100005225A603F4B5B683E4A13603D4B0022D7
:10362000DA613C4BDB693B4A93613A4B9B69394A0F
:103630005361384B5B69374A13610120FFF744FA45
:1036400000237B6407F12C03184601F0F1FD07F11C
:103650002C03184601F0B2FD3B461846FEF702FC6B
:103660006D4607F110040FCC0FC594E8030085E800
:1036700003003B460FCBFEF737FF3864386CFEF78C
:10368000C1FFF863244B1B68002B04D0224B1B683E
:10369000013B214A136000F0D1F80346012B04D10D
:1036A0007B6C002B01D1012300E00023002B01D013
:1036B000FFF7D2FDF86BFFF707FAFB6B012B01D187
:1036C00000231CE07B6C01337B647B6C022B01DDEF
:1036D00000237B6407F12C03184601F097FD07F1E6
:1036E0002C03184601F084FDB863BB6B632BA9DC87
:1036F000BB6BC3F16403184601F02CFBA2E718462C
:103700004837BD46B0BD00BF94480100AC48010039
:10371000E8200010182400108C24001080B582B01E
:1037200000AF786039607B68002B10D000F0F4F8AF
:103730000346013B7A689A4209D03B68002B06D0C9
:1037400000F0F2F80346013B3A689A4201D10123A6
:1037500000E00023002B01D0002307E000F0DCF89C
:1037600002463B6803FB02F27B68134418460837A5
:10377000BD4680BD80B483B000AF78607A68064BE8
:10378000A3FB02135B09642101FB03F3D31A184660
:103790000C37BD4680BC70471F85EB5180B483B0A9
:1037A00000AF78607A68064BA3FB02131B09322135
:1037B00001FB03F3D31A18460C37BD4680BC704793
:1037C0001F85EB5180B500AF64210F48FEF730FD37
:1037D00002460E4B1A600D4B32225A600B4B3222BE
:1037E0009A6032210A48FEF723FD0246074BDA6051
:1037F000064B17221A61054B17225A61054B00220E
:103800001A6000BF80BD00BF753700009024001013
:103810009D370000A824001080B400AF054B1A6843
:1038200013465B0013449B00034A13441846BD46ED
:1038300080BC7047A82400109024001080B400AF12
:10384000024B1B681846BD4680BC7047A824001078
:1038500080B582B000AF7860044A7B681360FFF7E0
:10386000DBFF034618460837BD4680BDA82400107C
:1038700080B584B000AF234B1B683B600023FB6026
:1038800000F052F80246FB689342B4BF01230023C4
:10389000DBB2002B31D00023BB6000F03DF80246C4
:1038A000BB689342B4BF01230023DBB2002B1CD0C2
:1038B000F968B86800F08CF878607B68002B0CD051
:1038C0007B681B6807F11002134413F8103C1A467A
:1038D0000D490E4801F04EFC03E00D490B4801F084
:1038E00049FCBB680133BB60D7E70A49074801F0D0
:1038F00041FCFB680133FB60C2E700BF1037BD46E7
:1039000080BD00BFC4480100B8480100E820001095
:10391000BC480100C048010080B500AFFFF77CFF44
:1039200003465B68184680BD80B500AFFFF774FFA3
:1039300003469B68184680BD98B500AFFFF7ECFFC3
:103940000446FFF7F1FF034603FB04F3184698BD56
:1039500080B582B000AF786039603B68013B1946A2
:10396000786800F035F8034618460837BD4680BD34
:1039700080B582B000AF786039603B68013319468A
:10398000786800F025F8034618460837BD4680BD24
:1039900080B582B000AF786039607B6801333968E8
:1039A000184600F015F8034618460837BD4680BD96
:1039B00080B582B000AF786039607B68013B3968C0
:1039C000184600F005F8034618460837BD4680BD86
:1039D00090B583B000AF78603960FFF71DFF0346F4
:1039E0001C6839687868FFF799FE03461946204637
:1039F000FEF79EFC034618460C37BD4690BD90B5B9
:103A000085B000AF7860396039687868FFF7E0FF0B
:103A1000F860FB68002B08D0FB68DB68002B04D043
:103A2000FB68DB68184604F079FBFFF7F5FE0346F8
:103A30001C6839687868FFF771FE0346194620460E
:103A4000FEF78BFC00BF1437BD4690BD80B588B033
:103A500000AFF860B9607A603B600023FB61FA69EF
:103A60003B689A423FDA102004F050FBB861BB6912
:103A7000002B03D11E491F4801F07CFBBB690022CB
:103A80001A60BB691C4A5A60BB6900229A60BB6914
:103A90000022DA607B68002B08D1FA68FB691344C6
:103AA000B9681846FFF73AFE034607E0BA68FB69B3
:103AB00013441946F868FFF731FE03467B61FFF7B0
:103AC000ABFE03461B68BA6979691846FEF7FCFB32
:103AD00038613B69002B02D0386904F01FFBFB6999
:103AE0000133FB61BBE700BF2037BD4680BD00BF8F
:103AF000C8480100E82000108D19000090B585B07D
:103B000000AF78603960102004F000FBF860FB68BB
:103B1000002B03D11449154801F02CFBFB6801224E
:103B20001A60FB68124A5A60FB6801229A60FB68BF
:103B30000022DA60FFF770FE03461C683968786877
:103B4000FFF7ECFD0346FA6819462046FEF7BCFB7A
:103B5000B860BB68002B02D0B86804F0DFFA00BF81
:103B60001437BD4690BD00BFC8480100E8200010D2
:103B7000BD19000090B585B000AF786039601020A5
:103B800004F0C4FAF860FB68002B03D1144915480F
:103B900001F0F0FAFB6802221A60FB68124A5A60D0
:103BA000FB6801229A60FB680022DA60FFF734FEAE
:103BB00003461C6839687868FFF7B0FD0346FA6869
:103BC00019462046FEF780FBB860BB68002B02D088
:103BD000B86804F0A3FA00BF1437BD4690BD00BF1B
:103BE000C8480100E8200010ED19000090B589B028
:103BF00000AFF860B9607A603B60102004F086FA8C
:103C0000F861FB69002B03D11E491F4801F0B2FA8D
:103C1000FB6903221A60FB691C4A5A60FB69012296
:103C20009A600C2004F072FAB861BB69002B03D1D2
:103C30001449154801F09EFABB697A681A60BB699D
:103C40003A685A60BB693A6B9A60FB69BA69DA6094
:103C5000FFF7E2FD03461C68B968F868FFF75EFDF0
:103C60000346FA6919462046FEF72EFB78617B6908
:103C7000002B02D0786904F051FA00BF2437BD460A
:103C800090BD00BFC8480100E8200010311A0000B4
:103C900080B582B002AF6FF07F4301937F23009322
:103CA0007F235E2200210848FCF71EFBFF230193BF
:103CB0007F2300937F235E2200210348FCF7BAFA9A
:103CC00000BFBD4680BD00BF2420001080B582B07B
:103CD00002AF002301937F2300937F235E22002104
:103CE0000248FCF701FB00BFBD4680BD2420001048
:103CF00080B582B000AF786039603B68DBB20D33CD
:103D0000DBB21A4601210B48FCF766FD0A49094857
:103D1000FCF78FFD00210748FCF74EFC0021054809
:103D2000FCF7D6FC7968034801F024FA00BF083795
:103D3000BD4680BD242000105F5F5F00B0B594B029
:103D400000AF3B461846FEF78DF807F128043D46C4
:103D50000FCD0FC40FCD0FC495E8030084E8030016
:103D6000142000F0F7FF7B6B002B00D1E9E700BFC8
:103D70005037BD46B0BD80B582B000AF78603960C5
:103D8000FFF786FF00217868FFF7B2FF012138684E
:103D9000FFF7AEFFFFF7D2FFFFF798FF00BF08372E
:103DA000BD4680BD80B584B000AF78603960002327
:103DB000FB60FA683B689A4218DAFB689B007A68F5
:103DC00013441868FB6801333A689A4206D0FB68CE
:103DD00001339B007A6813441B6800E0054B1946C9
:103DE000FFF7C9FFFB680233FB60E2E700BF103753
:103DF000BD4680BDD848010080B582B000AF786074
:103E00000B467B807B687A881146184600F0FEFAE4
:103E100000BF0837BD4680BD80B582B000AF786076
:103E20007B68184601F010FA064A7B681A607B68C6
:103E300014330021184600F0F9FF7B681846083754
:103E4000BD4680BD404D010080B582B000AF7860B6
:103E500039607B6808331846FFF7DEFF7B683A68F5
:103E60005A607B685B684FF400411846FFF7C4FF57
:103E70007B6800221A607B6818460837BD4680BD03
:103E80004FF46D43CEF20003F0B49F689A683B464E
:103E9000BAB953F8045B4FF08054C43725601A4612
:103EA00052F8046B251D66605C68131D6C602C1D48
:103EB000BB42F4D14FF46D424FF08053CEF200027A
:103EC0009360103043F82010F0BC7047036870B561
:103ED00000211D6901220446A847431C05460ED057
:103EE000216802220E6920460021B047226806465A
:103EF00013692046294600229847304670BD064681
:103F0000FBE700BF0D4B0E4A30B4026003F580742E
:103F1000002501E0A3420FD01A4652F8041B81424B
:103F200008BF42F8045C134653F8042B8242F1D1D7
:103F3000A34243F8045CEFD130BC7047AC240010BE
:103F40001849010038B50F4A0F4B0446026000259E
:103F500003F5807001E083420FD01A4652F8041B2B
:103F60008C4208BF42F8045C134653F8042B944279
:103F7000F1D1834243F8045CEFD1204601F07AFD91
:103F8000204638BD18490100AC240010074B1868C2
:103F900000B170474CF202014CF203020448C2F235
:103FA0000901C2F2090200F0CFBC00BFB025001029
:103FB0002C260010F0B50F4685B03049064605F0B6
:103FC00041F90446002836D030462D4905F03AF92B
:103FD00060B330462B4905F035F900282FD02A4828
:103FE000002406E05D680134181D35B10134402C11
:103FF00029D04568031D002DF4D131783A2936D0F7
:1040000002A8314600F0BAFE02A800F009FFD0B1C4
:1040100002A800F0F1FEC8B102A800F0F7FE0346C6
:104020008BB11A49E01C41F8243002E0FFF7AEFFE3
:10403000012005B0F0BDFFF7A9FF2046F9E7FFF723
:10404000A5FF0220F5E74FF0FF30F2E702A800F0ED
:10405000CBFE05460028F6D0026802A8966800F05C
:10406000B7FE3A4601462846B0470346D8E73046F1
:10407000074901AA05F074F8019BD1E7DC4801006B
:1040800000490100E4480100A8240010AC240010FD
:1040900040490100022808B50BDD084BC21E53F849
:1040A0002200002143F8221028B103685A68904783
:1040B00008BD002008BD4FF0FF3008BDAC24001043
:1040C0000228F8B50D46174628DC1D490A68002A63
:1040D0002DD00FB32C46EE1914F8011BED43AB198C
:1040E000184803F0010500F099FDB44214D035B131
:1040F00014F8011B134800F091FDB4420CD0254682
:1041000015F8011B0F4800F089FD61780D486C1C03
:1041100000F084FDB442F2D13846F8BD0A4B0338B2
:1041200053F8200040B103681B689847F8BDFFF7BB
:104130002DFF002FCED1EFE74FF0FF30F8BD00BFCD
:10414000B02500102C260010AC240010022810B559
:104150000C460ADD0A4B033853F8200060B10368AF
:104160009B6898470146084610BD064800F050FD80
:1041700001212070084610BD4FF0FF31F3E700BF6A
:10418000AC2400102C260010022808B508DD074BCF
:10419000033853F8200028B10168CA68904708BD69
:1041A000012008BD4FF0FF3008BD00BFAC24001057
:1041B000022808B508DD074B033853F8200028B162
:1041C00003681B69984708BD002008BD4FF0FF3009
:1041D00008BD00BFAC240010022808B504D84FF475
:1041E00000504860002008BD02F028FF092303604A
:1041F0004FF0FF3008BD00BF08B541F29803C1F28F
:104200000003186844F64411C068C0F2010103F0CD
:10421000E5F9012000F012FD08B5012000F00EFDC7
:10422000084A13681818EFF30881884202D2106018
:1042300018467047044B0C221A604FF0FF331846A3
:10424000704700BF6C100010582600100749084A3C
:10425000084B9A42BEBF51F8040B42F8040BFFF71B
:10426000F8BF054880470548004700003057010067
:10427000C80000105C1A0010DD4200000D010000B3
:10428000FEE7FEE7FEE7FEE7FEE7FEE7FEE7FEE706
:10429000FEE7FEE7FEE7FEE7FEE7FEE7FEE7FEE7F6
:1042A000FEE7FEE7FEE7FEE7FEE7FEE7FEE7FEE7E6
:1042B000FEE7FEE7FEE7FEE7FEE7FEE7FEE7FEE7D6
:1042C000FEE7FEE7FEE7FEE7FEE7FEE7FEE7FEE7C6
:1042D000FEE7FEE7FEE7FEE7FEE700BF4FF44042E1
:1042E000C4F20F02202330B4C2F8A031D2F8A001EA
:1042F000800651D44FF44043C4F20F03002502213D
:10430000C3F804110124C3F8A851AA20C3F8AC5182
:1043100055220B25C3F80C411946C3F88450C3F845
:104320008C00C3F88C20C3F88040C3F88C00C3F81D
:104330008C20D1F888004FF440434201C4F20F03AF
:10434000F7D50322C3F88020AA205522C3F88C0099
:104350001946C3F88C20D1F888004FF4404310F080
:10436000407FC4F20F03F6D048F2DE72C0F228425A
:1043700005210020C3F80811C3F8C420C3F8C80100
:104380001A6822F4704121F03A0040F4405242F0A1
:104390003A01196030BC7047D2F8A0114906A9D47F
:1043A000D2F8A0114906F7D5A4E700BF38B50C46EE
:1043B00005461349204600F08FFCC0B2FF28287044
:1043C00014D04FF44043C4F20F03D3F8A821204681
:1043D00022F44001C3F8A811094900F03FFC4FF452
:1043E0004040C4F208000023036038BD054C064974
:1043F0002568E86803F0F2F8012000F01FFC00BF18
:104400006849010098100010504901004FF6C07330
:104410004FF440420B40C4F208021360704700BFE3
:1044200010B50021044604F01F0400F047F80120F5
:1044300000FA04F010BD00BF006800F061B800BFD2
:1044400031B9836841681A6822EA01021A6070472C
:10445000012900D0704783684268196841EA020068
:1044600018607047F8B54B1C0D46044616461DD023
:1044700021600846FFF7D4FF25F01F0303F11C015C
:1044800003F1180703F1140260602161E7606261C3
:10449000A36020463146FFF7D3FF2EB928460321FB
:1044A000BDE8F84000F02CB8012E00D0F8BD284639
:1044B0000221BDE8F84000F023B800BF431C10B44F
:1044C0001BD000F16040A0F51C2404F00F0358003D
:1044D000032202FA00F201FA00F14FF440432009EE
:1044E000C4F2020353F8204024EA020243F82020D9
:1044F00053F82020114343F8201010BC704700BF30
:10450000421C70B430D000F16040A0F51C20C1F313
:10451000800400F01F0504FA05F542094FF44043FA
:10452000C4F202031A3253F8226026EA050643F861
:10453000226053F82260354343F82250A4B900F0BA
:104540000F046200032505FA02F501FA02F20009E0
:10455000103053F8201021EA050443F8204053F8A6
:104560002040224343F8202070BC70470F4A4FF48C
:1045700000431268C4F2010302FB01F102225A60F7
:1045800099619A693AB1026810689B6900FB01F170
:10459000B1FBF3F111604FF40040C4F20100026D71
:1045A000092142F00103036541607047AC2500100A
:1045B00070B50E4605463249304600F08DFBC2B25A
:1045C000FF2A54D002F10803012000FA03F04FF44F
:1045D0004043C4F20F032B49D3F8C44051F82210D2
:1045E00044F040042A712960C3F8C440D3F8A821DC
:1045F0004FF4004422F44051C3F8A811C4F201045E
:1046000000230222E3606261E16C1F4B0843E06417
:104610001A684DF68361C4F21B31A1FB02101B4ADC
:10462000030D44F6206128461360FFF79FFFA06941
:104630000EF0FAFA00210EF04FFB0EF039FDA469DE
:104640002979A04208BF0130012404FA01F42A6844
:104650004FF400431060C4F20103196D304644EA80
:10466000010207491A65BDE8704000F0F7BA084D2D
:1046700008492E68F06802F0B1FF012000F0DEFA70
:10468000804901007410001070100010AC2500105B
:1046900098100010344A01002DE9F04F00230468FF
:1046A000C4F2010389B09C42079000F0E38040F31C
:1046B00093804FF40043C4F209039C424FF44040FE
:1046C00000F0C980C4F20900844240F08B804FF4AE
:1046D0004043C4F20F03D3F8AC2122F44020C3F8C6
:1046E000AC01D3F8AC2142F48020C3F8AC01724B8A
:1046F0000801D3F800A0BAFBF0F300FB13A29BB2B1
:104700000693002A00F0A5800846590801910EF092
:104710008FFA019A064606989042C0F09A80069C4D
:1047200001250021B0460294049503910020012543
:1047300005906A1CD5B2102D5DD001980EF074FA68
:104740004FF083410EF0C8FA0124814605E0019A3A
:104750000292601CC4B2AC42EBD050460EF064FA38
:10476000074620460EF060FA834628460EF05CFAB3
:10477000014658460EF064FB4FF07E510EF0A4F94E
:10478000014648460EF0A8FA014638460EF058FB9E
:10479000014630460EF096F931460EF051FB0DF011
:1047A000EDFD02F035FC0EF039F9414607460EF0FA
:1047B00031FC0028CDD041F26F213846C3F6832169
:1047C0000EF028FCB846049503940028BFD0019B46
:1047D000012102930591BCE74FF44040C4F2000070
:1047E000844258D0354D36492E68F06802F0F6FE06
:1047F000012000F023FA019B069C03F1010B1FFA34
:104800008BFB5C45CDF804B002D3059900298DD00F
:10481000029C0398049A079940EA021306940C68D4
:10482000DBB2227B069942F080022273079C080AC1
:104830002268079C10712068C9B20170226882F852
:1048400028302368197B01F07F00187309B0BDE898
:10485000F08F1023E5E7C4F20F00D0F8AC3123F459
:104860004032C0F8AC21D0F8AC3143F48032C0F80B
:10487000AC213CE74FF44040C4F20F00D0F8A8311F
:1048800023F44072C0F8A821D0F8A83143F4807214
:10489000C0F8A8212BE74FF44043C4F20F03D3F82C
:1048A000A82122F0C000C3F8A801D3F8A82142F043
:1048B0004000C3F8A8011AE770100010981000100B
:1048C000BC4A010038B5013B012B0D4628D84C1FCE
:1048D000032C27D8042A0ED8DFE802F016191C1F73
:1048E00003003022082144EA83030B4300681A4383
:1048F000D1B2017338BD1049104D2868C06802F06C
:104900006DFE012000F09AF900221146EBE700222B
:104910000821E8E710220821E5E720220821E2E744
:104920000749E9E7054C074923682A46D86802F099
:1049300055FE012000F082F9244B01009810001070
:10494000C84A0100E44A01002DE9F8430F46054634
:10495000A1493846164600F0BFF9A0490446304642
:1049600000F0BAF90146204600F09EF9431C0446C7
:1049700000F029810023C4F20103984228607CD012
:104980003CD94FF40042C4F20902904200F0DD80AD
:104990004FF44041C4F20901884235D14FF44042FE
:1049A000C4F20F02D2F8C4104FF0010841F00070B9
:1049B000C2F8C40084F808802B6800245C60284694
:1049C0004FF41651FFF768FE224643462846082159
:1049D000FFF778FF3846804900F040F930467F49BC
:1049E00000F03CF938462146FFF78AFD3046214663
:1049F000FFF786FD03226A60BDE8F8834FF440406C
:104A0000C4F20000844268D04FF0010984F8089095
:104A10002B684FF000084FF41651C3F80480284665
:104A2000FFF73AFE42464B4608212846FFF74AFF69
:104A30003846694900F012F93046684900F00EF92D
:104A400038464146FFF75CFD30464146FFF758FDCA
:104A50004046C4F2010084423BD000F2A6804FF4ED
:104A60004042C4F20002944263D04FF44040C4F28A
:104A7000000084425FD0BDE8F8834FF44040C4F2A8
:104A80000F00D0F8C4304FF0010843F01002C0F816
:104A9000C42084F80880296800244C6028464FF41C
:104AA0001651FFF7F9FD2246434628460821FFF735
:104AB00009FF3846484900F0D1F83046474900F030
:104AC000CDF838462146FFF71BFD30462146FFF75B
:104AD00017FD01206860BDE8F8834FF44042C4F23E
:104AE0000F02D2F8C4104FF0010841F00803C2F8D9
:104AF000C43084F808802868002444604FF41651BC
:104B00002846FFF7C9FD2246434628460821FFF7FD
:104B1000D9FE3846304900F0A1F830462F4900F060
:104B20009DF838462146FFF7EBFC30462146FFF75B
:104B3000E7FC00246C602A4B2A48012429460822FD
:104B40001C60BDE8F84303F0C9BD4FF44041C4F216
:104B50000F01D1F8C4004FF0010840F08073C1F894
:104B6000C43084F808802A680024546028464FF432
:104B70001651FFF791FD2246434628460821FFF7CC
:104B8000A1FE3846144900F069F83046134900F098
:104B900065F838462146FFF7B3FC30462146FFF75B
:104BA000AFFC02216960BDE8F8834FF40041C4F214
:104BB00009018C42F5D04FF44043C4F209039C42F2
:104BC0007FF453AF16E7084D08492E68F06802F0ED
:104BD00005FD012000F032F8644B0100504A01004D
:104BE000B02500102C26001098100010444B010036
:104BF00010B442F2B45342F2C4544068C1F200040B
:104C0000C1F20003216043F8202010BC704700BFB0
:104C10000268137DD907FCD5107870470268137DB0
:104C200003F02000C3B2002BF9D0C9B21170704755
:104C30000368187D00F00100704700BF10B50446FE
:104C400000F00AF820B904B9FEE700F0B9FDFBE76F
:104C500000F060F8F7E700BF00F068B8431C10B53B
:104C6000044613D00B68581C04D110E051F80C3FD7
:104C70005A1C0CD09C42F9D120468968FFF71EFCD3
:104C800020460221BDE81040FFF73ABC10BD0448A1
:104C900004490268D06802F0A1FC0120FFF7CEFFB2
:104CA00098100010D04B0100884208B503D0421C78
:104CB00002D0013102D108BD084608BD044B0549A8
:104CC0001868C06802F08AFC0120FFF7B7FF00BF38
:104CD00098100010E44B010008B5431C0BD00B6882
:104CE0005A1C04D108E051F80C3F5A1C04D09842D9
:104CF000F9D1486808BD08BD044805490268D06874
:104D000002F06CFC0120FFF799FF00BF9810001023
:104D1000F84B010030B585B06D4618242046294671
:104D2000ABBE0446204605B030BD00BF4EF6F05382
:104D3000CEF20003186800F00100704738B5054650
:104D400000F014FD044600F011FD001BA842FAD348
:104D500038BD00BF4FF47A7303FB00F0FFF7EEBFDE
:104D60004FF4105108B5C4F674110DF0B5FF0EF0F4
:104D700079F9BDE80840FFF7E1BF00BF38B5002270
:104D8000026042600B7804462F2B01D0204638BDCC
:104D900048780028FAD0481C20604B782F2B12D07E
:104DA000A3B18D1C114600E042B125602A782B4644
:104DB000013101352F2AF7D10133236000F0FCFDCA
:104DC0006060204638BD03461146F5E71946F5E711
:104DD00000687047406808B520B100F00DFE431E22
:104DE0005842584108BD00BF10B50446FFF7F2FF16
:104DF00000B1606810BD00BF406808B528B100F080
:104E0000FBFDD0F1010038BF002008BD10B50446FD
:104E1000FFF7F2FF10B1606800B1043810BD00BFA9
:104E20004068003018BF0120704700BF00220160B9
:104E30004260704708B5036801460BB1984708BD4A
:104E4000406810B18A690831904708BD10B5044622
:104E500000F024FA48F2A06242F2C853C0F2010204
:104E6000C1F2000362601C60204610BD10B54160B5
:104E7000044600F085FA42F2C853C1F200031C60F8
:104E800010BD00BF38B5054D04462B68834203D0E2
:104E9000416800F075FA2C6038BD00BFC8250010CD
:104EA000F0B583B01C4605460F461646FFF7EAFFED
:104EB0009DF82030394683F00100009032462846A4
:104EC000234600F065FB201A18BF012003B0F0BD97
:104ED000F0B583B01C4605460F461646FFF7D2FFD5
:104EE0009DF82030394683F0010000903246284674
:104EF000234600F053FA201A18BF012003B0F0BD7A
:104F0000183000F04FB800BF183000F049B800BFAB
:104F100038B504461D4600F1180000F017F8204689
:104F2000294600F0EDF844F64843C0F2010303F1CE
:104F300008023C3384E80C00204638BDC1EBC101B7
:104F400000EB81000830FFF775BF00BF70B5044665
:104F50000D4600F1080000211646FFF767FF00210B
:104F600004F12400FFF762FF204629463246FFF78E
:104F7000EBFC4FF4165344F63D7120462364C0F217
:104F800000012246FFF734FE204670BD38B50546C5
:104F90000C46FFF781FB2C6438BD00BFFFF748BE0D
:104FA000FFF736BE10B50C46FFF738FE204610BDA1
:104FB000002070472DE9F0418E18B1420F4605469A
:104FC00030D003688A1B0C46D2435B6A14F8011B7D
:104FD00002F00108984701301ED0A6421FD0B8F158
:104FE000000F09D0296828464A6A14F8011B904727
:104FF000013011D0A64212D0286814F8011B436A70
:10500000284698470130284606D02A6814F8011B24
:10501000536A98470130EDD1E01BBDE8F081F01BE9
:10502000BDE8F0810020BDE8F08100BF2DE9F0412E
:105030008E18B1420F46054631D003688A1BD14312
:105040009C6A01F00108A047431C3C4624D03C4622
:1050500004F8010BA6421CD0B8F1000F06D02B6853
:1050600028469A6A9047431C0FD115E029682846C4
:105070008B6A98470246511C28460DD004F8012B34
:1050800029688B6A9847421C06D004F8010BA64297
:10509000ECD1F01BBDE8F081E01BBDE8F081002001
:1050A000BDE8F08100207047002070470020704765
:1050B0000020704744F6B043C0F2010303F1080238
:1050C0003C3310B5044680E80C00406902F024F837
:1050D000204600F093FC204610BD00BFA0F1040064
:1050E000FFF7E8BF10B50446FFF7E4FF204600F0E5
:1050F000C1FC204610BD00BFA0F10400FFF7F2BFC5
:1051000010B584B0044600F09FFC44F6B043C0F2F2
:10511000010303F1080044F640113C3384E8090020
:105120002246C0F2010101A803F0F8FF44F6045141
:10513000C0F2010101A802F049FA0021606103F008
:10514000D9FE204604B010BD38B5044640690D466E
:1051500002F0C2F861692846BDE8384002F052BA50
:1051600010B50446406902F0B7F86069BDE8104028
:1051700002F0C4B80EB430B582B005AB53F8045B8E
:1051800004464069019302F0A7F860692946019A34
:1051900008F014FF02B0BDE8304003B0704700BF14
:1051A0004368016910B5C918044600F05BF804F1C2
:1051B0001400BDE81040FFF73DBE00BF10B5044627
:1051C00000F0D4FA01236060236010BD036810B5BD
:1051D00004460BB9184610BD00F0C8FA6168401AC1
:1051E00010BD00BF10B58468FFF7F0FF201810BD98
:1051F00008B5FFF7F7FF44F6D353C1F2620383FB10
:105200000021C017C0EBA11008BD00BF10B50446B7
:10521000FFF7DCFFA36800211818A060216010BD13
:1052200010B5044600F0A2FA00236060A36010BD30
:1052300010B50446FFF7F4FF204610BD08B503681B
:105240009968884708BD00BF054B10B50446036048
:1052500045F23D20C0F2000000F0F4FA204610BDF7
:10526000604D01000246043000F01ABB043000F02B
:1052700039BB00BF034B10B504460360FFF7F6FFD0
:10528000204610BD604D010010B50446FFF7F2FF47
:10529000204600F0EFFB204610BD00BFF8B50D46DC
:1052A0000646324928461446FFF716FD30490746A0
:1052B0002046FFF711FD01463846FFF7F5FC421C7A
:1052C0000346306049D04FF44042C4F20502904298
:1052D00038D00020C4F20A0083424FF4404228D064
:1052E000C4F20102934219D0224A42F66350116877
:1052F000C0F23E500A0AA0FB02013C228809586114
:1053000018619A614022284618491A60FFF7A6FCE6
:1053100017492046BDE8F840FFF7A0BC4FF44040D5
:10532000C4F20F00D0F8C41041F08002C0F8C420CD
:10533000DAE7C4F20F02D2F8C40040F08061C2F88C
:10534000C410D1E74FF44042C4F20F02D2F8C400B7
:1053500040F40021C2F8C410C6E7074C074925688D
:10536000E86802F03BF90120FFF768FC844D01007A
:10537000D84D01007010001098100010C04D0100B1
:1053800041F27003C1F200031A68006893084900F3
:10539000B3FBF1F242610261704700BF2DE9F001F9
:1053A00004683C252426A5612660256827462D072C
:1053B0000DD448F2A065C0F2010504E02668360766
:1053C00005D4013D03D02668013D3607F6D5656852
:1053D0002026102DA6611CD0082D1AD010210820DF
:1053E0002160A0612368DB060DD548F2A060C0F201
:1053F000010004E02268D60605D5481E03D02668C1
:10540000411EF006F6D46FF001063046BDE8F0010B
:10541000704741F001010826A160A66121680907D3
:105420000DD448F2A066C0F2010604E025682E07FC
:1054300005D44E1E03D02568711E2E07F6D561686F
:10544000402917D0102608222660A2612168CB06C9
:105450000DD548F2A062C0F2010204E02668F6060B
:1054600005D55A1E03D02068531EC006F6D44FF04F
:10547000FF36CAE703F1FF3C0026BCF1000F22DD36
:105480004FF004080827C4F80080A76125682907A1
:105490000DD448F2A061C0F2010104E025682D0797
:1054A00005D4013903D0256801392D07F6D5A56843
:1054B0006168EDB2502936D195550136664501D067
:1054C0000468E0E7076804240821BC61B9613C680E
:1054D00021070DD448F2A061C0F2010104E03C684C
:1054E000240705D4013903D03C6801392407F6D5D7
:1054F000BC68796858292FD0102308223B60BA6114
:105500003868C3060DD548F2A062C0F2010204E07B
:105510003B68DE0605D54A1E03D03E68511EF006E4
:10552000F6D4664671E7102008212060A161236847
:10553000D9067FF56AAF48F2A063C0F2010306E026
:105540002068C2067FF561AF4B1E3FF45EAF226854
:10555000591ED006F4D458E79455059AAAB10268AA
:1055600008261020106096611168C9060DD548F212
:10557000A061C0F2010104E01668F60605D5013904
:1055800003D010680139C006F6D41E463DE700BFBF
:1055900070B4046824253C20A061256020680007C1
:1055A0000DD448F2A060C0F2010004E025682D0788
:1055B00005D4013803D0256801382D07F6D5606879
:1055C00020251028A5611AD0082818D010200823FB
:1055D0002060A3612168C9060DD548F2A061C0F220
:1055E000010104E02068C20605D5591E03D02268D7
:1055F0004B1ED006F6D46FF0010070BC704701F06E
:10560000FE010820A160A061216809070DD448F2BD
:10561000A061C0F2010104E02068000705D401394F
:1056200003D0206801390007F6D56068182817D024
:10563000102008212060A1612268D1060DD548F212
:10564000A062C0F2010204E02168CA0605D55A1E14
:1056500003D02068531EC006F6D44FF0FF30CCE7CD
:10566000002B1DDD00200826115CA160A6612168C9
:1056700009070FD448F2A061C0F2010105E02568D6
:1056800015F0080F06D1013904D02568013915F04D
:10569000080FF4D0616828291BD101309842E3D16A
:1056A000039AA2B1102008212060A1612268D206CD
:1056B0000DD548F2A062C0F2010204E02168C806DC
:1056C00005D5013A03D02068013AC106F6D4184640
:1056D00093E7102308212360A1612268D1068CD5AD
:1056E00048F2A063C0F2010304E02268D20684D528
:1056F000013B82D02168013BC906F6D47DE700BF9B
:10570000174A38B513684BBB4FF44041C4F20F0140
:10571000D1F8C40001254FF480441560C4F2090497
:1057200040F400000F4AC1F8C400236711684DF629
:1057300083638808C4F21B33A3FB0012910C4B1E39
:10574000022060600849E36004206560FEF798FB72
:105750004FF46141CEF2000110220A6038BD00BF53
:10576000CC250010701000105958000008B5054BEA
:10577000186808B9FFF7C4FF4FF48041C4F209016B
:10578000886808BDCC2500104FF48043C4F209039B
:1057900098615A6942F00100586170474FF48043A4
:1057A000C4F209035A6922F001005861704700BF32
:1057B0004FF48043C4F2090301221A60704700BF0E
:1057C00000B54CF2320199B06846C2F209010122DB
:1057D000FEF748FE4CF2340106A8C2F2090101228C
:1057E000FEF740FE4CF235010CA8C2F2090101227D
:1057F000FEF738FE4CF2370112A8C2F2090101226D
:10580000FEF730FE019A039B0A991A600798109BD5
:1058100008600D9A96201A601399159A1160FFF787
:1058200099FA0198049B099A186007990F9B1160D7
:105830000D98169A1860139996201160FFF78AFA4E
:10584000E0E700BF10B50446FFF75AFF42F2D45319
:10585000C1F200031C6010BD70B5FFF7A9FF0E4C2C
:105860000E4E206870B10568FFF780FF281A0028E7
:105870000CDC2168326888682060002AF2D0486811
:105880009047EEE7BDE87040FFF788BF23681868CF
:10589000BDE87040FFF778BFD0250010D425001078
:1058A00038B5054672B60E4B01601C68426084B183
:1058B0002268881A002805DC0BE01A68881A00287C
:1058C00003DD1C46A368002BF7D1A560AB6062B670
:1058D00038BD08461D60FFF757FF2346F6E700BFB7
:1058E000D025001008B572B60F4B1A68824211D04D
:1058F0004AB19168814208D029B18B68834205D0B2
:1059000019460029F9D162B608BD11468068886041
:1059100062B608BD92681A60002AF4D01068FFF7DA
:1059200033FF62B608BD00BFD0250010094A836866
:10593000026053B108490A68824201D106E01A4662
:1059400053689842FBD141685160704743680B60CF
:10595000704700BF304E0100D82500100C4A836804
:1059600010B50446026053B10A480268944201D15E
:105970000AE00A4651688C42FBD1636853602046B6
:1059800000F078F8204610BD61680160F7E700BFBD
:10599000304E0100D8250010054B81600360027372
:1059A00021B104490A68086042607047416070474D
:1059B000304E0100D82500100E4B70B51C6806460D
:1059C0000D4614B912E0646884B1A36831462A46D2
:1059D0001846002BF7D003F041FD0028F3D1A06852
:1059E00003F00EFDA842EED1204670BD00242046F3
:1059F00070BD00BFD8250010007B704744F6786367
:105A0000C0F2010310B503F134020446083340F834
:105A1000042F2360FFF78AFF2046FEF773FA204623
:105A200010BD00BFA0F10400FFF7E8BF10B50446A9
:105A3000FFF7E4FF204600F01DF8204610BD00BF30
:105A4000A0F10400FFF7F2BF094B10B50022044695
:105A500040F8043BFFF7A0FF44F67863C0F201036F
:105A600003F10802343384E80C00204610BD00BF67
:105A70001849010002F052BBF0B4204CA0F1080616
:105A800063682BB350F8087CF519AB4220D81AD0C4
:105A9000596851B38D4204D32BE095420B4604D292
:105AA00011464A681C1D002AF7D1954215D023687B
:105AB0001A6899188E4215D05B6840E90273236812
:105AC0005E60F0BC7047D3E90023174440F8087CBF
:105AD00040F8043C6660F0BC7047D5E900231744E9
