:1000000000800010B9450000ED450000EF450000FC
:10001000F1450000F3450000F54500000000000038
:10002000000000000000000000000000F745000094
:10003000F945000000000000FB450000FD45000000
:100040000146000003460000054600000746000088
:10005000094600000B4600000D4600000F46000058
:100060001146000013460000154600001746000028
:10007000194600001B4600001D4600001F460000F8
:1000800021460000234600002546000027460000C8
:10009000294600002B4600002D4600002F46000098
:1000A0003146000033460000354600003746000068
:1000B000394600003B4600003D4600003F46000038
:1000C00041460000434600004546000010B5054C7F
:1000D000237833B9044B13B10448AFF300800123F4
:1000E000237010BD241E0010000000004C580100B9
:1000F00008B5034B1BB103490348AFF3008008BDAB
:1001000000000000281E00104C580100154B002B69
:1001100008BF134B9D46A3F5803A00218B460F463E
:100120001348144A121A08F067FD0F4B002B00D039
:1001300098470E4B002B00D0984700200021040068
:100140000D000D48002802D00C480EF07BFA08F094
:10015000EFF82000290003F073FB04F025FF00BF37
:1001600000000800008000100000000000000000F7
:10017000241E0010242A001045E60000C9F50000E6
:1001800080B58AB000AFF860B9607A603B60002348
:100190003B6107F1140300221A60C3F80320D22345
:1001A0003B74BB681B12DBB27B74BB68DBB2BB74F5
:1001B0007B681B12DBB2FB747B68DBB23B753B6870
:1001C0001B12DBB27B753B68DBB2BB753B6B1B1252
:1001D000DBB2FB753B6BDBB23B767B6BDB1403F076
:1001E0001F037B627B6B9B1203F03F033B627B6BC5
:1001F000DB1003F01F03FB617B6ADBB2DB00DAB2CA
:100200003B6ADB10DBB21344DBB27B763B6ADBB2CA
:100210005B01DAB2FB69DBB21344DBB2BB7607F1F8
:1002200010030B221946F86800F0EBFC00BF2837DA
:10023000BD4680BD80B58AB000AFF860B9607A6015
:100240003B6000233B6107F1140300221A60C3F8EE
:100250000320CF233B74BB681B12DBB27B74BB68EB
:10026000DBB2BB747B681B12DBB2FB747B68DBB256
:100270003B753B681B12DBB27B753B68DBB2BB7521
:100280003B6B1B12DBB2FB753B6BDBB23B767B6BD4
:10029000DB1403F01F037B627B6B9B1203F03F03B5
:1002A0003B627B6BDB1003F01F03FB617B6ADBB2FD
:1002B000DB00DAB23B6ADB10DBB21344DBB27B76E5
:1002C0003B6ADBB25B01DAB2FB69DBB21344DBB23F
:1002D000BB7607F110030B221946F86800F091FC79
:1002E00000BF2837BD4680BD80B58AB000AFF8603A
:1002F000B9607A603B6000233B6107F11403002280
:100300001A60C3F80320CE233B74BB681B12DBB218
:100310007B74BB68DBB2BB747B681B12DBB2FB7403
:100320007B68DBB23B753B681B12DBB27B753B68BD
:10033000DBB2BB753B6B1B12DBB2FB753B6BDBB2FD
:100340003B767B6BDB1403F01F037B627B6B9B12A2
:1003500003F03F033B627B6BDB1003F01F03FB6189
:100360007B6ADBB2DB00DAB23B6ADB10DBB2134440
:10037000DBB27B763B6ADBB25B01DAB2FB69DBB2F4
:100380001344DBB2BB7607F110030B221946F86861
:1003900000F037FC00BF2837BD4680BD80B58AB06D
:1003A00000AFF860B9607A603B6000237B6107F1C1
:1003B000180300210A461A800A469A70CB233B751F
:1003C000BB681B12DBB27B75BB68DBB2BB757B689D
:1003D0001B12DBB2FB757B68DBB23B763B68DB1440
:1003E00003F01F037B623B689B1203F03F033B62F9
:1003F0003B68DB1003F01F03FB617B6ADBB2DB00B1
:10040000DAB23B6ADB10DBB21344DBB27B763B6AC9
:10041000DBB25B01DAB2FB69DBB21344DBB2BB7661
:1004200007F1140307221946F86800F0EAFB00BF41
:100430002837BD4680BD80B58AB000AFF860B9608E
:100440007A603B600021F86800F0AFFB0A21F86891
:1004500000F0ABFBBB681B12DBB21946F86800F07A
:10046000A4FBBB68DBB21946F86800F09EFB7B6812
:100470001B12DBB21946F86800F097FB7B68DBB211
:100480001946F86800F091FB3B681B12DBB2194675
:10049000F86800F08AFB3B68DBB21946F86800F0A8
:1004A0006FFB3B6B1B12DBB21946F86800F068FB70
:1004B0003B6BDBB21946F86800F062FB012004F0E8
:1004C000FFFD00237B623B683A6B02FB03F37A6A11
:1004D0009A4237DA7B6A9B007A6B13441B68DB1401
:1004E00003F01F03FB617B6A9B007A6B13441B685C
:1004F0009B1203F03F03BB617B6A9B007A6B134442
:100500001B68DB1003F01F037B61FB69DBB2DB00C0
:10051000DAB2BB69DB10DBB21344DBB21946F86810
:1005200000F043FBBB69DBB25B01DAB27B69DBB293
:100530001344DBB21946F86800F037FB7B6A0133DD
:100540007B62C0E700233B62FB686833184604F017
:10055000DBFE0346002B0CBF01230023DBB2002B84
:1005600003D0002004F0ACFDEEE7FB6868331846CA
:1005700004F0CAFE0346002B14BF01230023DBB2A4
:10058000002B05D0FB685033184604F09FFF3862FB
:100590003B6A062B02D0152B03D006E001233B62F9
:1005A00006E04FF0FF333B6202E000233B6200BFF6
:1005B00000BF2837BD4680BD80B584B000AF7860ED
:1005C0000B46FB70414B1B783B7307F10D03002278
:1005D0001A807D233B7300237B73FB78BB737B689E
:1005E000FA7883F834207B6893F83530012B06D1F4
:1005F0007B6880229A637B688022DA6305E07B68EF
:1006000080229A637B688022DA63FB78042B30D8DF
:1006100001A252F823F000BF3B060000490600008B
:1006200057060000650600002D0600007B680622C4
:100630001A647B6808225A6421E07B6807221A64E6
:100640007B6808225A641AE07B6808221A647B6877
:1006500008225A6413E07B6808221A647B680C2223
:100660005A640CE07B680C221A647B6810225A647E
:1006700005E07B6808221A647B6808225A647B685C
:100680009A6B7B681B6C7968896C01FB03F392FBA6
:10069000F3F3DAB27B6883F836207B68DA6B7B6829
:1006A0005B6C7968C96C01FB03F392FBF3F3DAB27C
:1006B0007B6883F8372007F10C030322194678681A
:1006C00000F09FFA00BF1037BD4680BDBC46010058
:1006D00080B584B000AF78600B46FB700B4B1B7885
:1006E0003B7307F10D0300221A8077233B7300232D
:1006F0007B73FB78BB7307F10C0303221946786800
:1007000000F07FFA00BF1037BD4680BDBC46010037
:1007100080B584B000AF78600B46FB70144B1B783B
:100720003B7307F10D0300221A807C233B730023E7
:100730007B73FB78BB73FA787B689A647B689A6BEF
:100740007B681B6C7968896C01FB03F392FBF3F304
:10075000DAB27B6883F8362007F10C0303221946CE
:10076000786800F04EFA00BF1037BD4680BD00BF6C
:10077000BC46010080B584B000AF78600B46FB70CA
:10078000144B1B783B7307F10D0300221A807B2367
:100790003B7300237B73FB78BB73FA787B68DA6466
:1007A0007B68DA6B7B685B6C7968C96C01FB03F36F
:1007B00092FBF3F3DAB27B6883F8372007F10C037E
:1007C00003221946786800F01CFA00BF1037BD46B6
:1007D00080BD00BFBC46010080B584B000AF78602A
:1007E0000B46FB701346BB700023BB6000233B73BA
:1007F0007B68FA7883F82C207B68BA7883F82D2000
:10080000E4233B7200237B727B6893F82D30BB722C
:100810000023FB727B6893F82C303B7307F10803CD
:1008200005221946786800F0ECF900BF1037BD4684
:1008300080BD80B588B000AF786039600023FB6070
:1008400000233B747B683A681A637F233B733B68E1
:10085000DB1403F01F03FB613B689B1203F03F03B3
:10086000BB613B68DB1003F01F037B61FB69DBB2FC
:10087000DB00DAB2BB69DB10DBB21344DBB27B73A3
:10088000BB69DBB25B01DAB27B69DBB21344DBB27A
:10089000BB7307F10C0303221946786800F0B1F925
:1008A00000BF2037BD4680BD80B584B000AF786002
:1008B0000B46FB700023BB600023BB81FB781F2B22
:1008C00046D8FB780A2B20D17B68002283F82C20A5
:1008D0007B6893F82D300133DAB27B6883F82D20E2
:1008E000E4233B7200237B727B6893F82D30BB724C
:1008F0000023FB727B6893F82C303B7307F10803ED
:1009000005221946786800F07CF9FB780D2B18D188
:100910007B68002283F82C20E4233B7200237B7247
:100920007B6893F82D30BB720023FB727B6893F8D1
:100930002C303B7307F1080305221946786800F054
:1009400060F9FB780C2B18D1786800F0E3F914E01B
:10095000FE233B7200237B72FB78BB7207F1080316
:1009600003221946786800F04CF97B6893F82C3024
:100970000133DAB27B6883F82C207B6893F82C2053
:100980007B6893F836309A4220D17B68002283F846
:100990002C207B6893F82D300133DAB27B6883F822
:1009A0002D20E4233B7200237B727B6893F82D306B
:1009B000BB720023FB727B6893F82C303B7307F10A
:1009C000080305221946786800F01BF97B6893F844
:1009D0002D207B6893F837309A4218D17B6800222B
:1009E00083F82D20E4233B7200237B727B6893F80D
:1009F0002D30BB720023FB727B6893F82C303B7365
:100A000007F1080305221946786800F0FAF800BFDC
:100A10001037BD4680BD80B483B000AF78603960C8
:100A20003B68002B05D07B68DB687A6852681A60E7
:100A300004E07B681B697A6852681A6000BF0C3753
:100A4000BD4680BC704780B582B000AF7860396029
:100A50007B6801223968184603F0BAFE7B681846A5
:100A60000837BD4680BD80B582B000AF7860396080
:100A70007B6839681846FFF7CEFF00BF0837BD46D0
:100A800080BD80B582B000AF786039603968786821
:100A9000FFF7E9FF7B6818460837BD4680BD80B583
:100AA00082B000AF786039603B68DBB21946786885
:100AB000FFF7FAFE002318460837BD4680BD80B414
:100AC00083B000AF78604FF0FF3318460C37BD4657
:100AD00080BC704780B584B000AFF860B9607A60C0
:100AE0003B60FB680021184604F0C0FC224AFB680A
:100AF0001A60224AFB685A60FB6803F15000002329
:100B00007A68B96804F0BAFBFB68AC3339681846F8
:100B1000FFF799FFFB6868334FF41651184604F04D
:100B2000EBFBFB68AC3301211846FFF7AAFFF8681E
:100B300000F0CEF8F86800F0EDF8FB68002283F8CA
:100B40002C20FB68002283F82D20FB686FF07F4289
:100B50001A63FB68012283F83520FB680122DA64FE
:100B6000FB6801229A640021F868FFF725FDFB6805
:100B700018461037BD4680BDCC4601000047010035
:100B800080B582B000AF78600B46FB707B68503355
:100B9000FA781146184604F08DFC4FF4FA7004F010
:100BA00083FA00BF0837BD4680BD80B582B000AF74
:100BB00078600B46FB707B685033FA781146184614
:100BC00004F078FC00BF0837BD4680BD80B582B018
:100BD00000AF78607B686833184604F095FB0346E5
:100BE000002B14BF01230023DBB2002B05D07B6850
:100BF0005033184604F06AFCECE700BF0837BD46E6
:100C000080BD80B586B000AFF860B9607A6000231F
:100C10003B61F868FFF7DAFFFF21F868FFF7B0FFE4
:100C200000237B617A697B689A4217DA7B690F2B14
:100C300008DC7B69BA6813441B781946F868FFF72B
:100C4000B4FF07E07B69BA6813441B781946F8685B
:100C5000FFF796FF7B6901337B61E3E7FB6868334D
:100C6000184604F051FB0346002B0CBF0123002360
:100C7000DBB2002B03D0002004F022FAEEE7FB6881
:100C80006833184604F040FB0346002B14BF0123D1
:100C90000023DBB2002B05D0FB685033184604F06C
:100CA00015FC38613B69062B02D0152B03D006E0FA
:100CB00001233B6106E04FF0FF333B6102E000237C
:100CC0003B6100BF3B6918461837BD4680BD000038
:100CD00080B582B000AF7860052004F0F1F97B6840
:100CE000AC3300211846FFF7CCFE052004F0E8F9EC
:100CF0007B68AC3301211846FFF7C3FE044804F0BB
:100D0000E5F97868FFF762FF00BF0837BD4680BD90
:100D10000000404080B584B000AF786000233B7392
:100D2000D7233B7307F10C03012219467868FFF7BC
:100D300068FF7B68002283F82D207B68002283F8FF
:100D40002C207B680122DA647B6801229A640021EE
:100D50007868FFF731FC00BF1037BD4680BD00004A
:100D600080B586B000AF78603960A84B1B783B72C5
:100D700007F1090300221A8000217868FFF700FFBD
:100D80000B233B7200237B724FF49C737B613B68A7
:100D90004DF6C022934200F08B804DF6C022934264
:100DA0002DDCB3F5965F6FD0B3F5965F12DCB3F52B
:100DB000167F5DD0B3F5167F05DC6E2B50D0B3F5F2
:100DC000967F51D0A1E0B3F5966F55D0B3F5166F6D
:100DD00056D09AE0B3F5964F61D0B3F5964F06DC46
:100DE000B3F5165F54D0B3F5615F55D08DE047F68B
:100DF0001222934256D0B3F5164F56D085E0844A5E
:100E0000934269D0824A934213DCB3F5FA3F58D03B
:100E1000B3F5FA3F06DCB3F5614F4CD0B3F5E13FD3
:100E20004CD072E0B3F57A3F4ED07A4A93424ED01E
:100E30006BE0794A93425CD0774A934206DC774A6A
:100E400093424ED0764A934250D05EE0754A934228
:100E500055D0754A934255D0744A93424CD054E0D1
:100E600046F687237B6157E042F20F737B6153E0C4
:100E700041F287337B614FE040F6C3137B614BE067
:100E800040F2E1437B6147E04FF41C737B6143E038
:100E90004FF49C737B613FE0CF237B613CE09B235D
:100EA0007B6139E05F237B6136E04D237B6133E07A
:100EB00035237B6130E033237B612DE019237B6197
:100EC0002AE016237B6127E00B237B6124E00A23C1
:100ED0007B61574B3B601FE008237B61554B3B60B8
:100EE0001AE006237B61544B3B6015E004237B61D1
:100EF00012E003237B610FE002237B610CE00123FE
:100F00007B6109E000237B6106E04FF49C737B6109
:100F10004FF416533B6000BF0023FB607868FFF777
:100F200055FE7B691B12DBB27B727B695A42DBB2D6
:100F3000D2B258BF5342DBB2BB72012004F0C0F8FA
:100F400000233B613B69022B0CDC07F108023B6983
:100F500013441B7819467868FFF727FE3B69013375
:100F60003B61EFE700233B613B69092B06DC012075
:100F700004F0A6F83B6901333B61F5E77B68683311
:100F80003968184604F0B8F900233B617B68683380
:100F9000184604F0B9F90346002B06D13B6946F226
:100FA000A712934201DC012300E00023002B06D0AE
:100FB000002004F085F83B6901333B61E6E77B687C
:100FC0006833184604F0A0F90346002B14BF012330
:100FD0000023DBB2002B05D07B685033184604F0A9
:100FE00075FAF860FB68062B02D0152B03D006E0DB
:100FF0000123FB6006E04FF0FF33FB6002E00023BB
:10100000FB6000BF00BF1837BD4680BDC046010071
:10101000D8B80500E0930400B0710B0020A10700D0
:10102000C027090060E31600C0C62D0040420F0033
:1010300057290400151605001B8A060080B582B0EA
:1010400000AF7860094A7B681A60094A7B685A6079
:101050007B685033184600F023F87B68184604F08C
:10106000DFF97B6818460837BD4680BDCC460100D5
:1010700000470100A0F10400E0E700BF80B582B0A6
:1010800000AF78607868FFF7D9FF786804F0A8FEB1
:101090007B6818460837BD4680BDA0F10400EDE727
:1010A00080B582B000AF7860074A7B681A60074A53
:1010B0007B685A607B68184604F0B2F97B68184672
:1010C0000837BD4680BD00BFC04F0100F44F01008E
:1010D000A0F10400E4E700BF80B582B000AF786003
:1010E0007868FFF7DDFF786804F07AFE7B681846C1
:1010F0000837BD4680BDA0F10400EDE780B584B09F
:1011000000AFF860B9607A603B60FB687A68B968E4
:10111000184604F051F8FB683A689A601849194873
:1011200004F0DEF91849174804F0DAF9FA68FB68A8
:101130009B681946104604F04FF8FB683B22DA60C2
:10114000FB683A221A61FB6802221A75012200210B
:10115000F86800F0BAF8FB6803225A7501220021F2
:10116000F86800F09AF80949064804F0B9F9064908
:10117000044804F0B5F9FB6818461037BD4680BD39
:1011800020470100B0240010344701003847010017
:1011900080B483B000AF78607B6818460C37BD46DA
:1011A00080BC704780B582B000AF786001222A21F0
:1011B000786800F0D4F9034618460837BD4680BD6C
:1011C00080B582B000AF7860FE222A21786800F0F6
:1011D0009BF9034618460837BD4680BD80B584B0EC
:1011E00000AF7860084611461A460346FB700B466E
:1011F000BB7013467B70BB69002B0CD07868FFF77F
:10120000DFFF0346002B14BF01230023DBB2002BBA
:1012100001D001233DE00023FB7307F10F02FB78AF
:101220001946786800F033FA0346002B14BF0123F7
:101230000023DBB2002B01D001232AE0FA7BBB782C
:101240001340DBB2FB73FA7B7B781343DBB2FB7397
:10125000FA7BFB781946786800F0ACF90346002B5E
:1012600014BF01230023DBB2002B01D0012310E0C7
:10127000BB69002B0CD07868FFF794FF0346002B66
:1012800014BF01230023DBB2002B01D0012300E0B7
:10129000002318461037BD4680BD80B586B002AF2A
:1012A000F8600B467A60FB72FB68FA7A5A75FA7A34
:1012B0007B6800931346FC220E21F868FFF78EFF2F
:1012C000034618461037BD4680BD80B586B002AFD4
:1012D000F8600B467A60FB72FB68FA7A1A75FB7A43
:1012E0005B00DAB27B6800931346FD222A21F8687E
:1012F000FFF774FF034618461037BD4680BD80B522
:1013000084B000AF786039607B681B7D022B01D10F
:1013100001230EE00323FB607B681B7D002B01D1C2
:101320000623FB60FB683A680121786800F087F9C2
:10133000034618461037BD4680BD80B586B000AF65
:10134000F860B9607A603B6007F110031946F868ED
:10135000FFF7D5FF0346002B14BF01230023DBB2A8
:10136000002B01D001233FE0FB681B7D002B1DD12A
:1013700007F110031946F86800F047F90246BB6808
:101380001A6007F1100302331946F86800F03DF9BE
:1013900002467B681A6007F1100304331946F868A7
:1013A00000F033F902463B681A601CE007F11003B5
:1013B0001946F86800F01CF90246BB681A6007F18C
:1013C000100301331946F86800F012F902467B68F1
:1013D0001A6007F1100302331946F86800F008F9A3
:1013E00002463B681A60002318461837BD4680BD88
:1013F000B0B584B000AFF860B9607A60B86811F039
:101400005FF904460D46786811F05AF902460B461A
:101410002046294611F0E8FA03460C4618462146B4
:101420001037BD46B0BD80B485B000AF78604FF4D2
:101430008063FB607B681B7D012B01D14023FB6037
:101440007B685B7D012B02D0022B06D00CE0FB6891
:10145000DA0F13445B10FB6006E0FB68002B00DA38
:1014600003339B10FB6000BFFB6818461437BD4672
:1014700080BC704790B589B000AFF860B9607A6001
:101480003B600023BB6100237B6100233B6107F1CC
:10149000100307F1140207F11801F868FFF74DFF78
:1014A0000346002B14BF01230023DBB2002B01D025
:1014B000012325E0F868FFF7B6FFF861BB69FA6918
:1014C0001946F868FFF794FF03460C46BA68C2E96C
:1014D00000347B69FA691946F868FFF789FF03460B
:1014E0000C467A68C2E900343B69FA691946F86823
:1014F000FFF77EFF03460C463A68C2E9003400233A
:1015000018462437BD4690BD80B584B000AF7860E2
:101510000B46FB701346BB700023FB7307F10F02F1
:10152000FB781946786800F0B2F80346002B14BF28
:1015300001230023DBB2002B01D000230BE0FA7B58
:10154000BB781340DBB2FB73FA7BFB7819467868F3
:1015500000F030F8034618461037BD4680BD80B510
:1015600084B000AF78600B46FB701346BB7000235D
:10157000FB7307F10F02FB781946786800F087F8D3
:101580000346002B14BF01230023DBB2002B01D044
:1015900000230BE0FA7BBB781343DBB2FB73FA7BCF
:1015A000FB781946786800F005F8034618461037AE
:1015B000BD4680BD80B586B002AF78600B46FB703B
:1015C0001346BB7000233B7300237B73FB783B7394
:1015D000BB787B73786807F10C0200230093022329
:1015E0003A2103F013FE034618461037BD4680BD6E
:1015F00080B483B000AF786039603B681B785BB221
:1016000018460C37BD4680BC704780B485B000AF2B
:10161000786039600023FB8107F10E0301333A68DB
:1016200012781A7007F10E033A6852781A70B7F9F7
:101630000E301B1118461437BD4680BC704780B56C
:1016400086B002AFF8607A603B600B46FB72F868C8
:1016500007F10B020123009301233A2103F0D6FD89
:101660000346002B14BF01230023DBB2002B01D063
:10167000012308E0F868002300933B687A683A2168
:1016800003F0DCFD034618461037BD4680BD80B52B
:1016900084B000AFF8600B467A60FB72F97A0123E0
:1016A0007A68F868FFF7CBFF034618461037BD4647
:1016B00080BD000080B586B002AFF860B9607A6086
:1016C0003B603B68032B37D801A252F823F000BFE0
:1016D000E1160000F71600000D17000023170000A8
:1016E000174B01930B2300930B23BA68F968154835
:1016F000FEF7A1FE20E0144B01930B2300930B2374
:10170000BA68F9680F48FEF796FE15E00F4B019393
:101710000B2300930B23BA68F9680A48FEF78BFE87
:101720000AE00B4B01930B2300930B23BA68F96873
:101730000448FEF780FE00BF00BF1037BD4680BDE5
:10174000CC000010EC23001008220010401E0010F6
:101750002420001080B586B002AFF860B9607A60CE
:101760003B603B68002B0AD01A4B01930B2300937C
:101770000B23BA68F9681848FEF75DFE27E07B681E
:10178000012B0ED0022B17D0002B20D1134B01932D
:101790000B2300930B23BA68F9680F48FEF74BFE42
:1017A00015E00F4B01930B2300930B23BA68F968E4
:1017B0000948FEF740FE0AE00A4B01930B23009311
:1017C0000B23BA68F9680448FEF735FE00BF1037EE
:1017D000BD4680BD080E0010EC2300105C08001010
:1017E000400A0010240C001080B500AF06490748DD
:1017F00000F054F80649054800F01CF80549044873
:1018000000F082F800BF80BD401E0010CC00001028
:10181000082200102420001080B500AF03490448BE
:1018200000F0A8F8FFF7E0FF00BF80BDCC0000107B
:10183000B002001080B485B000AF7860396000233A
:10184000FB60FB680A2B24DC0023BB60BB680A2B0F
:101850001BDCBA6813469B0013445B001A44FB6808
:1018600013449B007A68D118FA6813469B0013440E
:101870005B001A44BB6813449B003A6813440A682F
:101880001A60BB680133BB60E0E7FB680133FB60B3
:10189000D7E700BF1437BD4680BC704780B485B021
:1018A00000AF786039600023FB60FB680A2B26DC00
:1018B0000023BB60BB680A2B1DDCFA6813469B0043
:1018C00013445B001A44BB6813449B007A68D11828
:1018D000FA6813469B0013445B00134403F10A02A9
:1018E000BB68D31A9B003A6813440A681A60BB6845
:1018F0000133BB60DEE7FB680133FB60D5E700BF67
:101900001437BD4680BC704780B485B000AF7860A6
:1019100039600023FB60FB680A2B26DC0023BB60D8
:10192000BB680A2B1DDCFA6813469B0013445B005E
:101930001A44BB6813449B007A68D118FB68C3F152
:101940000A0213469B0013445B001A44BB6813440D
:101950009B003A6813440A681A60BB680133BB6095
:10196000DEE7FB680133FB60D5E700BF1437BD46F7
:1019700080BC704780B485B000AF786039600023C8
:10198000FB60FB680A2B24DC0023BB60BB680A2BCE
:101990001BDCFA6813469B0013445B001A44BB68C7
:1019A00013449B007A68D118FA6813469B001344CD
:1019B0005B001A44BB6813449B003A6813440A68EE
:1019C0001A60BB680133BB60E0E7FB680133FB6072
:1019D000D7E700BF1437BD4680BC704780B584B0E0
:1019E00002AF786039607B6803F10A013B680A3313
:1019F0000022019200930B463A6879680348FEF78B
:101A000073FC00BF0837BD4680BD00BFEC2300104B
:101A100080B584B002AF78603960074B01930B2327
:101A200000930B233A6879680448FEF704FD00BF71
:101A30000837BD4680BD00BF94040010EC230010A1
:101A400080B584B002AF78603960074B01930B23F7
:101A500000930B233A6879680448FEF7ECFC00BF5A
:101A60000837BD4680BD00BF78060010EC2300108B
:101A700080B584B002AF786039607B6803F10A01F9
:101A80003B680A330022019200930B463A6879685A
:101A90000748FEF729FC7B68591D3B685A1D6FF00B
:101AA0007F430348FEF77AFC00BF0837BD4680BD80
:101AB000EC23001080B584B002AF78603960074B2A
:101AC00001930B2300930B233A6879680448FEF7CF
:101AD000B2FC00BF0837BD4680BD00BFEC0F001050
:101AE000EC23001080B584B002AF78603960074BFA
:101AF00001930B2300930B233A6879680448FEF79F
:101B00009AFC00BF0837BD4680BD00BFD011001051
:101B1000EC23001080B584B002AF786039607B6838
:101B200003F10A013B680A330022019200930B463D
:101B30003A6879680B48FEF7D7FB3B68191D7B684C
:101B400003F10A003B680633074A019200930346FB
:101B50000A4679680348FEF7C7FB00BF0837BD4651
:101B600080BD00BFEC23001000FFFF0080B586B0F1
:101B700002AFF860B9607A603B60FF2301930923EC
:101B800000937F23092200213548FEF7F9FA7B688C
:101B9000002B0BD04FF47F030193082300937F2386
:101BA000002200212E48FEF79FFB09E0002301934D
:101BB000082300937F23002200212948FEF794FB8D
:101BC000002200212648FEF707FE6FF07F412448DF
:101BD000FEF72FFE00212248FEF7EEFC00212048F0
:101BE000FEF776FD01211E48FEF792FD01211C48FB
:101BF000FEF7C0FD3B68002B08D1BB690093BB68B2
:101C0000FA681849164803F06BFC24E03B68012B86
:101C100021D13B6A022B06D1BB68FA6812491048F1
:101C200003F05EFC17E0FB69002B0ED0FB690F4A46
:101C300082FB03129210DB17D31A0093BB68FA6879
:101C40000B49074803F04CFC05E0BB68FA680949FA
:101C5000034803F045FC00BF1037BD4680BD00BF00
:101C6000EC230010784901008C4901006766666624
:101C70009C490100B049010080B584B002AF786092
:101C8000FF230193762300937F23762200211B48B4
:101C9000FEF776FA002301937F2300937F237722B8
:101CA00000211648FEF720FB0F2200211348FEF703
:101CB00093FD6FF07F411148FEF7BBFD00210F48F7
:101CC000FEF77AFC00210D48FEF702FD01210B48CA
:101CD000FEF71EFD01210948FEF74CFD7B68002B35
:101CE00001D0074B00E0074B1A460749034803F0B1
:101CF000F7FB00BF0837BD4680BD00BFEC230010D6
:101D0000BC490100C4490100CC49010080B582B042
:101D100002AF154B01930E2300937F23092200216C
:101D20001248FEF7E1FA104B01937223009302234D
:101D30000D2200210D48FEF7D7FA0B4B01937523B6
:101D400000937F23722200210848FEF7CDFA064B4C
:101D50000193752300937F230E227C210348FEF715
:101D6000C3FA00BFBD4680BD00FFFF00EC2300109A
:101D700080B582B000AF02212C48FEF7C9FC0221D9
:101D80002A48FEF7F7FC4FF47F012848FEF751FD83
:101D900000212648FEF79CFC022203212348FEF77F
:101DA0001BFD2349214803F09BFB032203211F480D
:101DB000FEF712FD1F491D4803F092FB01211B484D
:101DC000FEF7A6FC01211948FEF7D4FC09220221E6
:101DD0001648FEF701FD1849144803F081FB012164
:101DE0001248FEF775FC02211048FEF791FC022113
:101DF0000E48FEF7BFFC03237B607B68002B11DDE0
:101E0000052204210948FEF7E7FC7A680B490748D8
:101E100003F066FB4FF47A7003F052F97B68013BE4
:101E20007B60EAE700BF0837BD4680BDEC230010A9
:101E3000D4490100D8490100E0490100F0490100FE
:101E400080B500AF02211248FEF762FC0221104863
:101E5000FEF790FC4FF47F410D48FEF7EAFC0021AD
:101E60000B48FEF735FC022203210948FEF7B4FCBB
:101E70000849074803F034FB032203210448FEF716
:101E8000ABFC0549024803F02BFB00BF80BD00BF3F
:101E9000EC230010F4490100FC49010080B483B038
:101EA00000AF78607B685B691A687B685B68134089
:101EB000002B01D0012300E0002318460C37BD465B
:101EC00080BC704780B582B000AF786039607B68B5
:101ED00000223968184602F07BFC7B6818460837F8
:101EE000BD4680BD80B582B000AF78607B68184683
:101EF000FFF7D4FF034618460837BD4680BD80B5BE
:101F000082B000AF78600B46FB707B68FA781146B0
:101F1000184602F047FC00BF0837BD4680BD80B5BB
:101F200082B000AF78607868FFF7DCFF03461846A0
:101F30000837BD4680BD80B582B000AF786039609B
:101F40007B683968184602F0E7FB7B68184608375B
:101F5000BD4680BD80B582B000AF786039607B68D7
:101F60003968184602F0DAFC7B6818460837BD4627
:101F700080BD000080B500AF0D490E48FEF7F0FEB1
:101F80004FF4E1310C4803F0B7F900210B48FFF79B
:101F9000B6FF00210A48FFF7B2FF00210948FFF70A
:101FA000AEFF00210848FFF7AAFF0023184680BDB6
:101FB000C0C62D00EC230010C824001024250010FA
:101FC0003C250010542500106C25001080B582B00F
:101FD00000AF78607B6803F120007B6803F1180292
:101FE0007B6803F1100103464748FFF743FA47486F
:101FF000FFF795FF0346002B05D1454B1B68002BCF
:1020000001D1012300E00023002B03D07B680122D3
:102010001A6002E07B6800221A603C48FFF77FFFED
:102020000346002B0CBF01230023DBB21A46384BBA
:102030001A603848FFF773FF0346002B05D1364B73
:102040001B68002B01D1012300E00023002B03D0EB
:102050007B6801225A6002E07B6800225A602D48AA
:10206000FFF75DFF0346002B0CBF01230023DBB20B
:102070001A46294B1A602948FFF751FF0346002BE7
:1020800005D1274B1B68002B01D1012300E0002361
:10209000002B03D07B6801229A6002E07B6800225B
:1020A0009A601E48FFF73BFF0346002B0CBF01233D
:1020B0000023DBB21A461A4B1A601A48FFF72FFFAB
:1020C0000346002B05D1184B1B68002B01D10123BF
:1020D00000E00023002B03D07B680122DA6002E0DD
:1020E0007B680022DA600F48FFF719FF0346002BD8
:1020F0000CBF01230023DBB21A460B4B1A6000BF52
:1021000078680837BD4680BD0C25001024250010D6
:10211000D02700103C250010D427001054250010B3
:10212000D82700106C250010DC27001080B582B085
:1021300000AF7860054A7B681A607B68184603F038
:102140004FFA7B6818460837BD4680BDB050010085
:1021500080B582B000AF78607868FFF7E7FF7868F5
:1021600003F03EFE7B6818460837BD4680BD80B54B
:1021700082B000AF78607B6808331846FFF7D6FF5F
:102180007B6818460837BD4680BD000080B582B028
:1021900000AF786039607B68012B46D13B684FF611
:1021A000FF72934241D1234B234A24492448FEF72E
:1021B00091FC244A2449224803F0CAFF0023234A01
:1021C0002349244803F05AF81E4A2349214803F0C2
:1021D000BFFF224B224A23492348FEF78FFF194AAB
:1021E0002249214803F0B4FF21492248FFF76AFE43
:1021F00021492248FFF766FE21492248FFF762FE87
:1022000021492248FFF75EFE21492248FFF793FE4D
:1022100021492248FFF79EFE1E49214801F0CAFFCE
:10222000084A20491E4803F093FF00BF0837BD4607
:1022300080BD00BF12C0092001C0092000C00920D4
:10224000EC230010C80000103D10000003C009205E
:1022500002C00920B0240010A1100000A0860100D7
:102260000BC009200AC009200C25001091110000A4
:1022700045C009202425001044C009203C25001039
:1022800043C009205425001042C009206C250010CD
:102290001AC009208425001040C00920882500109C
:1022A000902500106F21000080B500AF4FF6FF7140
:1022B0000120FFF76BFF80BD80B584B000AF786070
:1022C00039600C2006F0D8F8F860FB68002B03D1C9
:1022D0000849094803F004F9FB6800229A60FB688A
:1022E0007A681A60FB683A685A60FB6818461037CB
:1022F000BD4680BD044A0100B024001080B584B002
:1023000000AF786039607B685B6838689847B86070
:102310007B681A68BB689B0013441B68FB60FB6802
:10232000002B0AD0FB681B683A689A4201D1FB680F
:1023300004E0FB689B68FB60F1E700231846103758
:10234000BD4680BD80B584B000AF786039607B68E1
:102350005B6838689847B8607B681A68BB689B0000
:1023600013441B68FB60FB68002B0FD0FB689B6865
:10237000002B0BD0FB689B681B683A689A4201D11E
:10238000FB6804E0FB689B68FB60ECE700231846F1
:102390001037BD4680BD000080B584B000AF7860C6
:1023A00039603B68002B05D11E4806F091FC0120E6
:1023B00002F0FAFD0C2006F05FF8B860BB68002B55
:1023C00003D11949194803F08BF8BB687A685A6041
:1023D000BB683A689A603B689B00184606F04CF868
:1023E0000246BB681A60BB681B68002B03D10E490C
:1023F0000E4803F075F80023FB60FA683B689A42C8
:102400000AD2BB681A68FB689B00134400221A605A
:10241000FB680133FB60F0E7BB6818461037BD4628
:1024200080BD00BF144A0100044A0100B02400101E
:1024300080B588B000AFF860B9607A60B968F868B4
:10244000FFF75CFFF861FB69002B07D0FB695B6855
:102450007B61FB697A685A607B6919E07968B868C2
:10246000FFF72AFFF861FB685B68B8689847B861B6
:10247000FB681A68BB699B0013441A68FB699A6081
:10248000FB681A68BB699B001344FA691A60002351
:1024900018462037BD4680BD80B584B000AF786057
:1024A000396039687868FFF729FFF860FB68002B0E
:1024B00001D1002301E0FB685B6818461037BD4678
:1024C00080BD80B586B000AF786039607B685B689E
:1024D0003868984738617B681A683B699B001344E9
:1024E0001B687B617B69002B25D07B691B683A6880
:1024F0009A4208D17B681A683B699B0013447A6949
:1025000092681A600EE039687868FFF71BFFF86080
:10251000FB68002B11D0FB689B687B617B699A6824
:10252000FB689A607B695B68184605F0ADFF7869C7
:1025300005F0AAFF02E000BF00E000BF1837BD466B
:1025400080BD90B482B000AFC7E900013B687A68F3
:1025500022F00044184621460837BD4690BC70471B
:1025600080B485B000AF786039600023FB60FB6801
:10257000022B27DC1749FA6813465B001344DB0083
:102580000B4414331B68002B18D11249FA68134608
:102590005B001344DB000B441B687A689A420DD140
:1025A0000C49FA6813465B001344DB000B44043308
:1025B0001B683A689A4201D1FB6805E0FB68013369
:1025C000FB60D4E74FF0FF3318461437BD4680BC9C
:1025D000704700BF0C28001080B485B000AF786051
:1025E00039600023FB60FB68022B28DC1749FA687E
:1025F00013465B001344DB000B4414331B68002BB1
:1026000019D11249FA6813465B001344DB000B44EE
:1026100008331B687A689A420DD10C49FA68134650
:102620005B001344DB000B440C331B683A689A428E
:1026300001D1FB6805E0FB680133FB60D3E74FF095
:10264000FF3318461437BD4680BC70470C28001075
:1026500084B0F8B500AF07F1180484E80F007B6A76
:10266000002B01D0012371E03F4BDB693E4A13622E
:10267000BB69002B09D03C4BDB69002B0CBF01234D
:102680000023DBB21A46384BDA61374B5B69364AB6
:102690009361D7E90A3418462146FFF752FF0546F1
:1026A0000E46D7E90C3418462146FFF74AFF0A4682
:1026B000014601231C4613460A462846314610F0BF
:1026C000F9FA0346002B01D100231C46E3B2002B8C
:1026D0001DD0D7E90A0120A3D3E9002310F0CCFADA
:1026E0000346002B04D0204B02225A6103232DE025
:1026F000D7E90A011AA3D3E9002310F0DBFA034655
:10270000002B22D0184B00225A6104231EE0D7E987
:102710000C0111A3D3E9002310F0AEFA0346002BFD
:1027200004D0114B01225A6106230FE0D7E90C01B6
:102730000BA3D3E9002310F0BDFA0346002B04D00D
:10274000094B03225A61052300E000231846BD46C9
:10275000BDE8F84004B070479A9999999999C9BF12
:102760009A9999999999C93FE027001080B58AB044
:1027700000AF786000237B628B4B1B688A4A9360B2
:10278000894B5B68884AD360874B5B6A864A936251
:102790007B68013B052B00F2EA8101A252F823F08D
:1027A000AD2900006F2B0000352800002D29000006
:1027B000B9270000B12800007B4B1A687A4B5B6890
:1027C0001946104601F002FA38623B6A002B08D025
:1027D0003B6A9B68002B04D1734BDB69002B00F034
:1027E000C881714B1A68704B5B68013B19461046F3
:1027F000FFF7B6FE0346002B05DB6B4BDB69002BB6
:1028000001D1012300E00023002B0DD0664B1A6894
:10281000654B5B68013B19461046FFF7A1FE034676
:10282000184600F099FFAFE15F4B5B68013B5E4AE1
:102830005360A9E15C4B1A685B4B5B681946104614
:1028400001F0F4F938623B6A002B08D03B6A9B68C0
:10285000002B04D1544BDB69002B00F08C81524BD0
:102860001B685A1E504B5B6819461046FFF778FEEE
:102870000346002B05DB4C4BDB69002B01D1012308
:1028800000E00023002B0DD0474B1B685A1E464B1F
:102890005B6819461046FFF763FE0346184600F0D2
:1028A0005BFF71E1404B1B68013B3F4A13606BE1EA
:1028B0003D4B1A683C4B5B681946104601F096F98F
:1028C00038623B6A002B08D03B6A9B68002B04D11E
:1028D000354BDB69002B00F05081334B1A68324BCB
:1028E0005B68013319461046FFF73AFE0346002B9A
:1028F00005DB2D4BDB69002B01D1012300E0002318
:10290000002B0DD0284B1A68274B5B680133194602
:102910001046FFF725FE0346184600F01DFF33E181
:10292000214B5B680133204A53602DE11E4B1A682E
:102930001D4B5B681946104601F068F938623B6A26
:10294000002B08D03B6A9B68002B04D1164BDB6937
:10295000002B00F01481144B1B685A1C124B5B684F
:1029600019461046FFF7FCFD0346002B05DB0E4B16
:10297000DB69002B01D1012300E00023002B0DD0E7
:10298000094B1B685A1C084B5B6819461046FFF739
:10299000E7FD0346184600F0DFFEF5E0024B1B683A
:1029A0000133014A1360EFE0E0270010944B1A68EE
:1029B000934B5B681946104601F008F93862904B5A
:1029C0001B68FB618E4B5B68013BBB613B6A002B64
:1029D00003D03B6A1B68002B0FD1894B1A68884BC8
:1029E0005B681946104601F001F93862844B1B6898
:1029F000FB61834B5B680133BB613B6A002B03D0F7
:102A00003B6A1B68002B0FD17D4B1A687C4B5B68BF
:102A10001946104601F00AF93862794B1B68013BF0
:102A2000FB61774B5B68BB613B6A002B03D03B6A61
:102A30001B68002B0FD1724B1A68714B5B681946EB
:102A4000104601F0E3F838626D4B1B680133FB61FF
:102A50006B4B5B68BB613B6A002B1BD03B6A1B68FE
:102A6000032B17D13B6ADB687B617B691B681846C7
:102A700001F028F87B691B68184600F0B3FC7B69FD
:102A80005B685F4A13607B699B685D4A5360022301
:102A90007B626BE03B6A002B0ED03B6A1B68052B08
:102AA0000AD1574B1B69032B60D1B969F86901F052
:102AB000E4F802237B6259E000F0FAFF0346002BA2
:102AC0000CBF01230023DBB2002B5AD04FF0FF33A1
:102AD0003B614B4B1B685A1C494B5B6819461046BF
:102AE000FFF73EFDF860FB68002B01DBFB6800E0B0
:102AF0003B693B61424B1B685A1E414B5B68194660
:102B00001046FFF72DFDF860FB68002B01DBFB682A
:102B100000E03B693B613A4B1A68394B5B68013313
:102B200019461046FFF71CFDF860FB68002B01DB1F
:102B3000FB6800E03B693B61314B1A68304B5B68D6
:102B4000013B19461046FFF70BFDF860FB68002BB0
:102B500001DBFB6800E03B693B613B69002B12DB5A
:102B6000386900F051F802237B620AE009E000BFF7
:102B70000AE000BF08E000BF06E000BF04E000BFBD
:102B800002E000BF00E000BF1D4B1A681C4B5B68F1
:102B90001946104601F05AF838623B6A002B20D0E3
:102BA0003B6A1B68012B1CD1154B5B6A0133144A2D
:102BB0005362134B1A68124B5B681946104601F0BA
:102BC0005CF800F075FF0346012B0CBF01230023C6
:102BD000DBB2002B02D00B4B64221A6002237B6213
:102BE00008E03B6A002B05D03B6A1B68042B01D12F
:102BF00001237B627B6A18462837BD4680BD00BF33
:102C0000E02700105428001080B584B002AF78602F
:102C10007B68002B02D07B68012B06D12E4B1B68F2
:102C200019462E4801F074FA51E07B68022B4ED110
:102C30002B4B1B69002B0AD1294B5B6A002B06DC4E
:102C4000284B1B681946284801F062FA3FE0244BE4
:102C50001B69002B11D1224B01221A61052300931D
:102C6000052301222F21272001F0FEF81F4B1B68AE
:102C700019461F4801F04CFA29E0194B1B69012B3A
:102C800006D11C4B1B6819461B4801F041FA1EE097
:102C9000134B1B69022B0FD1114B03221A61174BE7
:102CA0001B681946164801F033FA02212E2001F064
:102CB0002DF9FEF7B1FD0AE0094B1B69032B06D184
:102CC000104B1B681946104801F022FAFFE700BFBD
:102CD0000837BD4680BD00BFC8130010B4130010F4
:102CE000E0270010E4130010CC13001000140010B3
:102CF000E81300100C14001004140010201400102D
:102D0000101400103014001024140010F0B593B00B
:102D100004AF78607B68002B01D0FEF7F7FF6FF0FF
:102D200004037B637B6B052B00F380816FF003034F
:102D30003B633B6B042B00F375819C4B1B687A6BE8
:102D40001344BB62994B5B683A6B13447B62974BAD
:102D50009B687A6B13443B62944BDB683A6B134479
:102D6000FB617B6B5A1D13469B0013445B001344AD
:102D70000333BB613B6B1A1D13469B0013445B007E
:102D800013440F337B610023FB627B6B002B15D157
:102D90003B6B002B12D17B68002B06D1834B5A6909
:102DA000824B9B699A4200F03681804B1A697F4BB7
:102DB0005B697969B869FEF77DFC2CE1BB6A002B81
:102DC00010DB7B6A002B0DDB00F0E4FE0246BB6AE1
:102DD000934207DA00F0E6FE02467B6A934201DA8C
:102DE000012300E00023002B00F00881796AB86A13
:102DF000FFF7B6FB38613B69DB43DB0FDBB2002B2F
:102E000042D07B68002B2FD1BA6A3B6A9A422BD101
:102E10007A6AFB699A4227D165493A6913465B0091
:102E20001344DB000B44196861483A6913465B00A0
:102E30001344DB00034408331B68994214D15C49F6
:102E40003A6913465B001344DB000B4404331968F2
:102E500057483A6913465B001344DB0003440C33C4
:102E60001B68994200F0D98051493A6913465B00CA
:102E70001344DB000B4410331A684E4B1B6879690E
:102E8000B869FEF767FCC8E0F969386AFFF768FBC4
:102E900038613B69002B0CDB7B68002B07D1BA6AD9
:102EA0003B6A9A4203D17A6AFB699A4201D00123B4
:102EB00000E00023002B02D03F4BFB6283E0796AE5
:102EC000B86AFFF789FB38613B69002B2BDB7B6815
:102ED000002B26D136493A6913465B001344DB00C8
:102EE0000B44196832483A6913465B001344DB000F
:102EF000034408331B68994213D12D493A6913469C
:102F00005B001344DB000B440433196828483A691A
:102F100013465B001344DB0003440C331B689942E7
:102F200001D0012300E00023002B02D0224BFB62E2
:102F300049E0F969386AFFF74FFB38613B69002BBC
:102F40003CDB7B68002B2ED1BA6A3B6A9A422AD1BD
:102F50007A6AFB699A4226D115493A6913465B00A1
:102F60001344DB000B44196811483A6913465B00AF
:102F70001344DB00034408331B68994213D10C4906
:102F80003A6913465B001344DB000B4404331968B1
:102F900007483A6913465B001344DB0003440C33D3
:102FA0001B6899420AD0012309E000BFE027001006
:102FB0000C28001054280010DD1900000023002BFD
:102FC00001D0404BFB62796AB86A00F03FFEF860BE
:102FD000F969386A00F03AFEB8607B68002B03D1CB
:102FE000FA68BB689A420ED0FB68002B03D0FB68DE
:102FF0005B68FB6207E0334BFB6204E07B68002BFD
:1030000001D0314BFB62FB6A002B07D0FB6A796968
:10301000B869984702E000BF00E000BF3B6B013396
:103020003B6386E67B6B01337B637BE6274B1A6849
:10303000264B9B689A4220D1244B5A68234BDB686D
:103040009A421AD1214BDA69204B1B6A9A4214D159
:103050001E4B5A6A1D4B9B6A9A420ED11C4B196833
:103060001C4B83FB01239A10CB17D21A13469B00EB
:1030700013445B00CA1A092A16D1144B1C68134B5F
:103080005D68124BDE6900F013FD104B5B6A104A5D
:1030900012680E4909690291019200930346324673
:1030A00029462046FEF762FD7B68002B05D000F024
:1030B000FFFC03461846FEF7DFFD00BF3C37BD4668
:1030C000F0BD00BFDD190000111A0000E02700105C
:1030D000542800106766666690B585B000AF002082
:1030E00000F0F0FC0523FB60FB68312B10DC0523AE
:1030F000BB60BB68312B07DCB968F86800F078FE6C
:10310000BB680533BB60F4E7FB680533FB60EBE7A6
:1031100000F040FD034603337B6000F04BFD0246A8
:103120007B689342B4BF01230023DBB2002B16D08F
:1031300000F030FD02467B6893FBF2F102FB01F2E6
:103140009C1A00F027FD02467B6893FBF2F31946B8
:10315000204600F011FE7B6882337B60DDE70123AF
:1031600000220021002000F0AFFD052301220121F3
:103170002B2000F0A9FD0323002206212B2000F0C4
:10318000A3FD0323002206212F2000F09DFD062130
:103190002E2000F0F7FE8849884802F0A1F900F0DF
:1031A000A1FC012000F08EFC012300220021002060
:1031B00000F08AFD0223012201210B2000F084FD92
:1031C0000223012214210B2000F07EFD02230022A5
:1031D0000B21012000F078FD022300220A21142097
:1031E00000F072FD022300220C21142000F06CFD7F
:1031F000022300220421082000F066FD02230022A1
:1032000004210D2000F060FD02230022122108207D
:1032100000F05AFD0223002212210D2000F054FD7F
:103220000423012204210B2000F04EFD042301227F
:103230000F210B2000F048FD032300220221022071
:1032400000F042FD042300220221062000F03CFD94
:103250000423002202210D2000F036FD032300226A
:103260000221122000F030FD03230022142102204D
:1032700000F02AFD042300221421062000F024FD82
:103280000423002214210D2000F01EFD0323002240
:103290001421122000F018FD06230122042106202B
:1032A00000F012FD022300220621082000F00CFD90
:1032B000062301220421102000F006FD0223002233
:1032C00006210D2000F000FD062301220D2106201D
:1032D00000F0FAFC022300221021082000F0F4FC88
:1032E000062301220D21102000F0EEFC0223002213
:1032F00010210D2000F0E8FC03230122042103200B
:1033000000F0E2FC022301220821032000F0DCFC93
:10331000032301220421132000F0D6FC0123012203
:103320000821132000F0D0FC0323012210210320E8
:1033300000F0CAFC022301220D21032000F0C4FC8E
:10334000032301221021132000F0BEFC01230122DF
:103350000E21132000F0B8FC0723002209210820C9
:1033600000F0B2FC072300220D21082000F0ACFC85
:10337000032301220A21082000F0A6FC03230122D6
:103380000A210E2000F0A0FC032300220B210420C0
:1033900000F09AFC032300220B21102000F094FC83
:1033A00000F010F80649054802F09AF800F09AFB80
:1033B00000BF1437BD4690BDE84B0100B02400109B
:1033C000F44B010080B500AF1521032000F0D4FCC0
:1033D0001521132000F0D0FC0121132000F0CCFCBB
:1033E00000BF80BD80B483B000AF7860344B002252
:1033F0001A61334B01229A62314B02221A64304B1C
:1034000000225A612E4B0022DA622D4B00225A64B0
:103410002C4B00221A607B68002B24D1284B0722FA
:103420001A60274B06225A60254B07229A60244BCC
:103430000622DA60224B13229A61214B0F22DA61B5
:103440001F4B13221A621E4B0F225A621C4B2A2258
:103450001A631B4B2F225A63194B2A229A63184B6B
:103460002F22DA6326E07B68012B23D1144B05223F
:103470001A60134B11225A60114B05229A60104BAF
:103480001122DA600E4B11229A610D4B0522DA618E
:103490000B4B11221A620A4B05225A62084B112269
:1034A0001A63074B11225A63054B11229A63044B8E
:1034B0001122DA6300BF0C37BD4680BC704700BFE5
:1034C0000C2800105428001090B587B000AF0023DE
:1034D000BB6000233B610023FB60FB68022B00F311
:1034E00031819A49FA6813465B001344DB000B44B0
:1034F00014331B68002B40F020819449FA6813466E
:103500005B001344DB000B4419689048FA681346CB
:103510005B001344DB000344083319608B49FA68ED
:1035200013465B001344DB000B44043319688748DF
:10353000FA6813465B001344DB0003440C33196044
:10354000834B19688148FA6813465B001344DB001B
:1035500003441B68CB1A7B607E4B1B68002B02D098
:103560007B685B4200E07B687B60794B59687748F9
:10357000FA6813465B001344DB00034404331B6802
:10358000CB1ABB60734B1B68002B02D0BB685B423D
:1035900000E0BB68BB606D49FA6813465B001344EA
:1035A000DB000B441C68786800F036F903462344BE
:1035B0007B616649FA6813465B001344DB000B44E9
:1035C00004331B681946786900F040FB0346002B62
:1035D0000FD15E49FA6813465B001344DB000B44CD
:1035E00004331B6819467869FEF7BAFF0346002BBF
:1035F00001DB012300E00023002B02D04FF0FF335A
:103600007B615249FA6813465B001344DB000B44AC
:1036100004331C68B86800F0FFF8034623443B619C
:103620004A49FA6813465B001344DB000B441B68ED
:103630003969184600F00AFB0346002B0ED14349B6
:10364000FA6813465B001344DB000B441B683969BE
:103650001846FEF785FF0346002B01DB012300E03F
:103660000023002B02D04FF0FF333B617B69002B1E
:103670000CDB3B69002B09DA3449FA6813465B001E
:103680001344DB000B447A691A6039E07B69002B34
:103690000DDA3B69002B0ADB2C49FA6813465B0004
:1036A0001344DB000B4404333A691A6028E07B6959
:1036B000002B25DB3B69002B22DB786803F06AFED8
:1036C0000446B86803F066FE03469C42CCBF012363
:1036D0000023DBB2002B09D01C49FA6813465B00BB
:1036E0001344DB000B447A691A6009E01749FA6851
:1036F00013465B001344DB000B4404333A691A6041
:103700001249FA6813465B001344DB000B441A6845
:103710000F4B1B689A4211D10C49FA6813465B00A3
:103720001344DB000B4404331A68094B5B689A426C
:1037300004D1F86800F010F800E000BFFB68013326
:10374000FB60CAE600BF1C37BD4690BD0C280010C8
:10375000E02700105428001080B586B002AF7860D2
:1037600000F0A6F90346012B14BF01230023DBB2AE
:10377000002B46D1254B1B68002B0ED1FEF7F8FA23
:103780000120FFF72FFE224B05225A60204B5B6879
:103790001F4A1360FFF716FE2FE01E497A68134692
:1037A0005B001344DB000B44143301221A60002336
:1037B000FB600023BB60BB68022B10DC1549BA68B4
:1037C00013465B001344DB000B4414331B68002BCF
:1037D00001D10123FB60BB680133BB60EBE7FB68F1
:1037E000002B0AD12F230093262300220B21152022
:1037F00000F03AFB064B02221A610120FFF786FA1D
:1038000000E000BF1037BD4680BD00BF5428001047
:10381000E02700100C28001080B483B000AF78605F
:103820007B68002BCCBF01230023DBB21A467B68E8
:10383000DB0FDBB2D31A18460C37BD4680BC70478D
:10384000B0B598B006AFFEF795FB0346002B14BF4A
:1038500001230023DBB2002B05D0484A48494948E0
:1038600001F03EFEFEE700F0E7F8FFF735FCFDF75C
:10387000BBFF002000F026F90020FFF7B3FD424B0C
:1038800005225A60404B5B683F4A13603E4B002262
:10389000DA613D4BDB693C4A93613B4B9B693A4A99
:1038A0005361394B5B69384A13610120FFF72EFAE7
:1038B00000237B6407F12C03184601F06FFE07F12B
:1038C0002C03184601F030FE3B461846FEF77EFBFF
:1038D0006D4607F110040FCC0FC594E8030085E88E
:1038E00003003B460FCBFEF7B3FE3864386CFEF79F
:1038F0003DFFF863254B1B68002B04D0234B1B684E
:10390000013B224A136000F0D3F80346012B04D197
:103910007B6C002B01D1012300E00023002B01D0A0
:10392000FFF7D2FDF86BFFF7F1F9FB6B012B03D129
:10393000FEF786FA00231CE07B6C01337B647B6C12
:10394000022B01DD00237B6407F12C03184601F0F4
:1039500013FE07F12C03184601F000FEB863BB6BA1
:10396000632BA7DCBB6BC3F16403184601F0A8FB13
:10397000A0E718464837BD46B0BD00BF004C010067
:10398000184C0100B0240010E0270010542800104B
:1039900080B582B000AF786039607B68002B10D0B2
:1039A00000F0F8F80346013B7A689A4209D03B6878
:1039B000002B06D000F0F6F80346013B3A689A4225
:1039C00001D1012300E00023002B01D0002307E0F8
:1039D00000F0E0F802463B6803FB02F27B68134408
:1039E00018460837BD4680BD80B483B000AF78600C
:1039F0007A68064BA3FB02135B09642101FB03F306
:103A0000D31A18460C37BD4680BC70471F85EB5152
:103A100080B483B000AF78607A68064BA3FB0213D2
:103A20001B09322101FB03F3D31A18460C37BD469C
:103A300080BC70471F85EB5180B500AF64210F48F3
:103A4000FEF7AAFC02460E4B1A600D4B32225A605A
:103A50000B4B32229A6032210A48FEF79DFC024647
:103A6000074BDA60064B17221A61054B17225A6181
:103A7000054B00221A6000BF80BD00BFE93900007D
:103A800058280010113A00007028001080B400AFD0
:103A9000054B1A6813465B0013449B00034A13440A
:103AA0001846BD4680BC704770280010582800108A
:103AB00080B400AF024B1B681846BD4680BC7047FF
:103AC0007028001080B582B000AF7860044A7B682F
:103AD0001360FFF7DBFF034618460837BD4680BD7D
:103AE0007028001080B586B000AF254A3B1D92E8D3
:103AF000030018600433198000237B6100F052F842
:103B000002467B699342B4BF01230023DBB2002B42
:103B100031D000233B6100F03DF802463B699342FF
:103B2000B4BF01230023DBB2002B1CD079693869B4
:103B300000F08CF8F860FB68002B0CD0FB681B6869
:103B400007F11802134413F8143C1A460D490E48A5
:103B500001F0C6FC03E00D490B4801F0C1FC3B69D4
:103B600001333B61D7E70A49074801F0B9FC7B699B
:103B700001337B61C2E700BF1837BD4680BD00BF7F
:103B8000304C0100244C0100B0240010284C0100EE
:103B90002C4C010080B500AFFFF778FF03465B684F
:103BA000184680BD80B500AFFFF770FF03469B68E5
:103BB000184680BD98B500AFFFF7ECFF0446FFF74D
:103BC000F1FF034603FB04F3184698BD80B582B0AD
:103BD00000AF786039603B68013B1946786800F0B7
:103BE00035F8034618460837BD4680BD80B582B01B
:103BF00000AF786039603B6801331946786800F09F
:103C000025F8034618460837BD4680BD80B582B00A
:103C100000AF786039607B6801333968184600F07E
:103C200015F8034618460837BD4680BD80B582B0FA
:103C300000AF786039607B68013B3968184600F056
:103C400005F8034618460837BD4680BD90B583B0D9
:103C500000AF78603960FFF719FF03461C683968C8
:103C60007868FFF795FE034619462046FEF714FCD8
:103C7000034618460C37BD4690BD90B585B000AFE1
:103C80007860396039687868FFF7E0FFF860FB68B2
:103C9000002B08D0FB68DB68002B04D0FB68DB68D6
:103CA000184604F0F1FBFFF7F1FE03461C68396883
:103CB0007868FFF76DFE034619462046FEF701FCC3
:103CC00000BF1437BD4690BD80B588B000AFF86026
:103CD000B9607A603B600023FB61FA693B689A42F5
:103CE0003FDA102004F0C8FBB861BB69002B03D198
:103CF0001E491F4801F0F4FBBB6900221A60BB6932
:103D00001C4A5A60BB6900229A60BB690022DA60D3
:103D10007B68002B08D1FA68FB691344B968184620
:103D2000FFF736FE034607E0BA68FB6913441946FD
:103D3000F868FFF72DFE03467B61FFF7A7FE0346F9
:103D40001B68BA6979691846FEF772FB38613B69EE
:103D5000002B02D0386904F097FBFB690133FB614B
:103D6000BBE700BF2037BD4680BD00BF384C010017
:103D7000B0240010111A000090B585B000AF786033
:103D80003960102004F078FBF860FB68002B03D149
:103D90001449154801F0A4FBFB6801221A60FB6876
:103DA000124A5A60FB6801229A60FB680022DA60BE
:103DB000FFF76CFE03461C6839687868FFF7E8FD7A
:103DC0000346FA6819462046FEF732FBB860BB6826
:103DD000002B02D0B86804F057FB00BF1437BD4673
:103DE00090BD00BF384C0100B0240010411A000003
:103DF00090B585B000AF78603960102004F03CFBCE
:103E0000F860FB68002B03D11449154801F068FBEA
:103E1000FB6802221A60FB68124A5A60FB680122A2
:103E20009A60FB680022DA60FFF730FE03461C68E8
:103E300039687868FFF7ACFD0346FA6819462046F2
:103E4000FEF7F6FAB860BB68002B02D0B86804F041
:103E50001BFB00BF1437BD4690BD00BF384C0100AE
:103E6000B0240010711A000090B589B000AFF8605E
:103E7000B9607A603B60102004F0FEFAF861FB69DB
:103E8000002B03D11E491F4801F02AFBFB690322C6
:103E90001A60FB691C4A5A60FB6900229A600C2078
:103EA00004F0EAFAB861BB69002B03D11449154844
:103EB00001F016FBBB697A681A60BB693A685A6000
:103EC000BB693A6B9A60FB69BA69DA60FFF7DEFD9D
:103ED00003461C68B968F868FFF75AFD0346FA699B
:103EE00019462046FEF7A4FA78617B69002B02D0C0
:103EF000786904F0C9FA00BF2437BD4690BD00BF01
:103F0000384C0100B0240010B51A000090B585B0FF
:103F100000AF78603960102004F0AEFAF860FB68FA
:103F2000002B03D11449154801F0DAFAFB6804228A
:103F30001A60FB68124A5A60FB6801229A60FB68AB
:103F40000022DA60FFF7A2FD03461C683968786832
:103F5000FFF71EFD0346FA6819462046FEF768FA89
:103F6000B860BB68002B02D0B86804F08DFA00BFBF
:103F70001437BD4690BD00BF384C0100B02400107E
:103F8000E51A000090B585B000AF78603960102068
:103F900004F072FAF860FB68002B03D1144915484D
:103FA00001F09EFAFB6805221A60FB68124A5A600B
:103FB000FB6800229A60FB680022DA60FFF766FD6A
:103FC00003461C6839687868FFF7E2FC0346FA6824
:103FD00019462046FEF72CFAB860BB68002B02D0C9
:103FE000B86804F051FA00BF1437BD4690BD00BF59
:103FF000384C0100B0240010151B000080B582B0C1
:1040000002AF6FF07F4301937F2300937F235E22F3
:1040100000210848FCF768F9FF2301937F230093F0
:104020007F235E2200210348FCF704F900BFBD4650
:1040300080BD00BFEC23001080B582B002AF00232A
:1040400001937F2300937F235E2200210248FCF727
:104050004BF900BFBD4680BDEC23001080B582B097
:1040600000AF786039603B68DBB20D33DBB21A46D3
:1040700001210B48FCF7B0FB0A490948FCF7D9FBC2
:1040800000210748FCF798FA00210548FCF720FBBF
:104090007968034801F024FA00BF0837BD4680BDA7
:1040A000EC2300105F5F5F00B0B594B000AF3B46FB
:1040B0001846FDF78BFF07F128043D460FCD0FC4CE
:1040C0000FCD0FC495E8030084E80300142000F02E
:1040D000F7FF7B6B002B00D1E9E700BF5037BD46EF
:1040E000B0BD80B582B000AF78603960FFF786FF61
:1040F00000217868FFF7B2FF01213868FFF7AEFFB3
:10410000FFF7D2FFFFF798FF00BF0837BD4680BD1D
:1041100080B584B000AF786039600023FB60FA6836
:104120003B689A4218DAFB689B007A681344186867
:10413000FB6801333A689A4206D0FB6801339B0062
:104140007A6813441B6800E0054B1946FFF7C9FF66
:10415000FB680233FB60E2E700BF1037BD4680BD5D
:10416000484C010080B582B000AF78600B467B8080
:104170007B687A881146184600F0FEFA00BF0837BF
:10418000BD4680BD80B582B000AF78607B681846C0
:1041900001F010FA064A7B681A607B68143300212C
:1041A000184600F0F9FF7B6818460837BD4680BD09
:1041B000B050010080B582B000AF786039607B6894
:1041C00008331846FFF7DEFF7B683A685A607B6861
:1041D0005B684FF400411846FFF7C4FF7B6800227C
:1041E0001A607B6818460837BD4680BD4FF46D43A2
:1041F000CEF20003F0B49F689A683B46BAB953F810
:10420000045B4FF08054C43725601A4652F8046BA3
:10421000251D66605C68131D6C602C1DBB42F4D1CB
:104220004FF46D424FF08053CEF200029360103095
:1042300043F82010F0BC7047036870B500211D6979
:1042400001220446A847431C05460ED021680222DD
:104250000E6920460021B0472268064613692046B1
:10426000294600229847304670BD0646FBE700BF4E
:104270000D4B0E4A30B4026003F58074002501E056
:10428000A3420FD01A4652F8041B814208BF42F8DD
:10429000045C134653F8042B8242F1D1A34243F845
:1042A000045CEFD130BC704774280010884C0100CA
:1042B00038B50F4A0F4B04460260002503F58070A5
:1042C00001E083420FD01A4652F8041B8C4208BF0B
:1042D00042F8045C134653F8042B9442F1D1834214
:1042E00043F8045CEFD1204601F07AFD204638BD4A
:1042F000884C010074280010074B186800B1704703
:104300004CF202014CF203020448C2F20901C2F26B
:10431000090200F0CFBC00BF78290010F42900107A
:10432000F0B50F4685B03049064605F041F9044620
:10433000002836D030462D4905F03AF960B33046B2
:104340002B4905F035F900282FD02A48002406E033
:104350005D680134181D35B10134402C29D0456801
:10436000031D002DF4D131783A2936D002A8314608
:1043700000F0BAFE02A800F009FFD0B102A800F0D8
:10438000F1FEC8B102A800F0F7FE03468BB11A494E
:10439000E01C41F8243002E0FFF7AEFF012005B039
:1043A000F0BDFFF7A9FF2046F9E7FFF7A5FF0220C0
:1043B000F5E74FF0FF30F2E702A800F0CBFE05462C
:1043C0000028F6D0026802A8966800F0B7FE3A46C8
:1043D00001462846B0470346D8E73046074901AAB8
:1043E00005F074F8019BD1E74C4C0100704C0100C2
:1043F000544C01007028001074280010B04C0100CB
:10440000022808B50BDD084BC21E53F8220000211C
:1044100043F8221028B103685A68904708BD00206D
:1044200008BD4FF0FF3008BD742800100228F8B511
:104430000D46174628DC1D490A68002A2DD00FB307
:104440002C46EE1914F8011BED43AB19184803F084
:10445000010500F099FDB44214D035B114F8011BE8
:10446000134800F091FDB4420CD0254615F8011B0D
:104470000F4800F089FD61780D486C1C00F084FD48
:10448000B442F2D13846F8BD0A4B033853F8200045
:1044900040B103681B689847F8BDFFF72DFF002F58
:1044A000CED1EFE74FF0FF30F8BD00BF7829001004
:1044B000F429001074280010022810B50C460ADDFB
:1044C0000A4B033853F8200060B103689B68984793
:1044D0000146084610BD064800F050FD012120703D
:1044E000084610BD4FF0FF31F3E700BF74280010FD
:1044F000F4290010022808B508DD074B033853F8EB
:10450000200028B10168CA68904708BD012008BD95
:104510004FF0FF3008BD00BF74280010022808B516
:1045200008DD074B033853F8200028B103681B69E6
:10453000984708BD002008BD4FF0FF3008BD00BF00
:1045400074280010022808B504D84FF400504860C1
:10455000002008BD02F028FF092303604FF0FF3060
:1045600008BD00BF08B541F26043C1F200031868FE
:1045700044F6B441C068C0F2010103F0E5F901203E
:1045800000F012FD08B5012000F00EFD084A136886
:104590001818EFF30881884202D21060184670475D
:1045A000044B0C221A604FF0FF331846704700BFCF
:1045B00034140010202A00100749084A084B9A4278
:1045C000BEBF51F8040B42F8040BFFF7F8BF0548D3
:1045D0008047054800470000A05A0100C8000010AD
:1045E000241E0010494600000D010000FEE7FEE712
:1045F000FEE7FEE7FEE7FEE7FEE7FEE7FEE7FEE793
:10460000FEE7FEE7FEE7FEE7FEE7FEE7FEE7FEE782
:10461000FEE7FEE7FEE7FEE7FEE7FEE7FEE7FEE772
:10462000FEE7FEE7FEE7FEE7FEE7FEE7FEE7FEE762
:10463000FEE7FEE7FEE7FEE7FEE7FEE7FEE7FEE752
:10464000FEE7FEE7FEE700BF4FF44042C4F20F0270
:10465000202330B4C2F8A031D2F8A001800651D492
:104660004FF44043C4F20F0300250221C3F80411A4
:104670000124C3F8A851AA20C3F8AC5155220B2538
:10468000C3F80C411946C3F88450C3F88C00C3F832
:104690008C20C3F88040C3F88C00C3F88C20D1F87C
:1046A00088004FF440434201C4F20F03F7D50322C0
:1046B000C3F88020AA205522C3F88C001946C3F8FD
:1046C0008C20D1F888004FF4404310F0407FC4F2B2
:1046D0000F03F6D048F2DE72C0F228420521002016
:1046E000C3F80811C3F8C420C3F8C8011A6822F43B
:1046F000704121F03A0040F4405242F03A01196012
:1047000030BC7047D2F8A0114906A9D4D2F8A01144
:104710004906F7D5A4E700BF38B50C46054613494E
:10472000204600F08FFCC0B2FF28287014D04FF450
:104730004043C4F20F03D3F8A821204622F44001DD
:10474000C3F8A811094900F03FFC4FF44040C4F2FF
:1047500008000023036038BD054C06492568E86859
:1047600003F0F2F8012000F01FFC00BFD84C01005C
:1047700060140010C04C01004FF6C0734FF440426B
:104780000B40C4F208021360704700BF10B500214F
:10479000044604F01F0400F047F8012000FA04F07A
:1047A00010BD00BF006800F061B800BF31B9836878
:1047B00041681A6822EA01021A607047012900D094
:1047C000704783684268196841EA020018607047C0
:1047D000F8B54B1C0D46044616461DD02160084610
:1047E000FFF7D4FF25F01F0303F11C0103F11807A5
:1047F00003F1140260602161E7606261A3602046FA
:104800003146FFF7D3FF2EB928460321BDE8F84013
:1048100000F02CB8012E00D0F8BD28460221BDE8DA
:10482000F84000F023B800BF431C10B41BD000F1C7
:104830006040A0F51C2404F00F035800032202FA84
:1048400000F201FA00F14FF440432009C4F20203E0
:1048500053F8204024EA020243F8202053F8202095
:10486000114343F8201010BC704700BF421C70B4C5
:1048700030D000F16040A0F51C20C1F3800400F0AE
:104880001F0504FA05F542094FF44043C4F2020340
:104890001A3253F8226026EA050643F8226053F8DC
:1048A0002260354343F82250A4B900F00F0462009F
:1048B000032505FA02F501FA02F20009103053F857
:1048C000201021EA050443F8204053F820402243F9
:1048D00043F8202070BC70470F4A4FF40043126821
:1048E000C4F2010302FB01F102225A6099619A6944
:1048F0003AB1026810689B6900FB01F1B1FBF3F16A
:1049000011604FF40040C4F20100026D092142F031
:1049100001030365416070477429001070B50E46AD
:1049200005463249304600F08DFBC2B2FF2A54D012
:1049300002F10803012000FA03F04FF44043C4F2EF
:104940000F032B49D3F8C44051F8221044F040041F
:104950002A712960C3F8C440D3F8A8214FF4004459
:1049600022F44051C3F8A811C4F20104002302222A
:10497000E3606261E16C1F4B0843E0641A684DF626
:104980008361C4F21B31A1FB02101B4A030D44F6E4
:10499000206128461360FFF79FFFA0690EF0F8FA28
:1049A00000210EF04DFB0EF037FDA4692979A042DD
:1049B00008BF0130012404FA01F42A684FF40043CF
:1049C0001060C4F20103196D304644EA0102074940
:1049D0001A65BDE8704000F0F7BA084D08492E6826
:1049E000F06802F0B1FF012000F0DEFAF04C0100A7
:1049F0003C140010381400107429001060140010CA
:104A0000A44D01002DE9F04F00230468C4F2010316
:104A100089B09C42079000F0E38040F393804FF40C
:104A20000043C4F209039C424FF4404000F0C980A7
:104A3000C4F20900844240F08B804FF44043C4F23A
:104A40000F03D3F8AC2122F44020C3F8AC01D3F813
:104A5000AC2142F48020C3F8AC01724B0801D3F8BA
:104A600000A0BAFBF0F300FB13A29BB20693002A4E
:104A700000F0A5800846590801910EF08DFA019AC0
:104A8000064606989042C0F09A80069C01250021B7
:104A9000B0460294049503910020012505906A1CFC
:104AA000D5B2102D5DD001980EF072FA4FF083410F
:104AB0000EF0C6FA0124814605E0019A0292601CBC
:104AC000C4B2AC42EBD050460EF062FA0746204624
:104AD0000EF05EFA834628460EF05AFA0146584612
:104AE0000EF062FB4FF07E510EF0A2F901464846EF
:104AF0000EF0A6FA014638460EF056FB0146304647
:104B00000EF094F931460EF04FFB0DF0EBFD02F084
:104B100035FC0EF037F9414607460EF02FFC002811
:104B2000CDD041F26F213846C3F683210EF026FC2A
:104B3000B846049503940028BFD0019B012102933D
:104B40000591BCE74FF44040C4F20000844258D0C5
:104B5000354D36492E68F06802F0F6FE012000F06F
:104B600023FA019B069C03F1010B1FFA8BFB5C45AA
:104B7000CDF804B002D3059900298DD0029C03988A
:104B8000049A079940EA021306940C68DBB2227B70
:104B9000069942F080022273079C080A2268079C4B
:104BA00010712068C9B20170226882F82830236829
:104BB000197B01F07F00187309B0BDE8F08F102356
:104BC000E5E7C4F20F00D0F8AC3123F44032C0F86E
:104BD000AC21D0F8AC3143F48032C0F8AC213CE7D2
:104BE0004FF44040C4F20F00D0F8A83123F44072D3
:104BF000C0F8A821D0F8A83143F48072C0F8A821E9
:104C00002BE74FF44043C4F20F03D3F8A82122F05E
:104C1000C000C3F8A801D3F8A82142F04000C3F8AF
:104C2000A8011AE738140010601400102C4E01007F
:104C300038B5013B012B0D4628D84C1F032C27D833
:104C4000042A0ED8DFE802F016191C1F03003022D8
:104C5000082144EA83030B4300681A43D1B201736D
:104C600038BD1049104D2868C06802F06DFE012063
:104C700000F09AF900221146EBE700220821E8E74C
:104C800010220821E5E720220821E2E70749E9E7A9
:104C9000054C074923682A46D86802F055FE0120D2
:104CA00000F082F9944E010060140010384E0100AB
:104CB000544E01002DE9F8430F460546A1493846F8
:104CC000164600F0BFF9A0490446304600F0BAF994
:104CD0000146204600F09EF9431C044600F029815D
:104CE0000023C4F20103984228607CD03CD94FF4E1
:104CF0000042C4F20902904200F0DD804FF44041CE
:104D0000C4F20901884235D14FF44042C4F20F0287
:104D1000D2F8C4104FF0010841F00070C2F8C4008E
:104D200084F808802B6800245C6028464FF41651F4
:104D3000FFF768FE2246434628460821FFF778FF22
:104D40003846804900F040F930467F4900F03CF990
:104D500038462146FFF78AFD30462146FFF786FD9B
:104D600003226A60BDE8F8834FF44040C4F20000BB
:104D7000844268D04FF0010984F808902B684FF006
:104D800000084FF41651C3F804802846FFF73AFE96
:104D900042464B4608212846FFF74AFF38466949F4
:104DA00000F012F93046684900F00EF938464146E5
:104DB000FFF75CFD30464146FFF758FD4046C4F220
:104DC000010084423BD000F2A6804FF44042C4F27E
:104DD0000002944263D04FF44040C4F20000844289
:104DE0005FD0BDE8F8834FF44040C4F20F00D0F824
:104DF000C4304FF0010843F01002C0F8C42084F81A
:104E00000880296800244C6028464FF41651FFF7AB
:104E1000F9FD2246434628460821FFF709FF384698
:104E2000484900F0D1F83046474900F0CDF83846FF
:104E30002146FFF71BFD30462146FFF717FD0120F5
:104E40006860BDE8F8834FF44042C4F20F02D2F824
:104E5000C4104FF0010841F00803C2F8C43084F8D0
:104E600008802868002444604FF416512846FFF754
:104E7000C9FD2246434628460821FFF7D9FE384699
:104E8000304900F0A1F830462F4900F09DF838462F
:104E90002146FFF7EBFC30462146FFF7E7FC0024F4
:104EA0006C602A4B2A480124294608221C60BDE870
:104EB000F84303F0C9BD4FF44041C4F20F01D1F8EB
:104EC000C4004FF0010840F08073C1F8C43084F88A
:104ED00008802A680024546028464FF41651FFF7D2
:104EE00091FD2246434628460821FFF7A1FE384699
:104EF000144900F069F83046134900F065F8384667
:104F00002146FFF7B3FC30462146FFF7AFFC0221F4
:104F10006960BDE8F8834FF40041C4F209018C4296
:104F2000F5D04FF44043C4F209039C427FF453AFE1
:104F300016E7084D08492E68F06802F005FD0120CB
:104F400000F032F8D44E0100C04D01007829001065
:104F5000F429001060140010B44E010010B442F6A1
:104F60007C1342F68C144068C1F20004C1F20003C5
:104F7000216043F8202010BC704700BF0268137DF9
:104F8000D907FCD5107870470268137D03F0200024
:104F9000C3B2002BF9D0C9B2117070470368187DF5
:104FA00000F00100704700BF10B5044600F00AF899
:104FB00020B904B9FEE700F0B9FDFBE700F060F8A6
:104FC000F7E700BF00F068B8431C10B5044613D0E3
:104FD0000B68581C04D110E051F80C3F5A1C0CD03F
:104FE0009C42F9D120468968FFF71EFC2046022129
:104FF000BDE81040FFF73ABC10BD04480449026800
:10500000D06802F0A1FC0120FFF7CEFF6014001071
:10501000404F0100884208B503D0421C02D0013144
:1050200002D108BD084608BD044B05491868C06890
:1050300002F08AFC0120FFF7B7FF00BF60140010E8
:10504000544F010008B5431C0BD00B685A1C04D107
:1050500008E051F80C3F5A1C04D09842F9D1486836
:1050600008BD08BD044805490268D06802F06CFC20
:105070000120FFF799FF00BF60140010684F010086
:1050800030B585B06D46182420462946ABBE04468F
:10509000204605B030BD00BF4EF6F053CEF20003FF
:1050A000186800F00100704738B5054600F014FD9F
:1050B000044600F011FD001BA842FAD338BD00BF22
:1050C0004FF47A7303FB00F0FFF7EEBF4FF410517B
:1050D00008B5C4F674110DF0B3FF0EF077F9BDE812
:1050E0000840FFF7E1BF00BF38B500220260426010
:1050F0000B7804462F2B01D0204638BD4878002875
:10510000FAD0481C20604B782F2B12D0A3B18D1CF5
:10511000114600E042B125602A782B460131013565
:105120002F2AF7D10133236000F0FCFD6060204698
:1051300038BD03461146F5E71946F5E700687047A4
:10514000406808B520B100F00DFE431E584258419A
:1051500008BD00BF10B50446FFF7F2FF00B160685C
:1051600010BD00BF406808B528B100F0FBFDD0F1CC
:10517000010038BF002008BD10B50446FFF7F2FF5C
:1051800010B1606800B1043810BD00BF4068003045
:1051900018BF0120704700BF0022016042607047C5
:1051A00008B5036801460BB1984708BD406810B1C7
:1051B0008A690831904708BD10B5044600F024FA0A
:1051C00048F2A06242F69013C0F20102C1F200035D
:1051D00062601C60204610BD10B54160044600F0BE
:1051E00085FA42F69013C1F200031C6010BD00BFA7
:1051F00038B5054D04462B68834203D0416800F062
:1052000075FA2C6038BD00BF90290010F0B583B04E
:105210001C4605460F461646FFF7EAFF9DF820306C
:10522000394683F00100009032462846234600F0BC
:1052300065FB201A18BF012003B0F0BDF0B583B0A4
:105240001C4605460F461646FFF7D2FF9DF8203054
:10525000394683F00100009032462846234600F08C
:1052600053FA201A18BF012003B0F0BD183000F027
:105270004FB800BF183000F049B800BF38B5044639
:105280001D4600F1180000F017F82046294600F0EE
:10529000EDF844F6B873C0F2010303F108023C33A1
:1052A00084E80C00204638BDC1EBC10100EB810051
:1052B0000830FFF775BF00BF70B504460D4600F11A
:1052C000080000211646FFF767FF002104F12400C3
:1052D000FFF762FF204629463246FFF7EBFC4FF40A
:1052E000165345F2A92120462364C0F2000122464C
:1052F000FFF734FE204670BD38B505460C46FFF773
:1053000081FB2C6438BD00BFFFF748BEFFF736BEF7
:1053100010B50C46FFF738FE204610BD0020704740
:105320002DE9F0418E18B1420F46054630D0036892
:105330008A1B0C46D2435B6A14F8011B02F0010879
:10534000984701301ED0A6421FD0B8F1000F09D0F7
:10535000296828464A6A14F8011B9047013011D089
:10536000A64212D0286814F8011B436A28469847C1
:105370000130284606D02A6814F8011B536A984762
:105380000130EDD1E01BBDE8F081F01BBDE8F081FC
:105390000020BDE8F08100BF2DE9F0418E18B14238
:1053A0000F46054631D003688A1BD1439C6A01F041
:1053B0000108A047431C3C4624D03C4604F8010B9E
:1053C000A6421CD0B8F1000F06D02B6828469A6A76
:1053D0009047431C0FD115E0296828468B6A9847EF
:1053E0000246511C28460DD004F8012B29688B6A0F
:1053F0009847421C06D004F8010BA642ECD1F01BE2
:10540000BDE8F081E01BBDE8F0810020BDE8F0813F
:105410000020704700207047002070470020704730
:1054200045F22003C0F2010303F108023C3310B53A
:10543000044680E80C00406902F024F8204600F0A1
:1054400093FC204610BD00BFA0F10400FFF7E8BFA9
:1054500010B50446FFF7E4FF204600F0C1FC2046EB
:1054600010BD00BFA0F10400FFF7F2BF10B584B07B
:10547000044600F09FFC45F22003C0F2010303F153
:10548000080044F6B0413C3384E809002246C0F2EB
:10549000010101A803F0F8FF45F27401C0F2010117
:1054A00001A802F049FA0021606103F0D9FE20460C
:1054B00004B010BD38B5044640690D4602F0C2F88C
:1054C00061692846BDE8384002F052BA10B504467A
:1054D000406902F0B7F86069BDE8104002F0C4B856
:1054E0000EB430B582B005AB53F8045B0446406996
:1054F000019302F0A7F860692946019A08F014FFA9
:1055000002B0BDE8304003B0704700BF4368016996
:1055100010B5C918044600F05BF804F11400BDE8AA
:105520001040FFF73DBE00BF10B5044600F0D4FAAE
:1055300001236060236010BD036810B504460BB9F9
:10554000184610BD00F0C8FA6168401A10BD00BFCF
:1055500010B58468FFF7F0FF201810BD08B5FFF7FD
:10556000F7FF44F6D353C1F2620383FB0021C01757
:10557000C0EBA11008BD00BF10B50446FFF7DCFF6B
:10558000A36800211818A060216010BD10B5044662
:1055900000F0A2FA00236060A36010BD10B50446BD
:1055A000FFF7F4FF204610BD08B5036899688847E7
:1055B00008BD00BF054B10B50446036045F2A95075
:1055C000C0F2000000F0F4FA204610BDD0500100F7
:1055D0000246043000F01ABB043000F039BB00BFB3
:1055E000034B10B504460360FFF7F6FF204610BDDD
:1055F000D050010010B50446FFF7F2FF204600F03E
:10560000EFFB204610BD00BFF8B50D4606463249F7
:1056100028461446FFF716FD304907462046FFF797
:1056200011FD01463846FFF7F5FC421C0346306089
:1056300049D04FF44042C4F20502904238D00020D5
:10564000C4F20A0083424FF4404228D0C4F201025F
:10565000934219D0224A42F663501168C0F23E507C
:105660000A0AA0FB02013C228809586118619A616C
:105670004022284618491A60FFF7A6FC1749204621
:10568000BDE8F840FFF7A0BC4FF44040C4F20F0063
:10569000D0F8C41041F08002C0F8C420DAE7C4F2A8
:1056A0000F02D2F8C40040F08061C2F8C410D1E704
:1056B0004FF44042C4F20F02D2F8C40040F400217B
:1056C000C2F8C410C6E7074C07492568E86802F02D
:1056D0003BF90120FFF768FCF4500100485101003C
:1056E00038140010601400103051010041F23843AA
:1056F000C1F200031A68006893084900B3FBF1F295
:1057000042610261704700BF2DE9F00104683C2549
:105710002426A5612660256827462D070DD448F26A
:10572000A065C0F2010504E02668360705D4013DF6
:1057300003D02668013D3607F6D565682026102D72
:10574000A6611CD0082D1AD0102108202160A0616C
:105750002368DB060DD548F2A060C0F2010004E02A
:105760002268D60605D5481E03D02668411EF006DD
:10577000F6D46FF001063046BDE8F001704741F005
:1057800001010826A160A661216809070DD448F22D
:10579000A066C0F2010604E025682E0705D44E1E5F
:1057A00003D02568711E2E07F6D56168402917D0F1
:1057B000102608222660A2612168CB060DD548F28A
:1057C000A062C0F2010204E02668F60605D55A1E62
:1057D00003D02068531EC006F6D44FF0FF36CAE748
:1057E00003F1FF3C0026BCF1000F22DD4FF004085E
:1057F0000827C4F80080A761256829070DD448F25E
:10580000A061C0F2010104E025682D0705D401392B
:1058100003D0256801392D07F6D5A5686168EDB27A
:10582000502936D195550136664501D00468E0E728
:10583000076804240821BC61B9613C6821070DD4C4
:1058400048F2A061C0F2010104E03C68240705D4DD
:10585000013903D03C6801392407F6D5BC68796862
:1058600058292FD0102308223B60BA613868C3063C
:105870000DD548F2A062C0F2010204E03B68DE06EA
:1058800005D54A1E03D03E68511EF006F6D4664682
:1058900071E7102008212060A1612368D9067FF5F7
:1058A0006AAF48F2A063C0F2010306E02068C206B6
:1058B0007FF561AF4B1E3FF45EAF2268591ED006E4
:1058C000F4D458E79455059AAAB102680826102026
:1058D000106096611168C9060DD548F2A061C0F24A
:1058E000010104E01668F60605D5013903D01068F9
:1058F0000139C006F6D41E463DE700BF70B4046807
:1059000024253C20A0612560206800070DD448F2C2
:10591000A060C0F2010004E025682D0705D401381D
:1059200003D0256801382D07F6D56068202510289A
:10593000A5611AD0082818D0102008232060A36180
:105940002168C9060DD548F2A061C0F2010104E04A
:105950002068C20605D5591E03D022684B1ED0060A
:10596000F6D46FF0010070BC704701F0FE01082012
:10597000A160A061216809070DD448F2A061C0F2BE
:10598000010104E02068000705D4013903D0206834
:1059900001390007F6D56068182817D010200821B3
:1059A0002060A1612268D1060DD548F2A062C0F244
:1059B000010204E02168CA0605D55A1E03D02068FA
:1059C000531EC006F6D44FF0FF30CCE7002B1DDD90
:1059D00000200826115CA160A661216809070FD488
:1059E00048F2A061C0F2010105E0256815F0080F3A
:1059F00006D1013904D02568013915F0080FF4D01B
:105A0000616828291BD101309842E3D1039AA2B1E1
:105A1000102008212060A1612268D2060DD548F22D
:105A2000A062C0F2010204E02168C80605D5013A6F
:105A300003D02068013AC106F6D4184693E7102334
:105A400008212360A1612268D1068CD548F2A063A9
:105A5000C0F2010304E02268D20684D5013B82D063
:105A60002168013BC906F6D47DE700BF174A38B567
:105A700013684BBB4FF44041C4F20F01D1F8C4008E
:105A800001254FF480441560C4F2090440F400007D
:105A90000F4AC1F8C400236711684DF68363880874
:105AA000C4F21B33A3FB0012910C4B1E022060605A
:105AB0000849E36004206560FEF798FB4FF46141FC
:105AC000CEF2000110220A6038BD00BF94290010F8
:105AD00038140010C55B000008B5054B186808B9FC
